:08000000803102288731FD2F39
:100E6A0021008E018C018D0123008E018D018C01E0
:100E7A00343022008C0070308D0087318E27873104
:100E8A00303022008C008D0187318E278731143053
:100E9A0022008C00B0308D0087318E2787313430A4
:100EAA0022008C0090308D0087318E2787313030B8
:100EBA0022008C00C0308D0087318E278731243084
:100ECA0022008C00D0308D0087318E278731243064
:100EDA0022008C00F0308D0087318E278731343024
:100EEA0022008C008D0187318E2787313430220011
:100EFA008C00F0308D0087318E2787313430220004
:100F0A008C00D0308D0087318E2787313D2F80317C
:100F1A0002283F3022008E004130F000EE30890B6B
:100F2A00942FF00B942F0032063022008E004130AD
:100F3A00F000EE30890B9F2FF00B9F2F00325B30B1
:100F4A0022008E004130F000EE30890BAA2FF00B00
:100F5A00AA2F00324F3022008E004130F000EE30CE
:100F6A00890BB52FF00BB52F0032663022008E00A8
:100F7A004130F000EE30890BC02FF00BC02F003249
:100F8A006D3022008E004130F000EE30890BCB2FFD
:100F9A00F00BCB2F00327D3022008E004130F00062
:100FAA00EE30890BD62FF00BD62F003207302200F5
:100FBA008E004130F000EE30890BE12FF00BE12F6B
:100FCA0000327F3022008E004130F000EE30890B73
:100FDA00EC2FF00BEC2F00326F3022008E004130E4
:100FEA00F000EE30890BF72FF00BF72F00320800D4
:060FFA0020008731352FB5
:020000040001F9
:08000000FF3FFF3FFF3FFF3F00
:04000E00A409FF3D05
:00000001FF
