:08000000803102288731ED2F49
:10002A000800640080010131890B1728003422007E
:10003A008E018D0121008D018E0123008E018D011B
:10004A000530F600DE30890B2828F60B28283230D6
:10005A008F31E127803128308F31E12780310C3010
:10006A008F31E127803101308F31E127803106302D
:10007A008F31E127803108002100AF00A230FD0056
:10008A007D08AE002F08FD007D08B000B201B30163
:10009A00B801B90121082000DF0021002008200052
:1000AA00DE00AE30FD007D08E000B03080318E20E9
:1000BA008031210032082F07FD007D088600870164
:1000CA0081010800F9000230760203186D286E28B3
:1000DA008D2810307902031C7328742875288D28FE
:1000EA007603031979287A28802880307904F70062
:1000FA000030F8008528C0307904F7000030F80095
:10010A0077088F31E1278031FA300032890B8A284B
:10011A0008002000E3005F08E5005E08E400E6014D
:10012A00E701A8286430E1006108CE006008E20017
:10013A006208CF0063088231C122803120004E0854
:10014A00E6074F08E73D6408840065088500120049
:10015A00031DB028B12897286708DF006608DE006B
:10016A0008002000A300A101A201CE282008F9005E
:10017A00FA017908F0007A08F1007808FB007B0898
:10018A00F20081316721803101302000A10700305F
:10019A00A23D21082307F90079088600013087006B
:1001AA000108FA007A08A0002008031DDD28DE28CD
:1001BA00BB28080010307C020318E428E5281B2914
:1001CA0002307D020318EA28EB281B297D0820004B
:1001DA00A0002008F6007C088031672080312000CA
:1001EA00A3010B297B08A1007A08A0002308200795
:1001FA00840021080318210A850000088F31C427CA
:10020A00803101302000A0002008A3077B08A1004C
:10021A007A08A00023082007840021080318210A6D
:10022A0085001200031D1A291B29F7280800F2006D
:10023A007208F039F1007108F20022000E080F3935
:10024A008E000D128D120D138D137208F1000730F6
:10025A00F136890B2D29711C3329342936298D173A
:10026A0037298D137208F1000630F136890B3A29C5
:10027A00711C4029412943290D1744290D1372087D
:10028A00F1000530F136890B4729711C4D294E2999
:10029A0050298D1651298D127208F1000430F13659
:1002AA00890B5429711C5A295B295D290D165E296F
:1002BA000D12700C031C0E1003180E148E100E155E
:1002CA000E110800720803196B296C29712972082A
:1002DA00031D702971297629700880311520813112
:1002EA00B8297208083E860087011600010403191E
:1002FA007F2980299E297208083E86008701403F8F
:10030A00F300413FF4007208023E86008701403F35
:10031A00F500413FF6007608803AF7007408803A03
:10032A007702031D9A297308750203189D299E29CD
:10033A00B8297008F3007208860087017208023E25
:10034A008400850100080107F4007408860087010B
:10035A00730881007208023E860087010130810716
:10036A0041310318810A0800F601F31FBD29BE298D
:10037A00C529F209F309F20A0319F30AF601F60A82
:10038A00F11FC829C929CE29F009F109F00A031970
:10039A00F10A700871040319D329D429FD29F5013A
:1003AA00F50AE0290130F035F10D890BD829013021
:1003BA00F4007408F507F11FE329E429D729710825
:1003CA007302031DEA2970087202031CED29EE2943
:1003DA00F2297008F2027108F33B0130F136F00C91
:1003EA00890BF3290130F502031DFC29FD29E429B3
:1003FA0076080319012A022A072AF209F309F20ADE
:10040A000319F30A7308F1007208F00008002000CB
:10041A00AB006C1C112A122A1A2A2B08FC007C0831
:10042A00F80024088031B62082312000A61B1E2A3B
:10043A001F2A242A2608AA002508A900262AA90173
:10044A00AA01A701A8013A2A2030F0000030F100E1
:10045A0020002B08FC007C08F200813167218231E0
:10046A0001302000A7070030A83D2808803AFC0088
:10047A002A08803A7C02031D442A29082702031C01
:10048A00472A482A292A20006C184C2A4D2A552A1C
:10049A002B08FC007C08F80024088031B620823141
:1004AA00200024088F31AA278231200029087007EA
:1004BA00A4002A08713DA5000800F601F11F662A6A
:1004CA00672A6E2AF009F109F00A0319F10AF601FE
:1004DA00F60AF31F712A722A7B2AF209F309F20A31
:1004EA000319F30A0130F4007408F606F701F8015B
:1004FA00700871040319822A832AB22AF501F50ABF
:10050A008F2A0130F035F10D890B872A0130F4006A
:10051A007408F507F11F922A932A862A0130F735C3
:10052A00F80D890B942A71087302031D9E2A70081C
:10053A007202031CA12AA22AA72A7008F2027108D1
:10054A00F33B77140130F136F00C890BA82A0130FD
:10055A00F502031DB12AB22A932A76080319B62A8C
:10056A00B72ABC2AF709F809F70A0319F80A78081A
:10057A00F1007708F00008002000DD004E08860030
:10058A008701403FD000413FD10050088400510804
:10059A0085001200253A031DD32AD42A762B4E0849
:1005AA00860087010130810741310318810AE80179
:1005BA00E901EC01ED01FF30EA00FF30EB004E08E3
:1005CA0086008701403FD000413FD1005008840097
:1005DA00510885001200643A0319F42AF52A062BF9
:1005EA004E0886008701403FD000413FD1005008A5
:1005FA008400510885001200693A031D052B062B59
:10060A00412B4E08860087010130810741310318CA
:10061A00810A4F088600870101088400850102309B
:10062A008107003FD000013FD1005008D500510892
:10063A00D600890D893B8909D700D800D900DA008C
:10064A00DB00DC005508B0005608B1005708B200BC
:10065A005808B3005908B4005A08B5005B08B60038
:10066A005C08B7005D0886318C268231200031088B
:10067A00CF003008CE00992B4E0886008701403FF4
:10068A00D000413FD1005008840051088500120073
:10069A00253A031D512B522B6B2B4E0886008701DE
:1006AA000130810741310318810A2530F0000030FA
:1006BA00F1005D08D0005008F200813167218231D3
:1006CA0001302000CE000030CF00992B4E08860062
:1006DA0087010130810741310318810ACE01CF0118
:1006EA00992B4E0886008701403FD000413FD10038
:1006FA0050088400510885000008D200D30152082E
:10070A00F0005308F1005D08D4005408F20081316A
:10071A006721823120004E08860087010130810757
:10072A0041310318810A652B0800F201283086003E
:10073A0000308700473FF000F01FA42BA52BC62BE3
:10074A002000A809A909AA09AB09AC09AD09AE0993
:10075A00AF09A80A031DC42BA90A031DC42BAA0AA0
:10076A00031DC42BAB0A031DC42BAC0A031DC42BE7
:10077A00AD0A031DC42BAE0A031DC42BAF0AF20136
:10078A00F20A2030860000308700473FF000F01F51
:10079A00CF2BD02BEF2B2000A009A109A209A30976
:1007AA00A409A509A609A709A00A031DEF2BA10AF6
:1007BA00031DEF2BA20A031DEF2BA30A031DEF2B28
:1007CA00A40A031DEF2BA50A031DEF2BA60A031D7E
:1007DA00EF2BA70A20002008210422042304240462
:1007EA002504260427040319FB2BFC2B4F2CF101AB
:1007FA00F10A0B2CA035A10DA20DA30DA40DA50D78
:10080A00A60DA70D0130F0007008F107A71F0E2CE6
:10081A000F2CFF2B27082F02031D2D2C26082E0232
:10082A00031D2D2C25082D02031D2D2C24082C0216
:10083A00031D2D2C23082B02031D2D2C22082A020E
:10084A00031D2D2C21082902031D2D2C2008280206
:10085A00031C302C312C412C2008A8022108A93B6A
:10086A002208AA3B2308AB3B2408AC3B2508AD3B36
:10087A002608AE3B2708AF3BA736A60CA50CA40C4E
:10088A00A30CA20CA10CA00C0130F102031D4E2CEA
:10089A004F2C0F2C72080319532C542C722CA809B4
:1008AA00A909AA09AB09AC09AD09AE09AF09A80A99
:1008BA00031D722CA90A031D722CAA0A031D722C8D
:1008CA00AB0A031D722CAC0A031D722CAD0A031D60
:1008DA00722CAE0A031D722CAF0A20002808A00051
:1008EA002908A1002A08A2002B08A3002C08A400AA
:1008FA002D08A5002E08A6002F08A7000800F2015F
:10090A002030860000308700473FF000F01F8E2C11
:10091A008F2CB02C2000A009A109A209A309A409BF
:10092A00A509A609A709A00A031DAE2CA10A031D41
:10093A00AE2CA20A031DAE2CA30A031DAE2CA40AD8
:10094A00031DAE2CA50A031DAE2CA60A031DAE2C50
:10095A00A70AF201F20A2830860000308700473FD2
:10096A00F000F01FB92CBA2CDD2C2000A809A90927
:10097A00AA09AB09AC09AD09AE09AF09A80A031D5A
:10098A00D92CA90A031DD92CAA0A031DD92CAB0AF2
:10099A00031DD92CAC0A031DD92CAD0A031DD92C71
:1009AA00AE0A031DD92CAF0A0130F0007008F20616
:1009BA0073308600003087000830F00000301E00D7
:1009CA00F00BE42C20002008210422042304240430
:1009DA002504260427040319F32CF42C502DF101C5
:1009EA00F10A032DA035A10DA20DA30DA40DA50D8D
:1009FA00A60DA70D0130F0007008F107A71F062DFC
:100A0A00072DF72CF335F40DF50DF60DF70DF80D4E
:100A1A00F90DFA0D27082F02031D2D2D26082E0287
:100A2A00031D2D2D25082D02031D2D2D24082C0212
:100A3A00031D2D2D23082B02031D2D2D22082A020A
:100A4A00031D2D2D21082902031D2D2D2008280202
:100A5A00031C302D312D422D2008A8022108A93B64
:100A6A002208AA3B2308AB3B2408AC3B2508AD3B34
:100A7A002608AE3B2708AF3B7314A736A60CA50C75
:100A8A00A40CA30CA20CA10CA00C0130F102031DB2
:100A9A004F2D502D072D72080319542D552D732DE6
:100AAA00F309F409F509F609F709F809F909FA0940
:100ABA00F30A031D732DF40A031D732DF50A031D92
:100ACA00732DF60A031D732DF70A031D732DF80AF9
:100ADA00031D732DF90A031D732DFA0A73082000EA
:100AEA00A0007408A1007508A2007608A300770880
:100AFA00A4007808A5007908A6007A08A7000800CB
:100B0A002100D601D701CF01D001D101D201D301F1
:100B1A00D40180311C2085310030FA009030FB006E
:100B2A00FC01FC0AFD018031DF2085311F30FA000B
:100B3A009030FB0004302100BA003A08FC00FD01A5
:100B4A00FD0A8031DF2085312100D501D601D70188
:100B5A000A30F0000030F1005508BA00BB013A082B
:100B6A00F2003B08F30082316222853170082100CD
:100B7A00BC003C08CF000A30F0000030F1005508F4
:100B8A00BA00BB013A08F2003B08F3008131B921EF
:100B9A00853170082100BC003C08D0000A30F00002
:100BAA000030F1005608BA00BB013A08F2003B08CF
:100BBA00F30082316222853170082100BC003C08B2
:100BCA00D1000A30F0000030F1005608BA00BB012B
:100BDA003A08F2003B08F3008131B92185317008E7
:100BEA002100BC003C08D2000A30F0000030F100BD
:100BFA005708BA00BB013A08F2003B08F3008231F9
:100C0A006222853170082100BC003C08D3000A30FA
:100C1A00F0000030F1005708BA00BB013A08F200B0
:100C2A003B08F3008131B921853170082100BC00ED
:100C3A003C08D4001030A0009030A1004F08BA0040
:100C4A00BB013A08A2003B08A3005008BC00BD0142
:100C5A003C08A4003D08A5005108BE00BF013E089B
:100C6A00A6003F08A7005208C000C1014008A8001A
:100C7A004108A9005308C200C3014208AA00430858
:100C8A00AB005408C400C5014408AC004508AD00D7
:100C9A00C630803141208531C630FA000030FB0071
:100CAA0004302100BA003A08FC00FD01FD0A803137
:100CBA00DF20853111302100BA003A30890B632ECA
:100CCA00BA0B632E000001302100BA003A08D70798
:100CDA003C305702031C722E732EAD2D0130BA0020
:100CEA003A08D6073C305602031C7C2E7D2EAC2DCA
:100CFA000130BA003A08D50718305502031C862E6F
:100D0A00872EAB2DD601D701A92D803102282000CC
:100D1A00BD003008C4003108C5003208C6003308D7
:100D2A00C7003408C8003508C9003608CA003708A1
:100D3A00CB004430860000308700473FB800B81B1C
:100D4A00A72EA92E0130AA2E00302000B900BA0120
:100D5A003908C2003A08C300420843040319B62EF0
:100D6A00B72ED52EC409C509C609C709C809C909B4
:100D7A00CA09CB09C40A031DD52EC50A031DD52EDF
:100D8A00C60A031DD52EC70A031DD52EC80A031D80
:100D9A00D52EC90A031DD52ECA0A031DD52ECB0A84
:100DAA002000EB1BD92EDA2EDE2EFD30EC05FF30AB
:100DBA00ED056B08803AB80080303802031DE72E33
:100DCA0001306A020318EA2EEB2EF12E01302000C0
:100DDA00BE000030BF00F62E20006B08BF006A0874
:100DEA00BE006908C1006808C00042084304031D28
:100DFA00FF2E002F042F6C1D032F042F082FFF3006
:100E0A00C007FF30C13D1F30CC000030CD002200AA
:100E1A00BF01782FFF302000CC07FF30CD3D0A30CC
:100E2A00A000A101A201A301A401A501A601A70195
:100E3A004408A8004508A9004608AA004708AB00CC
:100E4A004808AC004908AD004A08AE004B08AF009C
:100E5A0083319A23863120002108F4002008F30008
:100E6A008F31902786317308303E2000B8004C0835
:100E7A00203E86000130870038088100FF30BE0717
:100E8A00FF30BF3DFF30C007FF30C13D0A30A00030
:100E9A00A101A201A301A401A501A601A701440879
:100EAA00A8004508A9004608AA004708AB00480858
:100EBA00AC004908AD004A08AE004B08AF008431C7
:100ECA008424863120002008C4002108C500220895
:100EDA00C6002308C7002408C8002508C900260838
:100EEA00CA002708CB0020004D08803AB80080309D
:100EFA003802031D822F01304C02031C852F862FD6
:100F0A00B32F200044084504460447044804490412
:100F1A004A044B04031D922F932F0F2F3F08803A48
:100F2A00B80080303802031D9C2F01303E0203189E
:100F3A009F2FA02F0F2F20004108803AB800803041
:100F4A003802031DAA2F01304002031CAD2FAE2F19
:100F5A00B32F2000EC18B22FB32F0F2F2000420816
:100F6A004304031DB92FBA2FBE2F6C1DBD2FBE2FF0
:100F7A00DA2FFF30CC07FF30CD3D42084304031D72
:100F8A00C72FC82FCD2F2B30BB000030BC00D12F6C
:100F9A002D30BB000030BC003B08B8004C08203E96
:100FAA00860001308700380881004C08203EB800CE
:100FBA003808A4004108A6004008A5003D0882316F
:100FCA000C22863120002508B1002408B000080050
:100FDA006630840000308500083080311620873161
:100FEA00203084000130850020308031162087317E
:060FFA0020008531852D69
:101F20007408803AF50080307502031D992F013046
:101F3000730203189C2F9D2FA92F7309F5007409B4
:101F4000F600F50A0319F60A7508F3007608F4009E
:101F5000A92F0800F4007408F2007208F300B42FEF
:101F60000130F2007208F40774088600013087001F
:101F70000108031DBC2FBD2FB02F73087402F000A1
:101F8000F101F01BF1030800F500FA300032890B73
:101F9000C62FF001F00A750881311C218F317508B8
:101FA000F3000330F335FF3E031DD22F7335F400E9
:101FB0007408F500F001F00A750881311C218F3199
:101FC0000800F500FA300032890BE32FF0017508A4
:101FD00081311C218F317508F3000330F335FF3E4A
:101FE000031DEE2F7335F4007408F5005330890B90
:101FF000F72F0000F001750881311C218F31080096
:102000004E3447345534593445344E3420344834F2
:10201000413449342034443441344E34473400345C
:1020200025346434253464343A3425346434253416
:1020300064343A3425346434253464340034303420
:1020400030343A34303430343A343034303400348C
:020000040001F9
:08000000FF3FFF3FFF3FFF3F00
:04000E00A409FF1D25
:00000001FF
