:08000000803102288731FD2F39
:1004BE0022000E150E11080022008E168E12080054
:1004CE00F501F601712A22000E140E100130F50707
:1004DE000030F63D7008FF3EF200FF30713DF30034
:1004EE007308803AF4007608803A7402031D812A5C
:1004FE00750872020318842A852A6A2A0800F501F3
:10050E00F601902A22008E158E110130F50700306B
:10051E00F63D7008FF3EF200FF30713DF3007308A8
:10052E00803AF4007608803A7402031DA02A7508FA
:10053E0072020318A32AA42A892A0800EF2A0A3075
:10054E00F0000030F1002108F3002008F2008331A2
:10055E00482382317108FA007008F90085315C2554
:10056E0082310130F0000030F1008231862282317A
:10057E000A30F0000030F10020002108F3002008BE
:10058E00F2008231F52282317108FA007008F9000A
:10059E0085315C258231823163228231200023082D
:1005AE00F8002208F7008431172482310130F00060
:1005BE000030F10082316722823120002508F800D8
:1005CE002408F70084311724823182315F22823170
:1005DE0020008D1FF32AF42AA62A0800F601F31F25
:1005EE00F92AFA2A012BF209F309F20A0319F30A7E
:1005FE00F601F60AF11F042B052B0A2BF009F1095F
:10060E00F00A0319F10A7008710403190F2B102B4D
:10061E00392BF501F50A1C2B0130F035F10D890B44
:10062E00142B0130F4007408F507F11F1F2B202B3B
:10063E00132B71087302031D262B70087202031C04
:10064E00292B2A2B2E2B7008F2027108F33B013056
:10065E00F136F00C890B2F2B0130F502031D382BD0
:10066E00392B202B760803193D2B3E2B432BF209F9
:10067E00F309F20A0319F30A7308F1007208F00085
:10068E000800F601F11F4C2B4D2B542BF009F109EC
:10069E00F00A0319F10AF601F60AF31F572B582B2D
:1006AE00612BF209F309F20A0319F30A0130F4007F
:1006BE007408F606F701F801700871040319682B27
:1006CE00692B982BF501F50A752B0130F035F10DDC
:1006DE00890B6D2B0130F4007408F507F11F782B90
:1006EE00792B6C2B0130F735F80D890B7A2B7108AD
:1006FE007302031D842B70087202031C872B882B38
:10070E008D2B7008F2027108F33B77140130F1362D
:10071E00F00C890B8E2B0130F502031D972B982BB5
:10072E00792B760803199C2B9D2BA22BF709F80920
:10073E00F70A0319F80A7808F1007708F0000800A4
:10074E0005302000A6000030A7000930A8000030B8
:10075E00A900122C2708F8002608F7008431172468
:10076E0083310130F0000030F10082316722833195
:10077E0020002908F8002808F70084311724833157
:10078E0082315F2283317C082000A1007B08A0000B
:10079E002708A3002608A2002908A5002808A400FF
:1007AE008231A52283310730FD007D30890BDD2B90
:1007BE00FD0BDD2B00005230FD002A30890BE52B9E
:1007CE00FD0BE52B7C082000A1007B08A00027086C
:1007DE00A3002608A2002908A5002808A40082313B
:1007EE00A52283310730FD007D30890BFC2BFD0BDC
:1007FE00FC2B0000FF302000A807FF30A93DA91FE9
:10080E00092C0A2CB12BFF30A607FF30A73D09306B
:10081E00A8000030A900A71F152C162C062C0800C6
:10082E00392D22008E100130F0000030F10082319F
:10083E006722843122008E140630F0000030F10061
:10084E008231672284315B2D22008E100430F0003D
:10085E000030F10082316722843122008E14023082
:10086E00F0000030F10082316722843122008E10B8
:10087E000130F0000030F1008231672284315B2DAF
:10088E0022008E140130F0000030F1008231672218
:10089E00843122008E100130F0000030F1008231E0
:1008AE006722843122008E140230F0000030F100F5
:1008BE0082316722843122008E100130F000003028
:1008CE00F10082316722843122008E140230F00052
:1008DE000030F1008231672284315B2D22008E14AC
:1008EE000130F0000030F1008231672284312200A5
:1008FE008E100230F0000030F10082316722843118
:10090E0022008E140430F0000030F1008231672294
:10091E0084315B2D22008E140230F0000030F10085
:10092E0082316722843122008E100230F0000030B6
:10093E00F10082316722843122008E140230F000E1
:10094E000030F10082316722843122008E10013096
:10095E00F0000030F1008231672284315B2D2200DD
:10096E008E140230F0000030F100823167228431A3
:10097E0022008E100130F0000030F100823167222B
:10098E00843122008E140230F0000030F1008231EA
:10099E006722843122008E100130F0000030F10009
:1009AE0082316722843122008E140130F000003033
:1009BE00F1008231672284315B2D22008E140530C6
:1009CE00F0000030F10082316722843122008E1057
:1009DE000130F0000030F1008231672284312200B4
:1009EE008E140130F0000030F10082316722843124
:1009FE005B2D22008E100430F0000030F1008231A9
:100A0E006722843122008E140330F0000030F10092
:100A1E008231672284315B2D22008E140730F00064
:100A2E000030F1008231672284315B2D22008E145A
:100A3E000230F0000030F100823167228431220052
:100A4E008E100130F0000030F100823167228431C7
:100A5E0022008E140430F0000030F1008231672243
:100A6E0084315B2D7808003A03193E2D1D2D770831
:100A7E00003A0319182C013A03192B2C033A0319C7
:100A8E00472C013A0319752C073A0319912C013A98
:100A9E000319B62C033A0319E42C013A0319002D5D
:100AAE000F3A0319132D1D2D08007E2E22000E1253
:100ABE000130F0000030F1008231862285312200B3
:100ACE000E160630F0000030F1008231862285319C
:100ADE00A02E22000E120430F0000030F100823100
:100AEE008622853122000E160230F0000030F10011
:100AFE0082318622853122000E120130F000003044
:100B0E00F100823186228531A02E22000E16013090
:100B1E00F0000030F10082318622853122000E1263
:100B2E000130F0000030F100823186228531220042
:100B3E000E160230F0000030F1008231862285312F
:100B4E0022000E120130F0000030F10082318622B8
:100B5E00853122000E160230F0000030F100823195
:100B6E0086228531A02E22000E160130F0000030B4
:100B7E00F10082318622853122000E120230F00001
:100B8E000030F10082318622853122000E160430AB
:100B9E00F0000030F100823186228531A02E220035
:100BAE000E160230F0000030F100823186228531BF
:100BBE0022000E120230F0000030F1008231862247
:100BCE00853122000E160230F0000030F100823125
:100BDE008622853122000E120130F0000030F10025
:100BEE00823186228531A02E22000E160230F000B0
:100BFE000030F10082318622853122000E12013042
:100C0E00F0000030F10082318622853122000E166E
:100C1E000230F0000030F100823186228531220050
:100C2E000E120130F0000030F10082318622853143
:100C3E0022000E160130F0000030F10082318622C3
:100C4E008531A02E22000E160530F0000030F10086
:100C5E0082318622853122000E120130F0000030E2
:100C6E00F10082318622853122000E160130F0000D
:100C7E000030F100823186228531A02E22000E1224
:100C8E000430F0000030F1008231862285312200DE
:100C9E000E160330F0000030F100823186228531CD
:100CAE00A02E22000E160730F0000030F100823127
:100CBE0086228531A02E22000E160230F000003062
:100CCE00F10082318622853122000E120130F000B1
:100CDE000030F10082318622853122000E1604305A
:100CEE00F0000030F100823186228531A02E7A0884
:100CFE00003A0319832E622E7908003A03195D2DEE
:100D0E00013A0319702D033A03198C2D013A031978
:100D1E00BA2D073A0319D62D013A0319FB2D033AC2
:100D2E000319292E013A0319452E0F3A0319582E8D
:100D3E00622E08001A302000AA00F830890BA52E6A
:100D4E00AA0BA52E000021008E0123008E018D011D
:100D5E0021000D168D160D17951324000D168D16E8
:100D6E000D178D172000B501B601AF01B001AB0113
:100D7E00AC01AD01AE0120008D1AC62EC72EDC2EA1
:100D8E001E302000AA003730890BCB2EAA0BCB2E9B
:100D9E0020008D1AD32ED42EDC2E0130B507003054
:100DAE00B63D0130AF070030B03D0D1BDF2EE02EFB
:100DBE00F52E1E302000AA003730890BE42EAA0B28
:100DCE00E42E20000D1BEC2EED2EF52EFF30B50778
:100DDE00FF30B63DFF30AF07FF30B03D0D1AF82E95
:100DEE00F92E922F350836040319FE2EFF2E922F60
:100DFE00892F3608803AAA003008803A2A02031D4D
:100E0E000A2F2F083502031C0D2F0E2F132FFF3024
:100E1E002000B507FF30B63D0A30F0000030F1007B
:100E2E0020003608F3003508F2008331482386315E
:100E3E007108FA007008F90085315C2586310130A1
:100E4E00F0000030F1008231862286310A30F00047
:100E5E000030F10020003608F3003508F200823130
:100E6E00F52286317108FA007008F90085315C258B
:100E7E00863182316322863120003608FC00350827
:100E8E00FB008331A7238631FF302000B507FF30EA
:100E9E00B63D0A30F0000030F1003608F300350898
:100EAE00F20083314823863171082000B2007008A9
:100EBE00B1000A30F0000030F1003608F3003508BA
:100ECE00F2008231F522863171082000B4007008DC
:100EDE00B3003208FA003108F90085315C258631FD
:100EEE000130F0000030F100823186228631200080
:100EFE003408FA003308F90085315C2586318231D9
:100F0E00632286312000B61F8D2F8E2F002FB50144
:100F1E00B601AF01B0013608803AAA0080302A022D
:100F2E00031D9B2F3D30350203189E2F9F2FA42F9C
:100F3E002000B61FA32FA42FA72F2000B501B601A6
:100F4E000A30F0000030F1003608F3003508F200E8
:100F5E0083314823863171082000B2007008B10039
:100F6E000A30F0000030F1003608F3003508F200C8
:100F7E008231F522863171082000B4007008B3006A
:100F8E002C08F8002B08F700843117248631013025
:100F9E00F0000030F10082316722863120002E08E9
:100FAE00F8002D08F70084311724863182315F2234
:100FBE00863120003208FA003108F90085315C25AF
:100FCE0086310130F0000030F10082318622863108
:100FDE0020003408FA003308F90085315C2586318B
:100FEE00823163228631C22E803102282000863162
:020FFE00A12E22
:020000040001F9
:08000000FF3FFF3FFF3FFF3F00
:04000E00A409FF1D25
:00000001FF
