:08000000803102288731FD2F39
:10000E00F501F601112822000E100E140130F5072D
:10001E000030F63D7008FF3EF200FF30713DF300F8
:10002E007308803AF4007608803A7402031D212882
:10003E00750872020318242825280A2808008D3115
:10004E00442580314130F700EE30890B2C28F70B18
:10005E002C2800328D31782580310130F0000030AF
:10006E00F1008031072080318D31652580318D3151
:10007E00442580314130F700EE30890B4428F70BD0
:10008E00442800328D31782580310130F000003067
:10009E00F1008031072080318D31482580318D313E
:1000AE00442580314130F700EE30890B5C28F70B88
:1000BE005C2800328D31782580310130F00000301F
:1000CE00F1008031072080318D31CC2580318D318A
:1000DE00442580314130F700EE30890B7428F70B40
:1000EE00742800328E310D2680310130F000003040
:1000FE00F1008031072080318D31522580318D31D4
:10010E00442580314130F700EE30890B8C28F70BF7
:10011E008C2800328E310D2680310130F0000030F7
:10012E00F1008031072080318D31782580318D317D
:10013E00442580314130F700EE30890BA428F70BAF
:10014E00A42800328E310D2680310130F0000030AF
:10015E00F1008031072080318E310D2680318D31B6
:10016E00442580314130F700EE30890BBC28F70B67
:10017E00BC2800328E310D2680310130F000003067
:10018E00F1008031072080318D31942580318D3101
:10019E00442580314130F700EE30890BD428F70B1F
:1001AE00D42800328E310D2680310130F00000301F
:1001BE00F1008031072080318D31E82580318D317D
:1001CE00442580314130F700EE30890BEC28F70BD7
:1001DE00EC2800328E310D2680310130F0000030D7
:1001EE00F1008031072080318E313B2680318D31F8
:1001FE00442580314130F700EE30890B0429F70B8E
:10020E00042900328E310D2680310130F00000308D
:10021E00F1008031072080318D31B02580318D3154
:10022E00442580314130F700EE30890B1C29F70B45
:10023E001C2900328E310D2680310130F000003045
:10024E00F1008031072080318D31652580318D316F
:10025E00442580314130F700EE30890B3429F70BFD
:10026E00342900328E310D2680310130F0000030FD
:10027E00F1008031072080318D31482580318D315C
:10028E00442580314130F700EE30890B4C29F70BB5
:10029E004C2900328E310D2680310130F0000030B5
:1002AE00F1008031072080318D31CC2580318D31A8
:1002BE00442580314130F700EE30890B6429F70B6D
:1002CE00642900328D31942580310130F0000030E8
:1002DE00F1008031072080318D31522580318D31F2
:1002EE00442580314130F700EE30890B7C29F70B25
:1002FE007C2900328D31942580310130F0000030A0
:10030E00F1008031072080318D31782580318D319B
:10031E00442580314130F700EE30890B9429F70BDC
:10032E00942900328D31942580310130F000003057
:10033E00F1008031072080318E310D2680318D31D4
:10034E00442580314130F700EE30890BAC29F70B94
:10035E00AC2900328D31942580310130F00000300F
:10036E00F1008031072080318D31942580318D311F
:10037E00442580314130F700EE30890BC429F70B4C
:10038E00C42900328D31942580310130F0000030C7
:10039E00F1008031072080318D31E82580318D319B
:1003AE00442580314130F700EE30890BDC29F70B04
:1003BE00DC2900328D31942580310130F00000307F
:1003CE00F1008031072080318E313B2680318D3116
:1003DE00442580314130F700EE30890BF429F70BBC
:1003EE00F42900328D31942580310130F000003037
:1003FE00F1008031072080318D31B02580318D3173
:10040E00442580314130F700EE30890B0C2AF70B72
:10041E000C2A00328D31942580310130F0000030ED
:10042E00F1008031072080318D31652580318D318D
:10043E00442580314130F700EE30890B242AF70B2A
:10044E00242A00328D31942580310130F0000030A5
:10045E00F1008031072080318D31482580318D317A
:10046E00442580314130F700EE30890B3C2AF70BE2
:10047E003C2A00328D31942580310130F00000305D
:10048E00F1008031072080318D31CC2580318D31C6
:10049E00442580314130F700EE30890B542AF70B9A
:1004AE00542A00328D31E82580310130F0000030C1
:1004BE00F1008031072080318D31522580318D3110
:1004CE00442580314130F700EE30890B6C2AF70B52
:1004DE006C2A00328D31E82580310130F000003079
:1004EE00F1008031072080318D31782580318D31BA
:1004FE00442580314130F700EE30890B842AF70B0A
:10050E00842A00328D31E82580310130F000003030
:10051E00F1008031072080318E310D2680318D31F2
:10052E00442580314130F700EE30890B9C2AF70BC1
:10053E009C2A00328D31E82580310130F0000030E8
:10054E00F1008031072080318D31942580318D313D
:10055E00442580314130F700EE30890BB42AF70B79
:10056E00B42A00328D31E82580310130F0000030A0
:10057E00F1008031072080318D31E82580318D31B9
:10058E00442580314130F700EE30890BCC2AF70B31
:10059E00CC2A00328D31E82580310130F000003058
:1005AE00F1008031072080318E313B2680318D3134
:1005BE00442580314130F700EE30890BE42AF70BE9
:1005CE00E42A00328D31E82580310130F000003010
:1005DE00F1008031072080318D31B02580318D3191
:1005EE00442580314130F700EE30890BFC2AF70BA1
:1005FE00FC2A00328D31E82580310130F0000030C8
:10060E00F1008031072080318D31652580318D31AB
:10061E00442580314130F700EE30890B142BF70B57
:10062E00142B00328D31E82580310130F00000307E
:10063E00F1008031072080318D31482580318D3198
:10064E00442580314130F700EE30890B2C2BF70B0F
:10065E002C2B00328D31E82580310130F000003036
:10066E00F1008031072080318D31CC2580318D31E4
:10067E00442580314130F700EE30890B442BF70BC7
:10068E00442B00328E313B2680310130F000003099
:10069E00F1008031072080318D31522580318D312E
:1006AE00442580314130F700EE30890B5C2BF70B7F
:1006BE005C2B00328E313B2680310130F000003051
:1006CE00F1008031072080318D31782580318D31D8
:1006DE00442580314130F700EE30890B742BF70B37
:1006EE00742B00328E313B2680310130F000003009
:1006FE00F1008031072080318E310D2680318D3111
:10070E00442580314130F700EE30890B8C2BF70BEE
:10071E008C2B00328E313B2680310130F0000030C0
:10072E00F1008031072080318D31942580318D315B
:10073E00442580314130F700EE30890BA42BF70BA6
:10074E00A42B00328E313B2680310130F000003078
:10075E00F1008031072080318D31E82580318D31D7
:10076E00442580314130F700EE30890BBC2BF70B5E
:10077E00BC2B00328E313B2680310130F000003030
:10078E00F1008031072080318E313B2680318D3152
:10079E00442580314130F700EE30890BD42BF70B16
:1007AE00D42B00328E313B2680310130F0000030E8
:1007BE00F1008031072080318D31B02580318D31AF
:1007CE00442580314130F700EE30890BEC2BF70BCE
:1007DE00EC2B00328E313B2680310130F0000030A0
:1007EE00F1008031072080318D31652580318D31CA
:1007FE00442580314130F700EE30890B042CF70B85
:10080E00042C00328E313B2680310130F000003056
:10081E00F1008031072080318D31482580318D31B6
:10082E00442580314130F700EE30890B1C2CF70B3C
:10083E001C2C00328E313B2680310130F00000300E
:10084E00F1008031072080318D31CC2580318D3102
:10085E00442580314130F700EE30890B342CF70BF4
:10086E00342C00328D31B02580310130F000003053
:10087E00F1008031072080318D31522580318D314C
:10088E00442580314130F700EE30890B4C2CF70BAC
:10089E004C2C00328D31B02580310130F00000300B
:1008AE00F1008031072080318D31782580318D31F6
:1008BE00442580314130F700EE30890B642CF70B64
:1008CE00642C00328D31B02580310130F0000030C3
:1008DE00F1008031072080318E310D2680318D312F
:1008EE00442580314130F700EE30890B7C2CF70B1C
:1008FE007C2C00328D31B02580310130F00000307B
:10090E00F1008031072080318D31942580318D3179
:10091E00442580314130F700EE30890B942CF70BD3
:10092E00942C00328D31B02580310130F000003032
:10093E00F1008031072080318D31E82580318D31F5
:10094E00442580314130F700EE30890BAC2CF70B8B
:10095E00AC2C00328D31B02580310130F0000030EA
:10096E00F1008031072080318E313B2680318D3170
:10097E00442580314130F700EE30890BC42CF70B43
:10098E00C42C00328D31B02580310130F0000030A2
:10099E00F1008031072080318D31B02580318D31CD
:1009AE00442580314130F700EE30890BDC2CF70BFB
:1009BE00DC2C00328D31B02580310130F00000305A
:1009CE00F1008031072080318D31652580318D31E8
:1009DE00442580314130F700EE30890BF42CF70BB3
:1009EE00F42C00328D31B02580310130F000003012
:1009FE00F1008031072080318D31482580318D31D5
:100A0E00442580314130F700EE30890B0C2DF70B69
:100A1E000C2D00328D31B02580310130F0000030C8
:100A2E00F1008031072080318D31CC2580318D3120
:100A3E00442580314130F700EE30890B242DF70B21
:100A4E00242D00328D31652580310130F0000030CB
:100A5E00F1008031072080318D31522580318D316A
:100A6E00442580314130F700EE30890B3C2DF70BD9
:100A7E003C2D00328D31652580310130F000003083
:100A8E00F1008031072080318D31782580318D3114
:100A9E00442580314130F700EE30890B542DF70B91
:100AAE00542D00328D31652580310130F00000303B
:100ABE00F1008031072080318E310D2680318D314D
:100ACE00442580314130F700EE30890B6C2DF70B49
:100ADE006C2D00328D31652580310130F0000030F3
:100AEE00F1008031072080318D31942580318D3198
:100AFE00442580314130F700EE30890B842DF70B01
:100B0E00842D00328D31652580310130F0000030AA
:100B1E00F1008031072080318D31E82580318D3113
:100B2E00442580314130F700EE30890B9C2DF70BB8
:100B3E009C2D00328D31652580310130F000003062
:100B4E00F1008031072080318E313B2680318D318E
:100B5E00442580314130F700EE30890BB42DF70B70
:100B6E00B42D00328D31652580310130F00000301A
:100B7E00F1008031072080318D31B02580318D31EB
:100B8E00442580314130F700EE30890BCC2DF70B28
:100B9E00CC2D00328D31652580310130F0000030D2
:100BAE00F1008031072080318D31652580318D3106
:100BBE00442580314130F700EE30890BE42DF70BE0
:100BCE00E42D00328D31652580310130F00000308A
:100BDE00F1008031072080318D31482580318D31F3
:100BEE00442580314130F700EE30890BFC2DF70B98
:100BFE00FC2D00328D31652580310130F000003042
:100C0E00F1008031072080318D31CC2580318D313E
:100C1E00442580314130F700EE30890B142EF70B4E
:100C2E00142E00328D31482580310130F000003015
:100C3E00F1008031072080318D31522580318D3188
:100C4E00442580314130F700EE30890B2C2EF70B06
:100C5E002C2E00328D31482580310130F0000030CD
:100C6E00F1008031072080318D31782580318D3132
:100C7E00442580314130F700EE30890B442EF70BBE
:100C8E00442E00328D31482580310130F000003085
:100C9E00F1008031072080318E310D2680318D316B
:100CAE00442580314130F700EE30890B5C2EF70B76
:100CBE005C2E00328D31482580310130F00000303D
:100CCE00F1008031072080318D31942580318D31B6
:100CDE00442580314130F700EE30890B742EF70B2E
:100CEE00742E00328D31482580310130F0000030F5
:100CFE00F1008031072080318D31E82580318D3132
:100D0E00442580314130F700EE30890B8C2EF70BE5
:100D1E008C2E00328D31482580310130F0000030AC
:100D2E00F1008031072080318E313B2680318D31AC
:100D3E00442580314130F700EE30890BA42EF70B9D
:100D4E00A42E00328D31482580310130F000003064
:100D5E00F1008031072080318D31B02580318D3109
:100D6E00442580314130F700EE30890BBC2EF70B55
:100D7E00BC2E00328D31482580310130F00000301C
:100D8E00F1008031072080318D31652580318D3124
:100D9E00442580314130F700EE30890BD42EF70B0D
:100DAE00D42E00328D31482580310130F0000030D4
:100DBE00F1008031072080318D31482580318D3111
:100DCE00442580314130F700EE30890BEC2EF70BC5
:100DDE00EC2E00328D31482580310130F00000308C
:100DEE00F1008031072080318D31CC2580318D315D
:100DFE00442580314130F700EE30890B042FF70B7C
:100E0E00042F00328D31CC2580310130F0000030BE
:100E1E00F1008031072080318D31522580318D31A6
:100E2E00442580314130F700EE30890B1C2FF70B33
:100E3E001C2F00328D31CC2580310130F000003076
:100E4E00F1008031072080318D31782580318D3150
:100E5E00442580314130F700EE30890B342FF70BEB
:100E6E00342F00328D31CC2580310130F00000302E
:100E7E00F1008031072080318E310D2680318D3189
:100E8E00442580314130F700EE30890B4C2FF70BA3
:100E9E004C2F00328D31CC2580310130F0000030E6
:100EAE00F1008031072080318D31942580318D31D4
:100EBE00442580314130F700EE30890B642FF70B5B
:100ECE00642F00328D31CC2580310130F00000309E
:100EDE00F1008031072080318D31E82580318D3150
:100EEE00442580314130F700EE30890B7C2FF70B13
:100EFE007C2F00328D31CC2580310130F000003056
:100F0E00F1008031072080318E313B2680318D31CA
:100F1E00442580314130F700EE30890B942FF70BCA
:100F2E00942F00328D31CC2580310130F00000300D
:100F3E00F1008031072080318D31B02580318D3127
:100F4E00442580314130F700EE30890BAC2FF70B82
:100F5E00AC2F00328D31CC2580310130F0000030C5
:100F6E00F1008031072080318D31652580318D3142
:100F7E00442580314130F700EE30890BC42FF70B3A
:100F8E00C42F00328D31CC2580310130F00000307D
:100F9E00F1008031072080318D31482580318D312F
:100FAE00442580314130F700EE30890BDC2FF70BF2
:100FBE00DC2F00328D31CC2580310130F000003035
:100FCE00F1008031072080318D31CC2580318D317B
:100FDE00442580314130F700EE30890BF42FF70BAA
:100FEE00F42F00328E31F12E8031022820008E3106
:020FFE00ED2ED6
:101A880022000E150E11080022008E100730F000FB
:101A98000030F100803107208D31080022008E14BB
:101AA8000130F0000030F100803107208D31220034
:101AB8008E100630F0000030F100803107208D31A3
:101AC800080022008E140430F0000030F10080314C
:101AD80007208D3122008E100330F0000030F10015
:101AE800803107208D31080022008E140430F00068
:101AF8000030F100803107208D3122008E10023035
:101B0800F0000030F100803107208D3122008E1462
:101B18000130F0000030F100803107208D310800DD
:101B280022008E100130F0000030F10080310720D3
:101B38008D3122008E140230F0000030F100803127
:101B480007208D3122008E100430F0000030F100A3
:101B5800803107208D31080022008E100530F000FA
:101B68000030F100803107208D3122008E140130C1
:101B7800F0000030F100803107208D3122008E10F6
:101B88000130F0000030F100803107208D3108006D
:101B980022008E100230F0000030F1008031072062
:101BA8008D3122008E140130F0000030F1008031B8
:101BB80007208D3122008E100430F0000030F10033
:101BC800803107208D31080022008E100230F0008D
:101BD8000030F100803107208D3122008E14023050
:101BE800F0000030F100803107208D3122008E1086
:101BF8000230F0000030F100803107208D312200E2
:101C08008E140130F0000030F100803107208D3152
:101C1800080022008E100130F0000030F100803101
:101C280007208E3122008E140130F0000030F100C0
:101C3800803107208E3122008E100230F0000030F3
:101C4800F100803107208E3122008E140130F0001F
:101C58000030F100803107208E3122008E100230D2
:101C6800F0000030F100803107208E31080022009A
:101C78008E100230F0000030F100803107208E31E4
:101C880022008E140130F0000030F100803107206E
:101C98008E3122008E100230F0000030F1008031C9
:101CA80007208E3122008E140130F0000030F10040
:101CB800803107208E3122008E100130F000003074
:101CC800F100803107208E3108000130F00000302B
:101CD800F100803107208E318D3178258E318D319C
:101CE80044258E314130F700EE30890B792EF70B01
:101CF800792E00328D3178258E310130F000003098
:101D0800F100803107208E318E310D268E318D31D4
:101D180044258E314130F700EE30890B912EF70BB8
:101D2800912E00328D3178258E310130F00000304F
:101D3800F100803107208E318D3194258E318D311F
:101D480044258E314130F700EE30890BA92EF70B70
:101D5800A92E00328D3178258E310130F000003007
:101D6800F100803107208E318D31E8258E318D319B
:101D780044258E314130F700EE30890BC12EF70B28
:101D8800C12E00328D3178258E310130F0000030BF
:101D9800F100803107208E318E313B268E318D3116
:101DA80044258E314130F700EE30890BD92EF70BE0
:101DB800D92E00328D3178258E310130F000003077
:101DC800F100803107208E318D31B0258E31803180
:101DD800262821008E0123008E018D3152258E3157
:101DE8000130F0000030F100803107208E318D3154
:101DF80052258E318D3144258E314130F700EE3039
:101E0800890B042FF70B042F00328D3152258E31A8
:101E18000130F0000030F100803107208E318D3123
:101E280078258E318D3144258E314130F700EE30E2
:101E3800890B1C2FF70B1C2F00328D3152258E3148
:101E48000130F0000030F100803107208E318E31F2
:101E58000D268E318D3144258E314130F700EE301C
:101E6800890B342FF70B342F00328D3152258E31E8
:101E78000130F0000030F100803107208E318D31C3
:101E880094258E318D3144258E314130F700EE3066
:101E9800890B4C2FF70B4C2F00328D3152258E3188
:101EA8000130F0000030F100803107208E318D3193
:101EB800E8258E318D3144258E314130F700EE30E2
:101EC800890B642FF70B642F00328D3152258E3128
:101ED8000130F0000030F100803107208E318F3161
:101EE800752F8E313B268F318D3144258F3141300E
:101EF800F700EE30890B7E2FF70B7E2F00328D31E5
:101F080052258F310130F0000030F1008031072078
:101F18008F318D31B0258F318D3144258F3141304E
:101F2800F700EE30890B962FF70B962F00328D3184
:101F380052258F310130F0000030F1008031072048
:101F48008F318D3165258F318D3144258F31413069
:101F5800F700EE30890BAE2FF70BAE2F00328D3124
:101F680052258F310130F0000030F1008031072018
:101F78008F318D3148258F318D3144258F31413056
:101F8800F700EE30890BC62FF70BC62F00328D31C4
:101F980052258F310130F0000030F10080310720E8
:101FA8008F318D31CC258F318D3144258F314130A2
:101FB800F700EE30890BDE2FF70BDE2F00328D3164
:101FC80078258F310130F0000030F1008031072092
:101FD8008F318D3152258F318D3144258F314130EC
:101FE800F700EE30890BF62FF70BF62F00328D3104
:081FF80078258F318E31692E2E
:020000040001F9
:08000000FF3FFF3FFF3FFF3F00
:04000E00A409FF1D25
:00000001FF
