:10000000803102288731F52F10307C02031809282F
:100010000A28402802307D0203180F2810284028A3
:100020007D082000A0002008F6007C088E31E32621
:1000300080312000A30130287B08A1007A08A000AD
:1000400023082007840021080318210A85000008DE
:100050008E314626803101302000A0002008A30701
:100060007B08A1007A08A00023082007840021084B
:100070000318210A85001200031D3F2840281C2870
:1000800008002000AB002100261C472848285128E2
:1000900020002B08FC007C08F80024088F310A2778
:1000A00080312000A61B552856285B282608AA0068
:1000B0002508A9005D28A901AA01A701A8017128A6
:1000C0002030F0000030F10020002B08FC007C08FC
:1000D000F2008F31AE27803101302000A7070030B9
:1000E000A83D2808803AFC002A08803A7C02031DBB
:1000F0007B2829082702031C7E287F2860282100EE
:100100002618832884288D2820002B08FC007C08D2
:10011000F80024088F310A278031200024088E310E
:100120002D268031200029087007A4002A08713D7F
:10013000A50008002000A101F71F9F28A028A728DC
:10014000F609F709F60A0319F70AA101A10AF91F2E
:10015000AA28AB28B428F809F909F80A0319F90AFA
:100160000130FA007A08A106A201A30176087704FB
:100170000319BB28BC28EB28A001A00AC82801301D
:10018000F635F70D890BC0280130FA007A08A00770
:10019000F71FCB28CC28BF280130A235A30D890B2F
:1001A000CD2877087902031DD72876087802031C2A
:1001B000DA28DB28E0287608F8027708F93B2214D1
:1001C0000130F736F60C890BE1280130A002031D3F
:1001D000EA28EB28CC2821080319EF28F028F52875
:1001E000A209A309A20A0319A30A2308F7002208F7
:1001F000F60008002000200821042204230424041F
:100200002504260427040319062907295A29F10180
:10021000F10A1629A035A10DA20DA30DA40DA50D5F
:10022000A60DA70D0130F0007008F107A71F1929CE
:100230001A290A2927082F02031D382926082E0209
:10024000031D382925082D02031D382924082C02F6
:10025000031D382923082B02031D382922082A02EE
:10026000031D382921082902031D382920082802E6
:10027000031C3B293C294C292008A8022108A93B42
:100280002208AA3B2308AB3B2408AC3B2508AD3B26
:100290002608AE3B2708AF3BA736A60CA50CA40C3E
:1002A000A30CA20CA10CA00C0130F102031D5929D2
:1002B0005A291A292808A0002908A1002A08A20002
:1002C0002B08A3002C08A4002D08A5002E08A600CA
:1002D0002F08A700080003102000480D490DCA0090
:1002E0004A08FC007C08031D762977298029003004
:1002F000C9000030C8000030C7000030C600DF2948
:100300004608CA004708CB004808CC004908CD0081
:100310001F30CD36CC0CCB0CCA0C890B89294A086E
:10032000CE004E08FB00C817FF30C605FF30C705DA
:10033000FF30C8050030C9059630FC02FC1FA1291A
:10034000A229BA297C08803A973E0318A829A9292E
:10035000AA2977290130C936C80CC70CC60C890BED
:10036000AB290130CA004A08FC07031DB829B92986
:10037000AA29CF2920307C02031CBF29C029CA2901
:1003800077290130C635C70DC80DC90D890BC229A3
:100390000130FC027C08031DCE29CF29C1297B082E
:1003A0000319D329D429DF29C609C709C809C909EE
:1003B000C60A0319C70A0319C80A0319C90A08009B
:1003C00071308600003087000830F00000301E00D9
:1003D000F00BE72920002008210422042304240430
:1003E0002504260427040319F629F729532AF901BD
:1003F000F90A062AA035A10DA20DA30DA40DA50D85
:10040000A60DA70D0130F0007008F907A71F092AF3
:100410000A2AFA29F135F20DF30DF40DF50DF60D5A
:10042000F70DF80D27082F02031D302A26082E028B
:10043000031D302A25082D02031D302A24082C0212
:10044000031D302A23082B02031D302A22082A020A
:10045000031D302A21082902031D302A2008280202
:10046000031C332A342A452A2008A8022108A93B64
:100470002208AA3B2308AB3B2408AC3B2508AD3B34
:100480002608AE3B2708AF3B7114A736A60CA50C77
:10049000A40CA30CA20CA10CA00C0130F902031DAA
:1004A000522A532A0A2A7108A0007208A100730870
:1004B000A2007408A3007508A4007608A5007708B8
:1004C000A6007808A70008002000AC002C0803193B
:1004D0006A2A6B2A7F2AA71F6E2A6F2A7F2A24097D
:1004E000AE002509AF002609B0002709B100AE0A09
:1004F0000319AF0A0319B00A0319B10A872A27089A
:10050000B1002608B0002508AF002408AE00270877
:10051000260425042404031D8E2A8F2A982A0030DD
:10052000A7000030A6000030A5000030A400102B6A
:100530009630A8002808AD00A82A0130A800280895
:10054000AD070130B136B00CAF0CAE0C890BA22A4E
:10055000FE303105031DAD2AAE2A9D2AC22A013084
:10056000A8002808AD070130AE070030AF3D0030CD
:10057000B03D0030B13D0130B136B00CAF0CAE0C27
:10058000890BBC2AFF303105031DC72AC82AAF2AB0
:10059000D22A0130AD020130AE35AF0DB00DB10D34
:1005A000890BCC2AB01BD52AD62ADC2A02302D0290
:1005B0000318DB2ADC2AC92A2D18DF2AE02AE82AB8
:1005C000FF30AE05FF30AF057F30B005FF30B1051D
:1005D0000310AD0C2D08A800A901AA01AB01183029
:1005E000A835A90DAA0DAB0D890BF02A2808AE0479
:1005F0002908AF042A08B0042B08B1042C080319F9
:10060000022B032B082BA71F062B072B082BB11738
:100610003108A7003008A6002F08A5002E08A40066
:1006200008002000D600470886008701403FC90027
:10063000413FCA00490884004A0885001200253A53
:10064000031D232B242BB02B470886008701013084
:10065000810741310318810A2100A201A301A601EB
:10066000A701FF30A400FF30A50020004708860046
:100670008701403FC900413FCA00490884004A0839
:1006800085001200753A031D462B472B7B2B47082C
:10069000860087010130810741310318810A48082B
:1006A0008600870101088400850102308107003F30
:1006B000CE00013FCF00D001D101D201D301D4013E
:1006C000D5014E08B0004F08B1005008B2005108E3
:1006D000B3005208B4005308B5005408B6005508DA
:1006E000B70056088331D423833120003108C80075
:1006F0003008C700D32B470886008701403FC90058
:10070000413FCA00490884004A0885001200253A82
:10071000031D8B2B8C2BA52B4708860087010130EE
:10072000810741310318810A2530F0000030F100C3
:100730005608C9004908F2008F31AE2783310130D5
:100740002000C7000030C800D32B4708860087016F
:100750000130810741310318810AC701C801D32B39
:10076000470886008701403FC900413FCA00490849
:1007700084004A0885000008CB00CC014B08F0003B
:100780004C08F1005608CD004D08F2008F31AE271D
:1007900083312000470886008701013081074131FD
:1007A0000318810A9F2B08002000B8002100A51B18
:1007B000DA2BDB2BDF2BFD30A605FF30A705250844
:1007C000803AFD0080307D02031DE82B01302402B9
:1007D0000318EB2BEC2BF22B01302000B90000307A
:1007E000BA00FA2B210025082000BA0021002408B5
:1007F0002000B900210023082000BC0021002208AD
:100800002000BB003008BD003108BE003208BF0028
:100810003308C0003408C1003508C2003608C300E0
:100820003708C4001F30C5000030C6002100C801D1
:10083000792CFF302000C507FF30C63D0A30A000EC
:10084000A101A201A301A401A501A601A7013D08E0
:10085000A8003E08A9003F08AA004008AB004108D4
:10086000AC004208AD004308AE004408AF00803140
:10087000FA20833120002008303EFD004508A93EC3
:10088000860087017D088100FF30B907FF30BA3D3F
:10089000FF30BB07FF30BC3D0A30A000A101A20120
:1008A000A301A401A501A601A7013D08A8003E08D7
:1008B000A9003F08AA004008AB004108AC0042086C
:1008C000AD004308AE004408AF008131E021833120
:1008D00020002008BD002108BE002208BF00230818
:1008E000C0002408C1002508C2002608C30027084C
:1008F000C40020004508460403197F2C802CAC2C32
:100900003D083E043F0440044104420443044404BF
:10091000031D8B2C8C2C192C3A08803AFD0080305A
:100920007D02031D952C013039020318982C992C57
:10093000192C20003C08803AFD0080307D02031D08
:10094000A32C01303B02031CA62CA72CAC2C2100AD
:10095000A618AB2CAC2C192C20004508A93EFD0094
:100960007D08A4003C08A6003B08A500380880319B
:100970004120833120002508B1002408B000080080
:100980008E31052684318E318226843120009501F6
:100990002100E101E2010C30FA009030FB00FC0183
:1009A000FD018031042084310030FA009030FB00DA
:1009B000FC01FD01FD0A8031042084310230210058
:1009C000CA004530C900A930890BE42CC90BE42CBE
:1009D000CA0BE42C00323C30F2000030F30020005F
:1009E00015082100C900CA014908F0004A08F100B1
:1009F0008E31A12684317108F9007008F800183092
:100A0000F6000030F70080319A208431760820000B
:100A1000A4007708A500890D893B8909A600A700D5
:100A2000013082316422843120002708C900260861
:100A3000C8002508C7002408C60081316B21843115
:100A4000200047082100E000200046082100DF00C8
:100A500061082000A400210062082000A500A60172
:100A6000A701003082316422843120002708B900B8
:100A70002608B8002508B7002408B600150821008C
:100A8000C900CA014908F8004A08F9001830F60000
:100A90000030F70080319A20843176082000A400CD
:100AA0007708A500890D893B8909A600A7000130B8
:100AB00082316422843120002708B5002608B40062
:100AC0002508B3002408B2008531BD2584312000FB
:100AD0003508C9003408C8003308C7003208C6000A
:100AE00081316B218431200047082100E200200081
:100AF00046082100E10017302000DF009030E000C0
:100B0000210062082000E200210061082000E100CD
:100B1000CB308E31C0268431CB30FA000030FB0060
:100B20000A302100C9004908FC00FD018031042081
:100B3000843117302000DF009030E0002100600891
:100B40002000E20021005F082000E100D5308E3156
:100B5000C0268431D530FA000030FB000B30210074
:100B6000C9004908FC00FD01FD0A803104208431E0
:100B700020009501DE2C80310228200035088039C4
:100B8000BA003A08C2003535BA003A08C400B41FAA
:100B9000CA2DCB2DCC2D441444080319D02DD12DB2
:100BA000E12D440A031DD52DD62DDE2D0030B500D4
:100BB0000030B4000030B3000030B200B417B5010B
:100BC000E92D0030B5000030B4000030B300003033
:100BD000B20039088039BA003A08C3004308420617
:100BE0000319F32DF42DF52D42173935BA003A08C3
:100BF000C300B81FFC2DFD2DFE2D4314430803191F
:100C0000022E032E132E430A031D072E082E102E2C
:100C10000030B9000030B8000030B7000030B60036
:100C2000B817B9011B2E0030B9000030B8000030F1
:100C3000B7000030B600440843020318202E212ECE
:100C4000652E421F242E252E292E8030BA003A0808
:100C5000C2064408BA003A08C5004308BA003A0878
:100C6000C4004508BA003A08C3003208BA003A087E
:100C7000C5003608BA003A08B2004508BA003A087A
:100C8000B6003308BA003A08C5003708BA003A0877
:100C9000B3004508BA003A08B7003408BA003A0869
:100CA000C5003808BA003A08B4004508BA003A0846
:100CB000B8003508BA003A08C5003908BA003A0841
:100CC000B5004508BA003A08B900C5014308BA00A2
:100CD000BB013B08BD0044083A02BC00031CBD0335
:100CE0003D08803ABE0080303E02031D792E1A3046
:100CF0003C02031C7C2E7D2EB52E200035083404CA
:100D000033043204031D852E872E0130882E0030D7
:100D1000BA003A08C5000030B5000030B400003019
:100D2000B3000030B2004308BA003A08C400BC2E39
:100D3000451C9B2E9C2EA22E45360138BA003A083F
:100D4000C500A42E0310C50C321CA72EA82EA92E58
:100D5000C5170130BA00B537B40CB30CB20CBA0BDE
:100D6000AB2E0130BA003A08C40720004308440201
:100D7000031CBB2EBC2E982E421BBF2EC02EF82E5D
:100D80004408031DC42EC52ECE2E0030B500003001
:100D9000B4000030B3000030B200F42F3608B207C0
:100DA0003708B33D3808B43D3908B53D351CD92E58
:100DB000DA2E842F451CDD2EDE2EE42E453601383A
:100DC000BA003A08C500E62E0310C50C321CE92E05
:100DD000EA2EEB2EC5170130BA00B537B40CB30CB0
:100DE000B20CBA0BED2E0130BA003A08C407842FBA
:100DF0003508803ABA003908803A3A02031D0A2FB2
:100E000038083402031D0A2F37083302031D0A2F46
:100E10003608320203180D2F0E2F462FFF30BA006E
:100E2000FF30BB00FF30BC00FF30BD00320836028F
:100E3000BE003308373BBF003408383BC0003508DC
:100E4000393BC1003E08BA073F08BB3D4008BC3DE6
:100E50004108BD3D3D08B5003C08B4003B08B30067
:100E60003A08B2008030BA003A08C206C509C50A7D
:100E70004508031D3C2F3D2F4E2F0130B207003097
:100E8000B33D0030B43D0030B53D4E2F3608B202C0
:100E90003708B33B3808B43B3908B53B3508340450
:100EA00033043204031D552F562F802F4508031D90
:100EB0005A2F5B2F802F0030B5000030B400003077
:100EC000B3000030B200F42F0130B235B30DB40DD1
:100ED000B50D890B652FC51F6E2F6F2F702F321424
:100EE000451C732F742F772F0314C50D792F031012
:100EF000C50D440803197D2F7E2F802F0130C402B9
:100F0000B41F832F842F642FC301C51F882F892FFF
:100F1000972F45087F3903198E2F8F2F922FC301EA
:100F2000C30A972F321C952F962F972F8F2F430888
:100F300003199B2F9C2FC92F0130B2070030B33DFE
:100F40000030B43D0030B53D351CA72FA82FC92F68
:100F50003208BA003308BB003408BC003508BD00B5
:100F60000130BE00BD37BC0CBB0CBA0CBE0BB22F9F
:100F70003D08B5003C08B4003B08B3003A08B20095
:100F8000440A0319C42FC52FC92F0130BA003A08EB
:100F9000C407440A0319CD2FCE2FD32F4408031DB5
:100FA000D22FD32FE12F0030B5000030B400003035
:100FB000B3000030B2004408031DDF2FE02FE12F03
:100FC000C201441CE42FE52FE72FB417EB2F7F302D
:100FD000BA003A08B4054436BA003A08B500C21F50
:100FE000F22FF32FF42FB5170800A0308400003043
:100FF000850029308D31E425873120008431C02CD3
:101BB20008001630210097000800583021009900D3
:101BC200220096010800640080010131890BE52D95
:101BD200003421001508C0393F38950020009501D6
:101BE2002100A8010B11080020009901970196011C
:101BF200111017082100E400200016082100E3005C
:101C020001302000980008008E3115268E318D316A
:101C1200DE258E318D31DA258E318D31F5258E31ED
:101C22008D31EA258E31080022008C018D018E0152
:101C32003F3021008C008D01F8308E00C830230027
:101C42008E008D0113308C0024008D018C01210047
:101C5200951722009D010800F4007408F200720832
:101C6200F300372E0130F2007208F4077408860080
:101C720087010108031D3E2E3F2E332E7308740286
:101C8200F000F101F01BF1030800F500FA30003218
:101C9200890B482EF001F00A75088F3163278E31C7
:101CA2007508F3000330F335FF3E031D542E7335E0
:101CB200F4007408F500F001F00A75088F3163270B
:101CC2008E310800F500FA300032890B652EF001E2
:101CD20075088F3163278E317508F3000330F335B1
:101CE200FF3E031D702E7335F4007408F500533067
:101CF200890B792E0000F00175088F3163278E3130
:101D0200080022008E018D010530F600DE30890BBD
:101D1200882EF60B882E32308E3163268E31283093
:101D22008E3163268E310C308E3163268E31013036
:101D32008E3163268E3106308E3163268E31080055
:101D4200F401F501701CA62EA72EAB2E7208F40723
:101D52007308F53D0130F235F30D890BAC2E0130DD
:101D6200F136F00C890BB12E70087104031DBA2EE6
:101D7200BB2EA32E7508F1007408F00008002000A5
:101D8200E5006130E3006308E4006508E3006308EE
:101D9200E600E801E901EE01EF016008D8005F0802
:101DA200D7006430E3006308D90066308F313227F0
:101DB2008E31200068086507E3006308860087010A
:101DC20081010800F900023076020318E92EEA2E9A
:101DD200092F10307902031CEF2EF02EF12E092F5D
:101DE20076030319F52EF62EFC2E80307904F700C7
:101DF2000030F800012FC0307904F7000030F800FD
:101E020077088E3163268E31FA300032890B062F25
:101E120008002000A300A101A201222F2008F9003E
:101E2200FA017908F0007A08F1007808FB007B08D3
:101E3200F2008F31AE278F3101302000A107003030
:101E4200A23D21082307F9007908860087010108CD
:101E5200FA007A08A0002008031D302F312F0F2F1F
:101E620008002000DC005808DE005708DD002100D1
:101E7200A001A101502F5D30DA005A08C7005908AD
:101E8200DB005B08C8005C08833111238F3120001E
:101E920047082100A007200048082100A13D20009A
:101EA2005D0884005E0885001200031D592F5A2F19
:101EB2003C2F210021082000D8002100200820000A
:101EC200D7000800F2007208F039F1007108F20040
:101ED20022000E080F398E000D128D120D138D1374
:101EE2007208F1000730F136890B742F711C7A2FBA
:101EF2007B2F7D2F8D177E2F8D137208F1000630F8
:101F0200F136890B812F711C872F882F8A2F0D178D
:101F12008B2F0D137208F1000530F136890B8E2FCD
:101F2200711C942F952F972F8D16982F8D12720852
:101F3200F1000430F136890B9B2F711CA12FA22FC7
:101F4200A42F0D16A52F0D12700C031C0E100318D2
:101F52000E148E100E150E11080072080319B22FFE
:101F6200B32FB82F7208031DB72FB82FBD2F7008DB
:101F72008D31D9258F31FF2F7208083E86008701E7
:101F8200160001040319C62FC72FE52F7208083E59
:101F920086008701403FF300413FF4007208023E91
:101FA20086008701403FF500413FF6007608803AFF
:101FB200F7007408803A7702031DE12F7308750257
:101FC2000318E42FE52FFF2F7008F3007208860034
:101FD20087017208023E8400850100080107F400AF
:101FE200740886008701730881007208023E860029
:101FF20087010130810741310318810A08005334F7
:1020020050344534453444342034523450344D3401
:102012003A34203400344E342E344F342034523487
:102022004534563453343A3420340034253475342C
:02203200003478
:020000040001F9
:08000000FF3FFF3FFF3FFF3F00
:04000E00E409FF3FC3
:00000001FF
