:08000000803102288731ED2F49
:10000E00F4007408F2007208F30011280130F200B7
:10001E007208F40774088600013087000108031D7A
:10002E0019281A280D2873087402F000F101F01B2C
:10003E00F1030800003020003A05C20000303B05F5
:10004E00C30080303C05C4007F303D05C500450827
:10005E00440443044204031D352836283E2800304C
:10006E00BD000030BC000030BB000030BA000030D4
:10007E003E05C20000303F05C30080304005C4007D
:10008E007F304105C5004508440443044204031D66
:10009E00512852285A280030C1000030C0000030CC
:1000AE00BF000030BE00BD1F5D285E2876280030E0
:1000BE00C2000030C3000030C4008030C5003A08D2
:1000CE00C2023B08C33B3C08C43B3D08C53B450848
:1000DE00BD004408BC004308BB004208BA00C11F63
:1000EE0079287A2892280030C2000030C3000030F0
:1000FE00C4008030C5003E08C2023F08C33B400822
:10010E00C43B4108C53B4508C1004408C000430834
:10011E00BF004208BE008030BD068030C1064108D7
:10012E003D02031DA42840083C02031DA4283F08DD
:10013E003B02031DA4283E083A020318A728A8284C
:10014E00AA280310AB28031408002100C000BC012C
:10015E00BD012308D2002208D1002108D0002008BA
:10016E00CF0052082000BD00210051082000BC0025
:10017E00210050082000BB0021004F082000BA00CB
:10018E000030C1000030C0000030BF000030BE00A3
:10019E008031212080310318D528D628EF28013050
:1001AE002100BC000030BD005208F3005108F200DF
:1001BE005008F1004F08F00091318F218031730803
:1001CE002100D2007208D1007108D0007008CF0053
:1001DE002100D501D60122002B082100C2002200E9
:1001EE002A082100C1003C083D04031DFF280029F8
:1001FE00052922002E1D04290529232921003C084A
:10020E003D04031D0B290C2911292B30A8000030A9
:10021E00A90015292D30A8000030A9002808A50036
:10022E0025082300A00001302100D5070030D63D5F
:10023E00FF30C107FF30C23D21005208F3005108C4
:10024E00F2005008F1004F08F0009531652580311D
:10025E0070037104031D34293529792921002408DE
:10026E00BF3EA500FF3003180030A6000030260266
:10027E001A3003192502031845294629502915302D
:10028E00F0009830F1005508A03E92313C228031AA
:10029E0059291D30F0009830F1005508A03E9231DA
:1002AE003C228031FD302100C107FF30C23DA0301D
:1002BE00A50025082000A400210042082000A60069
:1002CE00210041082000A500210040089431392466
:1002DE008031200025082100A100200024082100E3
:1002EE00A000EC2F21005208F3005108F200500834
:1002FE00F1004F08F00095316525803170087104CA
:10030E00031D8A298B29CF2921002408BF3EA50071
:10031E00FF3003180030A600003026021A300319F1
:10032E00250203189B299C29A6291930F000983024
:10033E00F1005508A03E92313C228031AF29213088
:10034E00F0009830F1005508A03E92313C228031E9
:10035E00FD302100C107FF30C23DA030A5002508A9
:10036E002000A400210042082000A6002100410820
:10037E002000A5002100400894313924803120004E
:10038E0025082100A100200024082100A000EC2F48
:10039E003F302100DA008030D9000030D800003024
:1003AE00D700D301D4015208F3005108F2005008CF
:1003BE00F1004F08F0000030F7000030F60000307A
:1003CE00F5000030F4009331402380310318F029FA
:1003DE00F129B52A222A41302000A3002030A200A4
:1003EE000030A1000030A00021005A082000A70014
:1003FE00210059082000A600210058082000A50061
:10040E00210057082000A4008D31A925803120003D
:10041E0023082100DA00200022082100D900200044
:10042E0021082100D800200020082100D70001302B
:10043E00D3070030D43D210052082000BD0021001A
:10044E0051082000BC00210050082000BB002100F4
:10045E004F082000BA004130A3002030A200003027
:10046E00A1000030A00021005A082000A7002100A2
:10047E0059082000A600210058082000A5002100E0
:10048E0057082000A4008D31A925803120002308B3
:10049E00C1002208C0002108BF002008BE00803124
:1004AE002120803103185C2A5D2AF2298E2A4130E0
:1004BE002000BD002030BC000030BB000030BA0070
:1004CE0021005A082000C100210059082000C00058
:1004DE00210058082000BF00210057082000BE0050
:1004EE0088310920803120003D082100DA002000EB
:1004FE003C082100D90020003B082100D800200034
:10050E003A082100D700FF30D307FF30D43D210039
:10051E0052082000BD00210051082000BC0021001F
:10052E0050082000BB0021004F082000BA00210017
:10053E005A082000C100210059082000C0002100E7
:10054E0058082000BF00210057082000BE0080314F
:10055E0021208031031CB42AB52A5E2A21002408EA
:10056E00A500A6012508F6002608F7009131BC214A
:10057E00803176082100A7002708C4004408A50092
:10058E002508C30067304406031DCE2ACF2AF82A59
:10059E0022002C082D04031DD52AD62ADA2A013072
:1005AE00AC000030AD002D08803A2100A50080304F
:1005BE002502031DE52A013022002C020318E82A29
:1005CE00E92AEF2A06302100BE000030BF00FE2AC5
:1005DE0022002D082100BF0022002C082100BE00A1
:1005EE00FE2A2200AD1BFC2AFD2AE92AEF2A6730DB
:1005FE004406031D032B042B312B5408803AA5000F
:10060E007F302502031D0D2BFC305302031C102BD3
:10061E00112B2C2B21003E08FF3EA500FF303F3D45
:10062E00A6002608803AA7005408803A2702031D28
:10063E00222B53082502031C252B262B2C2B663030
:10064E002100A5002508C300312B65302100A5002F
:10065E002508C3003F08B5003E08B40067304406C5
:10066E00031D3A2B3B2B452B66304306031D402BB7
:10067E00412B492BD41F442B452B492B0130B4075A
:10068E000030B53D66304306031D4E2B4F2B672BB6
:10069E00D41F522B532B5D2B3F30DA008030D90004
:1006AE000030D8000030D700D301D40167304406A3
:1006BE000319622B632B672B5308B4075408B53DFF
:1006CE00CD01CE015208C8005108C7005008C6001F
:1006DE004F08C5005A08B9005908B8005808B700A5
:1006EE005708B600472C21005A082000BD002100F3
:1006FE0059082000BC00210058082000BB00210032
:10070E0057082000BA00210048082000C10021002F
:10071E0047082000C000210046082000BF0021002D
:10072E0045082000BE0088310920803120003D0898
:10073E00D7003C08D6003B08D5003A08D4009731C4
:10074E0015278031200057082100CC0020005608C4
:10075E002100CB00200055082100CA0020005408BB
:10076E002100C9004C08F3004B08F2004A08F100C2
:10077E004908F0009431F124803171082100BB004A
:10078E007008BA004C082000A70021004B0820007A
:10079E00A60021004A082000A500210049082000DB
:1007AE00A40021005A082000A300210059082000AF
:1007BE00A200210058082000A100210057082000A7
:1007CE00A0008D31A925803120002308EB002208DE
:1007DE00EA002108E9002008E8002100480820006E
:1007EE00EF00210047082000EE00210046082000FF
:1007FE00ED00210045082000EC0092311C228031D2
:10080E0020006B082100C80020006A082100C700E4
:10081E00200069082100C600200068082100C500DC
:10082E0041302000BD002030BC000030BB00003045
:10083E00BA0021005A082000C100210059082000EA
:10084E00C000210058082000BF00210057082000DA
:10085E00BE0088310920803120003D082100DA00D9
:10086E0020003C082100D90020003B082100D800C0
:10087E0020003A082100D7000130CD070030CE3DD0
:10088E004E08803AA5003508803A2502031D512CEA
:10089E0034084D02031C542C552C7A2B403020006A
:1008AE00A300A030A2000030A1000030A000210063
:1008BE005A082000A700210059082000A600210098
:1008CE0058082000A500210057082000A4008D31F3
:1008DE00A9258031200023082100CC002000220809
:1008EE002100CB00200021082100CA002000200892
:1008FE002100C90048082000BD0021004708200043
:10090E00BC00210046082000BB0021004508200045
:10091E00BA0021004C082000C10021004B08200025
:10092E00C00021004A082000BF0021004908200015
:10093E00BE008031212080310318A62CA72CB12CAB
:10094E0000302100CC000030CB000030CA00003057
:10095E00C900D62C21004808F3004708F2004608CB
:10096E00F1004508F0004C08F7004B08F6004A0865
:10097E00F5004908F400933140238031031CC82C44
:10098E00C92CD62C21003A18CD2CCE2CD62C0030CA
:10099E00CC000030CB000030CA000030C90021006E
:1009AE004C082000D70021004B082000D600210063
:1009BE004A082000D500210049082000D40021005B
:1009CE0052082000DB00210051082000DA0021002F
:1009DE0050082000D90021004F082000D8008B318C
:1009EE0071238031200057082100C80020005608CE
:1009FE002100C700200055082100C6002000540821
:100A0E002100C50048082000BD0021004708200035
:100A1E00BC00210046082000BB0021004508200034
:100A2E00BA004130A3002030A2000030A1000030F7
:100A3E00A000210039082000A7002100380820005E
:100A4E00A600210037082000A5002100360820004E
:100A5E00A4008D31A925803120002308C100220871
:100A6E00C0002108BF002008BE0080312120803147
:100A7E00031C422D432D7E2D01302100D307003063
:100A8E00D43D41302000A3002030A2000030A10050
:100A9E000030A000210039082000A70021003808EE
:100AAE002000A600210037082000A50021003608EE
:100ABE002000A4008D31A9258031200023082100BB
:100ACE00B900200022082100B800200021082100D2
:100ADE00B700200020082100B60066304306031D33
:100AEE00792D7A2D7E2D0130B4070030B53D2100D1
:100AFE003908DA003808D9003708D8003608D70088
:100B0E006530430603198C2D8D2D922D5408B3009C
:100B1E005308B200942DB201B301B001B101AE0180
:100B2E00AF01CD01CE01D52E21005A082000BD0007
:100B3E00210059082000BC00210058082000BB00ED
:100B4E00210057082000BA00210048082000C100EB
:100B5E00210047082000C000210046082000BF00E9
:100B6E00210045082000BE00883109208031200078
:100B7E003D08D7003C08D6003B08D5003A08D40003
:100B8E00973115278031200057082100CC00200016
:100B9E0056082100CB00200055082100CA00200075
:100BAE0054082100C9004C08F3004B08F2004A0813
:100BBE00F1004908F0009431F124803171082100D0
:100BCE00BB007008BA0022002E1AEE2DEF2D052E56
:100BDE0021003A083B04031DF52DF62D052E673036
:100BEE004406031DFB2DFC2D052EB31FFF2D002EDD
:100BFE00052E0130AE070030AF3D532E21003008D8
:100C0E003104031D0B2E0C2E3B2EB31F0F2E102E58
:100C1E003B2E2E30A5005508A03E860001308700E1
:100C2E00250881000130D5070030D63DFF30C107C1
:100C3E00FF30C23D0130B0000030B1003B2E3030ED
:100C4E00A5005508A03E86000130870025088100CA
:100C5E000130D5070030D63DFF30C107FF30C23D11
:100C6E00FF30AE07FF30AF3D2E082F04031D402E80
:100C7E00412E262E3A08303EA5005508A03E86008D
:100C8E0001308700250881000130D5070030D63DA0
:100C9E00FF30C107FF30C23D4C082000A7002100E5
:100CAE004B082000A60021004A082000A5002100C4
:100CBE0049082000A40021005A082000A3002100AA
:100CCE0059082000A200210058082000A100210090
:100CDE0057082000A0008D31A9258031200023085F
:100CEE00EB002208EA002108E9002008E8002100B4
:100CFE0048082000EF00210047082000EE002100E8
:100D0E0046082000ED00210045082000EC0092313D
:100D1E001C22803120006B082100C80020006A08C8
:100D2E002100C700200069082100C60020006808C5
:100D3E002100C50041302000BD002030BC00003035
:100D4E00BB000030BA0021005A082000C10021006B
:100D5E0059082000C000210058082000BF002100C3
:100D6E0057082000BE0088310920803120003D0840
:100D7E002100DA0020003C082100D90020003B08A9
:100D8E002100D80020003A082100D700FF30B2071A
:100D9E00FF30B33D0130CD070030CE3D4E08803AD6
:100DAE00A5003508803A2502031DDF2E34084D02BA
:100DBE000318E22EE32EF12E21005608803AA500EC
:100DCE0080302502031DED2E4B305502031CF02EF4
:100DDE00F12E9B2D210030083104031DF72EF82E25
:100DEE000B2F22002E1EFC2EFD2E0B2F2E3021003F
:100DFE00A5005508A03E8600013087002508810019
:100E0E000130D5070030D63D21005508A03E8600A2
:100E1E0001308700810165304306031D172F182FFF
:100E2E00D12F4F30CD000030CE004D08A03E8600B1
:100E3E00013087008101BC01BD01D41F272F282F4F
:100E4E00312F0130BC000030BD00D309D409D30AC4
:100E5E000319D40A0230BE000030BF00692FFF30E4
:100E6E002100CD07FF30CE3D0A30F0000030F100FA
:100E7E005408F3005308F20093318E23803170082A
:100E8E00303E2100A5004D08A03E860001308700AF
:100E9E00250881000A30F0000030F1005408F300FC
:100EAE005308F20094319224803171082100D4004D
:100EBE007008D300FF30BE07FF30BF3DFF30C107C3
:100ECE00FF30C23D53085404031D6E2F6F2F362F73
:100EDE003F08803AA50080302502031D782F01308F
:100EEE003E0203187B2F7C2F362FFF302100CD07BB
:100EFE00FF30CE3D3C083D04031D862F872F8C2FDF
:100F0E002B30AA000030AB00902F2D30AA000030FD
:100F1E00AB002A08A5004D08A03E860001308700D0
:100F2E0025088100FF30C107FF30C23DFF30CD07DD
:100F3E00FF30CE3D2408BF3EA500FF300318003021
:100F4E00A600003026021A3003192502031CB02F0A
:100F5E00B12FB62F6530AC000030AD00BA2F453042
:100F6E00AC000030AD002C08A5004D08A03E860058
:100F7E000130870025088100FF30C107FF30C23DD8
:100F8E004D08A03EF0000130F1005508A03E923110
:100F9E003C228031A0302100A50025082000A400AD
:100FAE00210042082000A600210041082000A500D3
:100FBE002100400894313924803120002508210079
:100FCE00A100200024082100A00008002030840089
:100FDE00013085001130883103208731A030840024
:100FEE000130850050308831032087312000953143
:020FFE00E42DE0
:10100600640080010131890B042800342000410866
:101016008039C2004208CB004135C2004208D200E6
:10102600C01F1628172818285214520803191C28FE
:101036001D282D28520A031D212822282A2800307F
:10104600C1000030C0000030BF000030BE00C01735
:10105600C10135280030C1000030C0000030BF009B
:101066000030BE003D088039C2004208CB063D353F
:10107600C2004208D300BC1F41284228432853140B
:1010860053080319472848285828530A031D4C2893
:101096004D2855280030BD000030BC000030BB0094
:1010A6000030BA00BC17BD0160280030BD0000301A
:1010B600BC000030BB000030BA003D083C043B04D5
:1010C6003A04031D6728682881280030C1000030D3
:1010D600C0000030BF000030BE008030C0047F304A
:1010E600C1044B08C2004208C1044108BD004008C3
:1010F600BC003F08BB003E08BA00BC295208031DCD
:10110600852886288F280030BD000030BC000030BE
:10111600BB000030BA00BC295208C200C301430814
:10112600C50053084202C400031CC50344087F3EA1
:10113600CC000030453DCD004108CA004008C9003A
:101146003F08C8003E08C7000030C1000030C0009C
:101156000030BF000030BE000030D1000030D000AB
:101166000030CF000030CE00D301F7285308031912
:10117600BD28BE28D8280130C735C80DC90DCA0DEF
:10118600890BBF280130BE35BF0DC00DC10D890BBF
:10119600C628D11FCF28D028D1283E140130CE35FD
:1011A600CF0DD00DD10D890BD2283D084A02031D63
:1011B600E6283C084902031DE6283B084802031DB1
:1011C600E6283A084702031CE928EA28F3285117BB
:1011D6003A08C7023B08C83B3C08C93B3D08CA3B26
:1011E6000130C2004208D3071A305302031CFC2800
:1011F600FD28B9284A084904480447040319042964
:1012060005291E294E141E290130BE35BF0DC00DFD
:10121600C10D890B0829D11F1129122913293E1442
:101226000130CE35CF0DD00DD10D890B1429FF30ED
:10123600CC07FF30CD3DC01F212922290729D30124
:10124600D11F262927294329FF304E05C200FF302A
:101256004F05C300FF305005C4007F305105C5005F
:10126600450844044304420403193A293B293E290C
:10127600D301D30A43293E1C4129422943293B294C
:10128600530803194729482970290130BE07003041
:10129600BF3D0030C03D0030C13D411C532954299B
:1012A60070293E08C2003F08C3004008C400410838
:1012B600C5000130C600C537C40CC30CC20CC60B32
:1012C6005E294508C1004408C0004308BF00420823
:1012D600BE000130CC070030CD3D4D08803AC2003B
:1012E60080304202031D7929FF304C02031C7C2901
:1012F6007D298A29FF302000CC000030CD00003047
:10130600C1000030C0000030BF000030BE00200029
:101316004D08803AC20080304202031D94290130F4
:101326004C02031897299829A4292000CC01CD0145
:101336000030C1000030C0000030BF000030BE00E9
:10134600CB0120004C08C2004208D200521CAC2936
:10135600AD29AF29C017B3297F30C2004208C005A6
:101366005236C2004208C1004B08C2004208C104FE
:10137600782808002100EA005B0886000130870013
:10138600403FDD00413FDE005D0884005E088500C9
:101396001200253A031DD029D1294B2B5B08860064
:1013A600013087000130810741310318810A22008C
:1013B600AA01AB01AE01AF01FF30AC00FF30AD00BA
:1013C60021005B08860001308700403FDD00413F79
:1013D600DE005D0884005E0885000008DF00E0018D
:1013E6005F08F6006008F7009131BC218931760864
:1013F6002100E1006108E60066080319032A042AB1
:10140600452A5B08860001308700403FDD00413FEA
:10141600DE0001305D0784005E0803185E0A850061
:101426000008DF00E0015F08F6006008F700913170
:10143600BC21893176082100E1006108E7006708D0
:101446000319262A272A452A5B08860001308700C9
:10145600403FDD00413FDE0002305D0784005E084C
:1014660003185E0A85000008DF00E0015F08F60049
:101476006008F7009131BC21893176082100E1002E
:101486006108E80066306606031D4A2A4B2A8C2A44
:101496005B08860001308700403FDD00413FDE00EB
:1014A6005D0884005E0885000008DF005F08E9002B
:1014B6005B0886000130870001308107413103183F
:1014C600810A5C088600013087000108840001302B
:1014D600850004308107003FE200013FE300023F40
:1014E600E400033FE5006508A3006408A200630862
:1014F600A1006208A0006908DD005D08A4006A0872
:101506008031AC20893121002108DC002008DB0075
:10151600702B2530F0009830F1000230F2000030D8
:10152600F300E6309331E123893170087104031D1D
:101536009D2A9E2A122B21005B0886000130870017
:10154600403FDD00413FDE0001305D0784005E085C
:1015560003185E0A85000008DF005F08E9005B08E3
:10156600860001308700403FDD00413FDE005D0818
:1015760084005E0885000008BF3EDF00FF300318C8
:101586000030E000003060021A3003195F020318D1
:10159600CD2ACE2AE12A5C088600013087000108A0
:1015A60084000130850004308107003FE200013FDE
:1015B600E300023FE400033FE500F32A5C088600EF
:1015C600013087000108840001308500043081075E
:1015D600003FE200013FE300023FE400033FE50075
:1015E6005B0886000130870002308107413103180D
:1015F600810A6508A3006408A2006308A1006208C6
:10160600A0006908DD005D08A4006A088031AC20EE
:10161600893121002108DC002008DB00702B210025
:101626005B08860001308700403FDD00413FDE0059
:101636005D0884005E0885001200253A031D242BF0
:10164600252B3F2B5B088600013087000130810780
:1016560041310318810A2530F2000030F3006A0890
:10166600DD005D08F4009231FF228931013021004E
:10167600DB000030DC00702B5B0886000130870041
:101686000130810741310318810ADB01DC01702B2F
:101696005B08860001308700403FDD00413FDE00E9
:1016A6005D0884005E0885000008DF00E0015F0831
:1016B600F2006008F3006A08E1006108F400923164
:1016C600FF22893121005B08860001308700013046
:1016D600810741310318810A392B08002000570879
:1016E6008039DC005C08E4005735DC005C08E60065
:1016F600D61F7E2B7F2B802B661466080319842B3E
:10170600852B952B660A031D892B8A2B922B00307D
:10171600D7000030D6000030D5000030D400D617F0
:10172600D7019D2B0030D7000030D6000030D50001
:101736000030D4005B088039DC005C08E5006508F1
:1017460064060319A72BA82BA92B64175B35DC00AD
:101756005C08E500DA1FB02BB12BB22B65146508C7
:101766000319B62BB72BC72B650A031DBB2BBC2B46
:10177600C42B0030DB000030DA000030D900003026
:10178600D800DA17DB01CF2B0030DB000030DA009F
:101796000030D9000030D800660865020318D42B43
:1017A600D52B192C641FD82BD92BDD2B8030DC00D0
:1017B6005C08E4066608DC005C08E7006508DC00F7
:1017C6005C08E6006708DC005C08E5005408DC00FD
:1017D6005C08E7005808DC005C08D4006708DC00F9
:1017E6005C08D8005508DC005C08E7005908DC00F6
:1017F6005C08D5006708DC005C08D9005608DC00E8
:101806005C08E7005A08DC005C08D6006708DC00C4
:101816005C08DA005708DC005C08E7005B08DC00BF
:101826005C08D7006708DC005C08DB00E701650898
:10183600DC00DD015D08DF0066085C02DE00031CDB
:10184600DF035F08803AE00080306002031D2D2C24
:101856001A305E02031C302C312C692C20005708EC
:10186600560455045404031D392C3B2C01303C2CE2
:101876000030DC005C08E7000030D7000030D600FE
:101886000030D5000030D4006508DC005C08E600B6
:10189600702C671C4F2C502C562C67360138DC00F8
:1018A6005C08E700582C0310E70C541C5B2C5C2CDE
:1018B6005D2CE7170130DC00D737D60CD50CD40CDD
:1018C600DC0B5F2C0130DC005C08E60720006508B5
:1018D6006602031C6F2C702C4C2C641B732C742C0E
:1018E600AC2C6608031D782C792C822C0030D7008E
:1018F6000030D6000030D5000030D400A82D58089E
:10190600D4075908D53D5A08D63D5B08D73D571C24
:101916008D2C8E2C382D671C912C922C982C67368A
:101926000138DC005C08E7009A2C0310E70C541C15
:101936009D2C9E2C9F2CE7170130DC00D737D60C48
:10194600D50CD40CDC0BA12C0130DC005C08E607BE
:10195600382D5708803ADC005B08803A5C02031D8C
:10196600BE2C5A085602031DBE2C59085502031DEB
:10197600BE2C580854020318C12CC22CFA2CFF3076
:10198600DC00FF30DD00FF30DE00FF30DF005408F2
:101996005802E0005508593BE10056085A3BE20060
:1019A60057085B3BE3006008DC076108DD3D620821
:1019B600DE3D6308DF3D5F08D7005E08D6005D08A0
:1019C600D5005C08D4008030DC005C08E406E7093A
:1019D600E70A6708031DF02CF12C022D0130D4070D
:1019E6000030D53D0030D63D0030D73D022D580899
:1019F600D4025908D53B5A08D63B5B08D73B570853
:101A0600560455045404031D092D0A2D342D670868
:101A1600031D0E2D0F2D342D0030D7000030D600BB
:101A26000030D5000030D400A82D0130D435D50DB6
:101A3600D60DD70D890B192DE71F222D232D242D09
:101A46005414671C272D282D2B2D0314E70D2D2D3F
:101A56000310E70D66080319312D322D342D0130A0
:101A6600E602D61F372D382D182DE501E71F3C2D30
:101A76003D2D4B2D67087F390319422D432D462DE9
:101A8600E501E50A4B2D541C492D4A2D4B2D432DBE
:101A9600650803194F2D502D7D2D0130D4070030D8
:101AA600D53D0030D63D0030D73D571C5B2D5C2D13
:101AB6007D2D5408DC005508DD005608DE00570869
:101AC600DF000130E000DF37DE0CDD0CDC0CE00B64
:101AD600662D5F08D7005E08D6005D08D5005C0855
:101AE600D400660A0319782D792D7D2D0130DC008E
:101AF6005C08E607660A0319812D822D872D660884
:101B0600031D862D872D952D0030D7000030D60079
:101B16000030D5000030D4006608031D932D942DA7
:101B2600952DE401661C982D992D9B2DD6179F2D7A
:101B36007F30DC005C08D6056636DC005C08D70022
:101B4600E41FA62DA72DA82DD717080020002308CF
:101B56008039A8002808AD002335A8002808B3005E
:101B6600A21FB62DB72DB82D331433080319BC2D7B
:101B7600BD2DCC2D330A031DC12DC22DCA2D00301B
:101B8600A3000030A2000030A1000030A000A21780
:101B9600D42D0030A3000030A2000030A100003098
:101BA600A00027088039A8002808AD062735A80018
:101BB6002808B200A61FE02DE12DE22D32143208CE
:101BC6000319E62DE72DF62D320A031DEB2DEC2D1C
:101BD600F42D0030A7000030A6000030A50000302C
:101BE600A400A617FE2D0030A7000030A600003086
:101BF600A5000030A40032080319022E032E082E79
:101C06003308031D072E082E112E0030A3000030C6
:101C1600A2000030A1000030A000FF2F2008A8007D
:101C26002808F000260892317F228D3171082000A5
:101C3600B9007008B8003808A800A901AA01AB01CC
:101C46002B08B1002A08B0002908AF002808AE000A
:101C56003908A800A901AA01AB012B08B7002A0878
:101C6600B6002908B5002808B4002108A8002808ED
:101C7600F000250892317F228D3171082000B900CD
:101C86007008B8003808A800A901AA01AB01280805
:101C9600AE072908AF3D2A08B03D2B08B13D3908EB
:101CA600A800A901AA01AB012808B4072908B53D77
:101CB6002A08B63D2B08B73D2208A8002808F000E0
:101CC600240892317F228D3171082000B9007008F6
:101CD600B8003808A800A901AA01AB012808AE0778
:101CE6002908AF3D2A08B03D2B08B13D3908A800A8
:101CF600A901AA01AB012808B4072908B53D2A089D
:101D0600B63D2B08B73D0830AE35AF0DB00DB10D61
:101D1600890B872E2108A8002808F0002408923194
:101D26007F228D3171082000B9007008B80038088C
:101D3600AE073908AF3D0030B03DB13D2008A800E0
:101D46002808F000250892317F228D317108200085
:101D5600B9007008B8003808AE073908AF3D003042
:101D6600B03DB13D0830AE35AF0DB00DB10D890BAC
:101D7600B62E2008A8002808F000240892317F22F9
:101D86008D3171082000B9007008B8003808AE0718
:101D96003908AF3D0030B03DB13D2108A800280804
:101DA600F000260892317F228D3171082000B9009B
:101DB6007008B8003808B4073908B53D0030B63D9C
:101DC600B73D2208A8002808F000250892317F2296
:101DD6008D3171082000B9007008B8003808B407C2
:101DE6003908B53D0030B63DB73D2208A8002808A1
:101DF600F000260892317F228D3171082000B9004B
:101E06007008B8003808A8003908A900AA01AB0173
:101E16000830A835A90DAA0DAB0D890B0C2F280883
:101E2600B4072908B53D2A08B63D2B08B73D2E084C
:101E3600A8002F08A9003008AA003108AB00183006
:101E4600AB36AA0CA90CA80C890B232F2808B407BB
:101E56002908B53D2A08B63D2B08B73D0830AE35F2
:101E6600AF0DB00DB10D890B322F33083207A80024
:101E7600A901A90D2808823EB800FF30293DB90006
:101E86005B2F0130B435B50DB60DB70D890B452F57
:101E9600B11F4E2F4F2F502F34140130AE35AF0DDA
:101EA600B00DB10D890B512FFF30B807FF30B93D8A
:101EB600B61F5E2F5F2F442FB201B11F632F642F11
:101EC600802FFF302E05A800FF302F05A900FF3018
:101ED6003005AA007F303105AB002B082A042904FF
:101EE60028040319772F782F7B2FB201B20A802F8F
:101EF600341C7E2F7F2F802F782F32080319842FD2
:101F0600852FAD2F0130B4070030B53D0030B63D0A
:101F16000030B73D371C902F912FAD2F3408A80005
:101F26003508A9003608AA003708AB000130AC0016
:101F3600AB37AA0CA90CA80CAC0B9B2F2B08B7002F
:101F46002A08B6002908B5002808B4000130B807E9
:101F56000030B93D3908803AA80080302802031DB8
:101F6600B62FFF303802031CB92FBA2FC42F7F308B
:101F76002000B7008030B6000030B5000030B40055
:101F8600F32F20003908803AA80080302802031D6C
:101F9600CE2F013038020318D12FD22FDD2F00307B
:101FA6002000B7000030B6000030B5000030B400A5
:101FB600AD01F32F20003808A8002808B300FF3031
:101FC600B405FF30B5057F30B6050030B705331CC4
:101FD600ED2FEE2FEF2FB6173336A8002808B700DF
:101FE6002D08A8002808B7043708A3003608A20061
:0A1FF6003508A1003408A00008001F
:1022C600163021009700080071082200C20070082D
:1022D600C100080071082200C6007008C500080089
:1022E60071082200C4007008C3000800583021009D
:1022F6009900220096010800F100710891318521AC
:1023060091310800F0002000111E8A298B298629A8
:10231600700823009A0008007308720471047004A0
:1023260003199629972999298030F30608009231D6
:10233600022291319131792191319131632191318B
:102346009131AA21913192315D229131080020000C
:102356009901E930970058309600111017082200AD
:10236600C800200016082200C7000130200098008F
:1023760008007608BF3EF800FF30773DF9000030D0
:1023860079021A30031978020318CA29CB29D229EF
:1023960020307604F60000307704F700D2290800D2
:1023A60036302200BA003A08BB0035082100EC009E
:1023B600220034082100EB003B302200BA003A0824
:1023C6002100ED0000309231CB22913108007008D7
:1023D600BF3EF200FF30713DF300003073021A3049
:1023E60003197202031CF829FA290130FB2900306F
:1023F600F400F5017408F0007508F10008002200E9
:102406008C018D018E013F3021008C0070308D00D3
:10241600FE308E00CD3023008E0010308D00173038
:102426008C0024008D018C012100951722009D014E
:10243600080080302000EB066F08D7006E08D60033
:102446006D08D5006C08D4006B08DB006A08DA005A
:102456006908D9006808D8008B31712392312000B1
:102466005708EB005608EA005508E9005408E8004A
:102476000800F7007108F5007008F4007708F2000C
:102486007208F6007608860001308700F60A75089D
:10249600F3007408F200F40A0319F50A72088400BE
:1024A600730885000008C03F8908031D5B2A5C2A63
:1024B600452A0800083023009F0090309D002430F4
:1024C6009E0019309B009C010030F0000030F100A6
:1024D60091316D2192310030F0000030F1009131E0
:1024E600732192310030F0000030F1009131672104
:1024F60092312200B0010800F800F401F5017008DD
:10250600F200F3017208F6007308F700781C8C2AB3
:102516008D2A912A7608F4077708F53D0130F635BD
:10252600F70D890B922A0310F80C7808031D9C2AD4
:102536009D2A892A7508F1007408F0000800200019
:10254600A300A101A201BA2A2008FB00FC017B0816
:10255600F2007C08F3007A08FD007D08F400923151
:10256600FF22923101302000A1070030A23D210850
:102576002307FB007B088600013087000108FC006A
:102586007C08A0002008031DC92ACA2AA72A080019
:102596002200B10021006C082200B30021006B0864
:1025A6002200B200A801A901EE2A32302100EE0075
:1025B6006E08DB006D08EF006F08DC0022003108B2
:1025C6008931BD21923121005B082200A807210034
:1025D6005C082200A93D32088400330885001200F9
:1025E600031DF62AF72AD82A29082100EC00220022
:1025F60028082100EB00080074080319032B042B9C
:10260600092B7408031D082B092B0E2B7208913118
:102616007F2192313F2B7408083E86008701160001
:1026260001040319172B182B362B7408083E860055
:102636008701403FF500413FF6007408023E8600E0
:102646008701403FF700413FF8007808803AF900DB
:102656007608803A7902031D322B75087702031833
:10266600352B362B3F2B7408023E8600870101303E
:10267600810741310318810A080000307005F8000F
:1026860000307105F90080307205FA007F3073055D
:10269600FB007B087A0479047804031D532B542B22
:1026A6005C2B0030F3000030F2000030F100003007
:1026B600F00000307405F80000307505F900803030
:1026C6007605FA007F307705FB007B087A047904EB
:1026D6007804031D6F2B702B782B0030F700003029
:1026E600F6000030F5000030F40077087306031D8D
:1026F600862B76087206031D862B75087106031D48
:10270600862B740870060319892B8A2B8C2B0310D1
:102716008D2B03140800F601F31F922B932B9A2B93
:10272600F209F309F20A0319F30AF601F60AF11F90
:102736009D2B9E2BA32BF009F109F00A0319F10A30
:10274600700871040319A82BA92BD22BF501F50AE1
:10275600B52B0130F035F10D890BAD2B0130F400AE
:102766007408F507F11FB82BB92BAC2B710873024F
:10277600031DBF2B70087202031CC22BC32BC72B71
:102786007008F2027108F33B0130F136F00C890B48
:10279600C82B0130F502031DD12BD22BB92B76089D
:1027A6000319D62BD72BDC2BF209F309F20A0319EE
:1027B600F30A7308F1007208F0000800F5007508C6
:1027C600F4007408F8007108F7007008F60001308C
:1027D600F2020030F33B720A031DF52B730A031D48
:1027E600F52BF62B052CF001F101382C0130F40005
:1027F6007408F8070130F6070030F73D0130F202A1
:102806000030F33B780886008701010803190C2C79
:102816000D2C2B2C760884007708850012000319EE
:10282600152C162C2B2C7208730403191B2C1C2C2C
:102836002B2C76088400770885000008F4007808B9
:10284600860087010108740603192A2C2B2CF92B04
:1028560078088600870176088400770885000008D6
:102866000102F000F101031CF10308002000AC0096
:1028760022002E1C3F2C402C492C20002C08A7009F
:102886002708FA0024089231A22294312000A61BC0
:102896004D2C4E2C532C2608AB002508AA00552C8F
:1028A600AA01AB01A801A901692C2030F200003071
:1028B600F30020002C08A7002708F4009231FF221D
:1028C600943101302000A8070030A93D2908803A3C
:1028D600A7002B08803A2702031D732C2A0828021A
:1028E600031C762C772C582C22002E187B2C7C2C43
:1028F600852C20002C08A7002708FA00240892310E
:10290600A22294312000240880310720943120002F
:102916002A087007A4002B08713DA5000800F601DF
:10292600F11F962C972C9E2CF009F109F00A031939
:10293600F10AF601F60AF31FA12CA22CAB2CF20920
:10294600F309F20A0319F30A0130F4007408F606D3
:10295600F701F801700871040319B22CB32CE22CAC
:10296600F501F50ABF2C0130F035F10D890BB72CB6
:102976000130F4007408F507F11FC22CC32CB62CE5
:102986000130F735F80D890BC42C71087302031D4D
:10299600CE2C70087202031CD12CD22CD72C7008B6
:1029A600F2027108F33B77140130F136F00C890B13
:1029B600D82C0130F502031DE12CE22CC32C76083D
:1029C6000319E62CE72CEC2CF709F809F70A03198A
:1029D600F80A7808F1007708F00008000310720D75
:1029E600730DF4007408FA007A08031DFB2CFC2C06
:1029F600052D0030F3000030F2000030F100003009
:102A0600F000642D7008F4007108F5007208F600F5
:102A16007308F7001F30F736F60CF50CF40C890B2B
:102A26000E2D7408F8007808F900F217FF30F0054B
:102A3600FF30F105FF30F2050030F3059630FA025B
:102A4600FA1F262D272D3F2D7A08803A973E031828
:102A56002D2D2E2D2F2DFC2C0130F336F20CF10CE2
:102A6600F00C890B302D0130F4007408FA07031DB1
:102A76003D2D3E2D2F2D542D20307A02031C442D42
:102A8600452D4F2DFC2C0130F035F10DF20DF30DD7
:102A9600890B472D0130FA027A08031D532D542D58
:102AA600462D79080319582D592D642DF009F10981
:102AB600F209F309F00A0319F10A0319F20A0319D4
:102AC600F30A0800220027082000A5002200260895
:102AD6002000A400220025082000A30022002408CC
:102AE6002000A2007308A5007208A4007108A300C4
:102AF6007008A2002208F4002308F5002408F60056
:102B06002508F7001730F736F60CF50CF40C890B90
:102B1600862DFF307405A00000307505A100200841
:102B26002104031D972D982DB92D2208F4002308A2
:102B3600F5002408F6002508F7000130F435F50DF8
:102B4600F60DF70D890BA12D77087604750474042C
:102B5600031DAE2DAF2DB42D0230F0000030F10074
:102B6600E32D0330F0000030F100E32D200A2104AC
:102B7600031DBE2DBF2DDF2D2208F4002308F5000E
:102B86002408F6002508F7000930F435F50DF60D92
:102B9600F70D890BC82D770876047504740403199C
:102BA600D52DD72D0130D82D0030F800F901780841
:102BB600F0007908F100E32D0430F0000030F10058
:102BC600080091319A21953122000E14003222001C
:102BD6000E10EE2D111020008E1CF22DF32DED2D72
:102BE600960197018E18F82DF92DF52DBF30D700D7
:102BF600C030D6000030D5000030D4004230BD00D1
:102C06006830BC000030BB000030BA004030A30082
:102C16008030A2000030A1000030A0001608F000AD
:102C26001708F100F201F30100309631692695315B
:102C360073082000A7007208A6007108A500700896
:102C4600A4008D31A925953120002308C100220852
:102C5600C0002108BF002008BE0088310920953138
:102C660020003D08DB003C08DA003B08D9003A08A2
:102C7600D8008B3171239531200057082200C000FF
:102C8600200056082200BF00200055082200BE0082
:102C9600200054082200BD000030B4009830B50072
:102CA6004008B9003F08B8003E08B7003D08B60026
:102CB6009131D3219531A3302200BC005530890BC8
:102CC600622EBC0B622EE72D80310228F8007808B0
:102CD60003196E2E6F2E832EF31F722E732E832EE4
:102CE6007009FA007109FB007209FC007309FD0006
:102CF600FA0A0319FB0A0319FC0A0319FD0A8B2EAB
:102D06007308FD007208FC007108FB007008FA00E9
:102D16007308720471047004031D922E932E9C2E68
:102D26000030F3000030F2000030F1000030F00017
:102D3600142F9630F4007408F900AC2E0130F4001C
:102D46007408F9070130FD36FC0CFB0CFA0C890BF4
:102D5600A62EFE307D05031DB12EB22EA12EC62E47
:102D66000130F4007408F9070130FA070030FB3D22
:102D76000030FC3D0030FD3D0130FD36FC0CFB0C07
:102D8600FA0C890BC02EFF307D05031DCB2ECC2EF1
:102D9600B32ED62E0130F9020130FA35FB0DFC0DAB
:102DA600FD0D890BD02EFC1BD92EDA2EE02E02301B
:102DB60079020318DF2EE02ECD2E7918E32EE42EAD
:102DC600EC2EFF30FA05FF30FB057F30FC05FF30A7
:102DD600FD050310F90C7908F400F501F601F70179
:102DE6001830F435F50DF60DF70D890BF42E740831
:102DF600FA047508FB047608FC047708FD047808D5
:102E06000319062F072F0C2FF31F0A2F0B2F0C2F3A
:102E1600FD177D08F3007C08F2007B08F1007A08B4
:102E2600F0000800220023082000E7002200220804
:102E36002000E600220021082000E50022002008EC
:102E46002000E4005708E7005608E6005508E500AC
:102E56005408E4006408D8006508D9006608DA005A
:102E66006708DB001730DB36DA0CD90CD80C890B77
:102E7600362FFF305805DC0000305905DD005C08B0
:102E8600813EE200FF305D3DE3006308803AD800F2
:102E960080305802031D512F17306202031C542F35
:102EA600552F562FFF2F2000E31B5A2F5B2FB82FCD
:102EB600FF30D800FF30D9007F30DA000030DB0069
:102EC600620A692FDB37DA0CD90CD80C890B652F0F
:102ED6005B08E1005A08E0005908DF005808DE00E8
:102EE60064085E05D80065085F05D90066086005B8
:102EF600DA0067086105DB005B085A0459045804C8
:102F0600031D862F872F882F552F6408D800650844
:102F1600D9006608DA006708DB001F30DB36DA0CFA
:102F2600D90CD80C890B912F5B085A045904580404
:102F360003199E2F9F2FA72F5E08E4075F08E53D24
:102F46006008E63D6108E73D5E09D8005F09D900E3
:102F56006009DA006109DB005808E4055908E5054F
:102F66005A08E6055B08E705F72F6408D8006508E8
:102F7600D9006608DA006708DB001F30DB36DA0C9A
:102F8600D90CD80C890BC12F5B085A045904580474
:102F9600031DCE2FCF2FD82F0030E7000030E600DC
:102FA6000030E5000030E400F72F6408D80065081B
:102FB600D9006608DA006708DB000130D835D90D7C
:102FC600DA0DDB0D890BE12F5B085A04590458040E
:102FD6000319EE2FEF2FF72FBF30E7008030E60002
:102FE6000030E5000030E4006708D7006608D60028
:102FF6006508D5006408D400080044346934733485
:10300600743461346E3463346534203469346E3418
:10301600203463346D343A34203425346634203415
:103026000D34003449344E34463400344E34413481
:103036004E34003469346E34663400346E34613490
:0A3046006E3400346C34663400343C
:020000040001F9
:08000000FF3FFF3FFF3FFF3F00
:04000E00E409FF3FC3
:00000001FF
