:08000000803102288731FD2F39
:10000C0022000E120730F0000030F1008031102079
:10001C0080310800F501F6011A2822008E118E1588
:10002C000130F5070030F63D7008FF3EF200FF305E
:10003C00713DF3007308803AF4007608803A74023C
:10004C00031D2A287508720203182D282E28132840
:10005C00080022008E100230F0000030F1008F31C9
:10006C00E127803122008E140230F0000030F100C4
:10007C008F31E127803122008E100230F0000030E9
:10008C00F1008F31E127803122008E140130F00015
:10009C000030F1008F31E1278031080022000E1270
:1000AC000230F0000030F10080311020803122004D
:1000BC000E160230F0000030F1008031102080313B
:1000CC0022000E120230F0000030F10080311020BE
:1000DC00803122000E160130F0000030F10080312A
:1000EC0010208031080022008E100130F00000300A
:1000FC00F1008F31E127803122008E140130F000A5
:10010C000030F1008F31E127803122008E10023057
:10011C00F0000030F1008F31E127803122008E1485
:10012C000130F0000030F1008F31E12780312200E6
:10013C008E100230F0000030F1008F31E127803159
:10014C00080022008E100230F0000030F1008F31D8
:10015C00E127803122008E140130F0000030F100D4
:10016C008F31E127803122008E100230F0000030F8
:10017C00F1008F31E127803122008E140130F00024
:10018C000030F1008F31E127803122008E100130D8
:10019C00F0000030F1008F31E1278031080022009F
:1001AC000E120130F0000030F1008031102080314F
:1001BC0022000E160130F0000030F10080311020CA
:1001CC00803122000E120230F0000030F10080313C
:1001DC001020803122000E160130F0000030F100AA
:1001EC0080311020803122000E120230F0000030DD
:1001FC00F100803110208031080022000E120230F4
:10020C00F0000030F10080311020813122000E16F8
:10021C000130F0000030F1008031102081312200DB
:10022C000E120230F0000030F100803110208131CC
:10023C0022000E160130F0000030F1008031102049
:10024C00813122000E120130F0000030F1008031BB
:10025C0010208131080021008E0123008E01220024
:10026C000E108E100E118E110E128E128F317127F0
:10027C0081310130F0000030F100803110208131EB
:10028C008031542081318E31A326813182315C2220
:10029C0081318F31712781310130F0000030F10054
:1002AC008031102081318F318D2781318E31A32601
:1002BC00813182315C2281318F3171278131013062
:1002CC00F0000030F1008031102081318031D520D8
:1002DC0081318E31A326813182315C2281318F3183
:1002EC00712781310130F0000030F1008031102095
:1002FC0081318F31712781318E31A3268131823149
:10030C005C2281318F31712781310130F000003056
:10031C00F1008031102081318E31DB2681318E311C
:10032C00A326813182315C2281318E31DB268131F1
:10033C000130F0000030F1008031102081318F311C
:10034C00C52781318E31A326813182315C228131E6
:10035C008E31DB2681310130F0000030F10080312C
:10036C00102081318031062081318E31A3268131DC
:10037C0082315C2281318E31DB2681310130F000FB
:10038C000030F1008031102081318E31EE26813128
:10039C008E31A326813182315C2281318E31DB2674
:1003AC0081310130F0000030F100803110208131BA
:1003BC008F31A92781318E31A326813182315C2284
:1003CC0081318E31DB2681310130F0000030F100BB
:1003DC008031102081318131032181318E31A3266E
:1003EC00813182315C2281318E31DB2681310130C9
:1003FC00F0000030F1008031102081318031542028
:10040C0081318E31A326813182315C2281318E3152
:10041C00DB2681310130F0000030F10080311020FA
:10042C0081318F318D2781318E31A32681318231FB
:10043C005C2281318E31DB2681310130F0000030BD
:10044C00F1008031102081318031D52081318E3105
:10045C00A326813182315C2281318E31DB268131C0
:10046C000130F0000030F1008031102081318F31EB
:10047C00712781318E31A326813182315C22813109
:10048C008E31DB2681310130F0000030F1008031FB
:10049C00102081318E31DB2681318E31A3268131C2
:1004AC0082315C2281313C29803102288031A720A5
:1004BC0082310130F0000030F1008F31E1278231C0
:1004CC008F31552782318E31A72682314130F7008A
:1004DC00EE30890B6F2AF70B6F2A00328031A72080
:1004EC0082310130F0000030F1008F31E127823190
:1004FC008E31AB2682318E31A72682314130F70006
:10050C00EE30890B872AF70B872A00328031A7201F
:10051C0082310130F0000030F1008F31E12782315F
:10052C008E31C82682318E31A72682314130F700B8
:10053C00EE30890B9F2AF70B9F2A00328031A720BF
:10054C0082310130F0000030F1008F31E12782312F
:10055C008F31392782318E31A72682314130F70015
:10056C00EE30890BB72AF70BB72A00328031A7205F
:10057C0082310130F0000030F1008F31E1278231FF
:10058C008031A72082318E31A72682314130F7008D
:10059C00EE30890BCF2AF70BCF2A00328031A720FF
:1005AC0082310130F0000030F1008F31E1278231CF
:1005BC0080312F2082318E31A72682314130F700D5
:1005CC00EE30890BE72AF70BE72A00328031A7209F
:1005DC0082310130F0000030F1008F31E12782319F
:1005EC008F311D2782318E31A72682314130F700A1
:1005FC00EE30890BFF2AF70BFF2A00328031A7203F
:10060C0082310130F0000030F1008F31E12782316E
:10061C008031792082318E31A72682314130F7002A
:10062C00EE30890B172BF70B172B00328031A720DC
:10063C0082310130F0000030F1008F31E12782313E
:10064C008F31012782318E31A72682314130F7005C
:10065C00EE30890B2F2BF70B2F2B00328031A7207C
:10066C0082310130F0000030F1008F31E12782310E
:10067C008E31B52682318E31A72682314130F7007A
:10068C00EE30890B472BF70B472B003280312F2094
:10069C0082310130F0000030F1008F31E1278231DE
:1006AC008F31552782318E31A72682314130F700A8
:1006BC00EE30890B5F2BF70B5F2B003280312F2034
:1006CC0082310130F0000030F1008F31E1278231AE
:1006DC008E31AB2682318E31A72682314130F70024
:1006EC00EE30890B772BF70B772B003280312F20D4
:1006FC0082310130F0000030F1008F31E12782317E
:10070C008E31C82682318E31A72682314130F700D6
:10071C00EE30890B8F2BF70B8F2B003280312F2073
:10072C0082310130F0000030F1008F31E12782314D
:10073C008F31392782318E31A72682314130F70033
:10074C00EE30890BA72BF70BA72B003280312F2013
:10075C0082310130F0000030F1008F31E12782311D
:10076C008031A72082318E31A72682314130F700AB
:10077C00EE30890BBF2BF70BBF2B003280312F20B3
:10078C0082310130F0000030F1008F31E1278231ED
:10079C0080312F2082318E31A72682314130F700F3
:1007AC00EE30890BD72BF70BD72B003280312F2053
:1007BC0082310130F0000030F1008F31E1278231BD
:1007CC008F311D2782318E31A72682314130F700BF
:1007DC00EE30890BEF2BF70BEF2B003280312F20F3
:1007EC0082310130F0000030F1008F31E12782318D
:1007FC008031792082318E31A72682314130F70049
:10080C00EE30890B072CF70B072C003280312F2090
:10081C0082310130F0000030F1008F31E12782315C
:10082C008F31012782318E31A72682314130F7007A
:10083C00EE30890B1F2CF70B1F2C003280312F2030
:10084C0082310130F0000030F1008F31E12782312C
:10085C008E31B52682318E31A72682314130F70098
:10086C00EE30890B372CF70B372C00328F311D27CC
:10087C0082310130F0000030F1008F31E1278231FC
:10088C008F31552782318E31A72682314130F700C6
:10089C00EE30890B4F2CF70B4F2C00328F311D276C
:1008AC0082310130F0000030F1008F31E1278231CC
:1008BC008E31AB2682318E31A72682314130F70042
:1008CC00EE30890B672CF70B672C00328F311D270C
:1008DC0082310130F0000030F1008F31E12782319C
:1008EC008E31C82682318E31A72682314130F700F5
:1008FC00EE30890B7F2CF70B7F2C00328F311D27AC
:10090C0082310130F0000030F1008F31E12782316B
:10091C008F31392782318E31A72682314130F70051
:10092C00EE30890B972CF70B972C00328F311D274B
:10093C0082310130F0000030F1008F31E12782313B
:10094C008031A72082318E31A72682314130F700C9
:10095C00EE30890BAF2CF70BAF2C00328F311D27EB
:10096C0082310130F0000030F1008F31E12782310B
:10097C0080312F2082318E31A72682314130F70011
:10098C00EE30890BC72CF70BC72C00328F311D278B
:10099C0082310130F0000030F1008F31E1278231DB
:1009AC008F311D2782318E31A72682314130F700DD
:1009BC00EE30890BDF2CF70BDF2C00328F311D272B
:1009CC0082310130F0000030F1008F31E1278231AB
:1009DC008031792082318E31A72682314130F70067
:1009EC00EE30890BF72CF70BF72C00328F311D27CB
:1009FC0082310130F0000030F1008F31E12782317B
:100A0C008F31012782318E31A72682314130F70098
:100A1C00EE30890B0F2DF70B0F2D00328F311D2768
:100A2C0082310130F0000030F1008F31E12782314A
:100A3C008E31B52682318E31A72682314130F700B6
:100A4C00EE30890B272DF70B272D003280317920C2
:100A5C0082310130F0000030F1008F31E12782311A
:100A6C008F31552782318E31A72682314130F700E4
:100A7C00EE30890B3F2DF70B3F2D00328031792062
:100A8C0082310130F0000030F1008F31E1278231EA
:100A9C008E31AB2682318E31A72682314130F70060
:100AAC00EE30890B572DF70B572D00328031792002
:100ABC0082310130F0000030F1008F31E1278231BA
:100ACC008E31C82682318E31A72682314130F70013
:100ADC00EE30890B6F2DF70B6F2D003280317920A2
:100AEC0082310130F0000030F1008F31E12782318A
:100AFC008F31392782318E31A72682314130F70070
:100B0C00EE30890B872DF70B872D00328031792041
:100B1C0082310130F0000030F1008F31E127823159
:100B2C008031A72082318E31A72682314130F700E7
:100B3C00EE30890B9F2DF70B9F2D003280317920E1
:100B4C0082310130F0000030F1008F31E127823129
:100B5C0080312F2082318E31A72682314130F7002F
:100B6C00EE30890BB72DF70BB72D00328031792081
:100B7C0082310130F0000030F1008F31E1278231F9
:100B8C008F311D2782318E31A72682314130F700FB
:100B9C00EE30890BCF2DF70BCF2D00328031792021
:100BAC0082310130F0000030F1008F31E1278231C9
:100BBC008031792082318E31A72682314130F70085
:100BCC00EE30890BE72DF70BE72D003280317920C1
:100BDC0082310130F0000030F1008F31E127823199
:100BEC008F31012782318E31A72682314130F700B7
:100BFC00EE30890BFF2DF70BFF2D00328031792061
:100C0C0082310130F0000030F1008F31E127823168
:100C1C008E31B52682318E31A72682314130F700D4
:100C2C00EE30890B172EF70B172E00328F31012760
:100C3C0082310130F0000030F1008F31E127823138
:100C4C008F31552782318E31A72682314130F70002
:100C5C00EE30890B2F2EF70B2F2E00328F31012700
:100C6C0082310130F0000030F1008F31E127823108
:100C7C008E31AB2682318E31A72682314130F7007E
:100C8C00EE30890B472EF70B472E00328F310127A0
:100C9C0082310130F0000030F1008F31E1278231D8
:100CAC008E31C82682318E31A72682314130F70031
:100CBC00EE30890B5F2EF70B5F2E00328F31012740
:100CCC0082310130F0000030F1008F31E1278231A8
:100CDC008F31392782318E31A72682314130F7008E
:100CEC00EE30890B772EF70B772E00328F310127E0
:100CFC0082310130F0000030F1008F31E127823178
:100D0C008031A72082318E31A72682314130F70005
:100D1C00EE30890B8F2EF70B8F2E00328F3101277F
:100D2C0082310130F0000030F1008F31E127823147
:100D3C0080312F2082318E31A72682314130F7004D
:100D4C00EE30890BA72EF70BA72E00328F3101271F
:100D5C0082310130F0000030F1008F31E127823117
:100D6C008F311D2782318E31A72682314130F70019
:100D7C00EE30890BBF2EF70BBF2E00328F310127BF
:100D8C0082310130F0000030F1008F31E1278231E7
:100D9C008031792082318E31A72682314130F700A3
:100DAC00EE30890BD72EF70BD72E00328F3101275F
:100DBC0082310130F0000030F1008F31E1278231B7
:100DCC008F31012782318E31A72682314130F700D5
:100DDC00EE30890BEF2EF70BEF2E00328F310127FF
:100DEC0082310130F0000030F1008F31E127823187
:100DFC008E31B52682318E31A72682314130F700F3
:100E0C00EE30890B072FF70B072F00328E31B526EA
:100E1C0082310130F0000030F1008F31E127823156
:100E2C008F31552782318E31A72682314130F70020
:100E3C00EE30890B1F2FF70B1F2F00328E31B5268A
:100E4C0082310130F0000030F1008F31E127823126
:100E5C008E31AB2682318E31A72682314130F7009C
:100E6C00EE30890B372FF70B372F00328E31B5262A
:100E7C0082310130F0000030F1008F31E1278231F6
:100E8C008E31C82682318E31A72682314130F7004F
:100E9C00EE30890B4F2FF70B4F2F00328E31B526CA
:100EAC0082310130F0000030F1008F31E1278231C6
:100EBC008F31392782318E31A72682314130F700AC
:100ECC00EE30890B672FF70B672F00328E31B5266A
:100EDC0082310130F0000030F1008F31E127823196
:100EEC008031A72082318E31A72682314130F70024
:100EFC00EE30890B7F2FF70B7F2F00328E31B5260A
:100F0C0082310130F0000030F1008F31E127823165
:100F1C0080312F2082318E31A72682314130F7006B
:100F2C00EE30890B972FF70B972F00328E31B526A9
:100F3C0082310130F0000030F1008F31E127823135
:100F4C008F311D2782318E31A72682314130F70037
:100F5C00EE30890BAF2FF70BAF2F00328E31B52649
:100F6C0082310130F0000030F1008F31E127823105
:100F7C008031792082318E31A72682314130F700C1
:100F8C00EE30890BC72FF70BC72F00328E31B526E9
:100F9C0082310130F0000030F1008F31E1278231D5
:100FAC008F31012782318E31A72682314130F700F3
:100FBC00EE30890BDF2FF70BDF2F00328E31B52689
:100FCC0082310130F0000030F1008F31E1278231A5
:100FDC008E31B52682318E31A72682314130F70011
:100FEC00EE30890BF72FF70BF72F0032080020009B
:040FFC0081313129E5
:101D460022008E168E12080022000E150E110800B3
:101D560022008E100730F0000030F1008F31E127AD
:101D66008E31080022008E140130F0000030F100A0
:101D76008F31E1278E3122008E100630F0000030C0
:101D8600F1008F31E1278E31080022008E140430D5
:101D9600F0000030F1008F31E1278E3122008E10E5
:101DA6000330F0000030F1008F31E1278E3108005A
:101DB60022000E160130F0000030F10080311020B4
:101DC6008E3122000E120630F0000030F100803114
:101DD60010208E31080022000E160430F00000306C
:101DE600F100803110208E3122000E120330F000F7
:101DF6000030F100803110208E31080022008E1450
:101E06000430F0000030F1008F31E1278F312200DD
:101E16008E100230F0000030F1008F31E1278F3153
:101E260022008E140130F0000030F1008F31E127DE
:101E36008F31080022008E100130F0000030F100D2
:101E46008F31E1278F3122008E140230F0000030EE
:101E5600F1008F31E1278F3122008E100430F0001F
:101E66000030F1008F31E1278F31080022008E10FB
:101E76000530F0000030F1008F31E1278F3122006C
:101E86008E140130F0000030F1008F31E1278F31E0
:101E960022008E100130F0000030F1008F31E12772
:101EA6008F31080022008E100230F0000030F10061
:101EB6008F31E1278F3122008E140130F00000307F
:101EC600F1008F31E1278F3122008E100430F000AF
:101ED6000030F1008F31E1278F31080022000E1605
:101EE6000430F0000030F100803110208F312200E4
:101EF6000E120230F0000030F100803110208F31D8
:101F060022000E160130F0000030F1008031102062
:101F16008F31080022000E120130F0000030F1006F
:101F2600803110208F3122000E160230F000003072
:101F3600F100803110208F3122000E120430F000A3
:101F46000030F100803110208F31080022000E127F
:101F56000530F0000030F100803110208F31220072
:101F66000E160130F0000030F100803110208F3164
:101F760022000E120130F0000030F10080311020F6
:101F86008F31080022000E120230F0000030F100FE
:101F9600803110208F3122000E160130F000003003
:101FA600F100803110208F3122000E120430F00033
:101FB6000030F100803110208F310800F501F60164
:101FC600EB2F22000E100E140130F5070030F63DFF
:101FD6007008FF3EF200FF30713DF3007308803A4F
:101FE600F4007608803A7402031DFB2F750872020E
:0A1FF6000318FE2FFF2FE42F080050
:020000040001F9
:08000000FF3FFF3FFF3FFF3F00
:04000E00A409FF1D25
:00000001FF
