:10000000803102288731E32F0800F0002000111E04
:100010000A280B280628700823009A000800F4011B
:10002000F501F6013B287108740784007208753DDC
:1000300085001200031D1D281E282028F601F60A3F
:10004000760303192428252837288E316526803128
:10005000003A03192C282D282528710874078400DC
:100060007208753D8500000880310520803101301F
:10007000F4070030F53D760803193F28402813287F
:1000800008002000AB006E1C462847284F282B088C
:10009000FC007C08F80024088F31552780312000AF
:1000A000A61B5328542859282608AA002508A90069
:1000B0005B28A901AA01A701A8016F282030F00040
:1000C0000030F10020002B08FC007C08F2008F318A
:1000D000AE27803101302000A7070030A83D280856
:1000E000803AFC002A08803A7C02031D79282908FE
:1000F0002702031C7C287D285E2820006E1881289A
:1001000082288A282B08FC007C08F80024088F31FC
:1001100055278031200024088E31C22680312000EE
:1001200029087007A4002A08713DA50008002000D6
:10013000DD004E0886008701403FD000413FD100DE
:1001400050088400510885001200253A031DA92893
:10015000AA284E294E0886008701013081074131C7
:100160000318810A2100A201A3012000EE01EF0182
:10017000FF30EC00FF30ED004E0886008701403F65
:10018000D000413FD1005008840051088500120082
:10019000643A0319CC28CD28DE284E088600870152
:1001A000403FD000413FD1005008840051088500F5
:1001B0001200693A031DDD28DE2819294E08860041
:1001C00087010130810741310318810A4F088600F9
:1001D000870101088400850102308107003FD000BB
:1001E000013FD1005008D5005108D600890D893B48
:1001F0008909D700D800D900DA00DB00DC005508F7
:10020000B0005608B1005708B2005808B3005908AA
:10021000B4005A08B5005B08B6005C08B7005D087A
:1002200083315D23803120003108CF003008CE00BB
:1002300071294E0886008701403FD000413FD10020
:1002400050088400510885001200253A031D292911
:100250002A2943294E088600870101308107413150
:100260000318810A2530F0000030F1005D08D0004D
:100270005008F2008F31AE27803101302000CE00CF
:100280000030CF0071294E088600870101308107B8
:1002900041310318810ACE01CF0171294E08860031
:1002A0008701403FD000413FD100500884005108F1
:1002B00085000008D200D3015208F0005308F10075
:1002C0005D08D4005408F2008F31AE278031200041
:1002D0004E08860087010130810741310318810AE9
:1002E0003D290800F2012830860000308700473F92
:1002F000F000F01F7C297D299E292000A809A9096A
:10030000AA09AB09AC09AD09AE09AF09A80A031DDA
:100310009C29A90A031D9C29AA0A031D9C29AB0A32
:10032000031D9C29AC0A031D9C29AD0A031D9C29B1
:10033000AE0A031D9C29AF0AF201F20A20308600A2
:1003400000308700473FF000F01FA729A829C729E0
:100350002000A009A109A209A309A409A509A609C9
:10036000A709A00A031DC729A10A031DC729A20ABC
:10037000031DC729A30A031DC729A40A031DC729F2
:10038000A50A031DC729A60A031DC729A70A20001D
:10039000200821042204230424042504260427041D
:1003A0000319D329D429272AF101F10AE329A03519
:1003B000A10DA20DA30DA40DA50DA60DA70D013035
:1003C000F0007008F107A71FE629E729D7292708B9
:1003D0002F02031D052A26082E02031D052A2508C3
:1003E0002D02031D052A24082C02031D052A2308BB
:1003F0002B02031D052A22082A02031D052A2108B3
:100400002902031D052A20082802031C082A092A9C
:10041000192A2008A8022108A93B2208AA3B230880
:10042000AB3B2408AC3B2508AD3B2608AE3B270878
:10043000AF3BA736A60CA50CA40CA30CA20CA10CD8
:10044000A00C0130F102031D262A272AE729720891
:1004500003192B2A2C2A4A2AA809A909AA09AB0997
:10046000AC09AD09AE09AF09A80A031D4A2AA90AB9
:10047000031D4A2AAA0A031D4A2AAB0A031D4A2A57
:10048000AC0A031D4A2AAD0A031D4A2AAE0A031DFF
:100490004A2AAF0A20002808A0002908A1002A083B
:1004A000A2002B08A3002C08A4002D08A5002E08EC
:1004B000A6002F08A7000800F201203086000030B7
:1004C0008700473FF000F01F662A672A882A20002D
:1004D000A009A109A209A309A409A509A609A709B8
:1004E000A00A031D862AA10A031D862AA20A031D4B
:1004F000862AA30A031D862AA40A031D862AA50AA2
:10050000031D862AA60A031D862AA70AF201F20AFB
:100510002830860000308700473FF000F01F912A06
:10052000922AB52A2000A809A909AA09AB09AC0991
:10053000AD09AE09AF09A80A031DB12AA90A031D16
:10054000B12AAA0A031DB12AAB0A031DB12AAC0ABB
:10055000031DB12AAD0A031DB12AAE0A031DB12A3B
:10056000AF0A0130F0007008F206733086000030E8
:1005700087000830F00000301E00F00BBC2A20007D
:10058000200821042204230424042504260427042B
:100590000319CB2ACC2A282BF101F10ADB2AA0353A
:1005A000A10DA20DA30DA40DA50DA60DA70D013043
:1005B000F0007008F107A71FDE2ADF2ACF2AF335E3
:1005C000F40DF50DF60DF70DF80DF90DFA0D2708E0
:1005D0002F02031D052B26082E02031D052B2508BF
:1005E0002D02031D052B24082C02031D052B2308B7
:1005F0002B02031D052B22082A02031D052B2108AF
:100600002902031D052B20082802031C082B092B97
:100610001A2B2008A8022108A93B2208AA3B23087C
:10062000AB3B2408AC3B2508AD3B2608AE3B270876
:10063000AF3B7314A736A60CA50CA40CA30CA20CFC
:10064000A10CA00C0130F102031D272B282BDF2A5F
:10065000720803192C2B2D2B4B2BF309F409F509E8
:10066000F609F709F809F909FA09F30A031D4B2BF2
:10067000F40A031D4B2BF50A031D4B2BF60A031D31
:100680004B2BF70A031D4B2BF80A031D4B2BF90AC2
:10069000031D4B2BFA0A73082000A0007408A10068
:1006A0007508A2007608A3007708A4007808A500C2
:1006B0007908A6007A08A70008002000BD003008CD
:1006C000C4003108C5003208C6003308C70034082A
:1006D000C8003508C9003608CA003708CB004430C6
:1006E000860000308700473FB800B81B782B7A2B74
:1006F00001307B2B00302000B900BA013908C2005C
:100700003A08C300420843040319872B882BA62B01
:10071000C409C509C609C709C809C909CA09CB0955
:10072000C40A031DA62BC50A031DA62BC60A031D5A
:10073000A62BC70A031DA62BC80A031DA62BC90A90
:10074000031DA62BCA0A031DA62BCB0A2000ED1BF6
:10075000AA2BAB2BAF2BFD30EE05FF30EF056D085C
:10076000803AB80080303802031DB82B01306C028B
:100770000318BB2BBC2BC22B01302000BE00003065
:10078000BF00C72B20006D08BF006C08BE00210011
:1007900023082000C100210022082000C0004208D8
:1007A0004304031DD42BD52BD92B6E1DD82BD92B4D
:1007B000DD2BFF30C007FF30C13D1F30CC000030C3
:1007C000CD002100C4014C2CFF302000CC07FF30AD
:1007D000CD3D0A30A000A101A201A301A401A50101
:1007E000A601A7014408A8004508A9004608AA00D8
:1007F0004708AB004808AC004908AD004A08AE0005
:100800004B08AF0081317221833120002108F400B0
:100810002008F3008E31F52683317308303E200026
:10082000B8004C08A53E8600870138088100FF30DB
:10083000BE07FF30BF3DFF30C007FF30C13D0A306B
:10084000A000A101A201A301A401A501A601A70185
:100850004408A8004508A9004608AA004708AB00BC
:100860004808AC004908AD004A08AE004B08AF008C
:1008700082315C22833120002008C4002108C50099
:100880002208C6002308C7002408C8002508C9009C
:100890002608CA002708CB0020004D08803AB8007F
:1008A00080303802031D562C01304C02031C592C99
:1008B0005A2C872C20004408450446044704480469
:1008C00049044A044B04031D662C672CE42B3F08A3
:1008D000803AB80080303802031D702C01303E028F
:1008E0000318732C742CE42B20004108803AB800C4
:1008F00080303802031D7E2C01304002031C812C05
:10090000822C872C2000EE18862C872CE42B2000CC
:1009100042084304031D8D2C8E2C922C6E1D912CAD
:10092000922CAD2CFF30CC07FF30CD3D4208430464
:10093000031D9B2C9C2CA12C2B30BB000030BC0039
:10094000A52C2D30BB000030BC003B08B8004C0883
:10095000A53E86008701380881004C08A53EB800F6
:100960003808A4004108A6004008A5003D088031D1
:100970004120833120002508B1002408B000080080
:100980008E31582684312100DB01DC01DE01DF01DC
:10099000DD016630F1009030F20080310F208431AB
:1009A0005E30F1009030F20080310F208431203031
:1009B000F1009030F20080310F208431343021007A
:1009C000E0000030E1006D302000E6009030E700EC
:1009D0003430E8000030E900D1308F3131278431E4
:1009E0006630F1009030F20080310F2084314D30BC
:1009F000F1009030F20080310F208431D130F100CD
:100A00000030F20080310F20843121005E08031D88
:100A10000A2D0B2D152D8E31AB2684312000EA00D6
:100A20006A082100DF00DE01DE0A5E03031D192DC6
:100A30001A2DC52D5F088E3194268431662DF6302F
:100A4000E007FF30E13D6D302000E6009030E70028
:100A5000210061082000E900210060082000E80072
:100A6000D1308F31312784316630F1009030F2007F
:100A700080310F2084314D30F1009030F200803110
:100A80000F208431D130F1000030F20080310F208E
:100A900084318E31AB2684312000EA006A082100BF
:100AA000DF005F088E3194268431333021005F06E9
:100AB000031D5B2D5C2D662D6108DC006008DB00EA
:100AC00002302000EA006A082100DE0032302100F6
:100AD0005F06031D6C2D6D2DBA2D5E030319712D5C
:100AE000722D1F2DBA2D0A30E0070030E13D6D3028
:100AF0002000E6009030E700210061082000E900B6
:100B0000210060082000E800D1308F313127843186
:100B10006630F1009030F20080310F2084314D308A
:100B2000F1009030F20080310F208431D130F1009B
:100B30000030F20080310F2084318E31AB268431B9
:100B40002000EA006A082100DF005F088E31942649
:100B50008431323021005F06031DAF2DB02DBA2D38
:100B60006108DC006008DB0002302000EA006A084F
:100B70002100DE0033305F06031DBF2DC02DC52DC3
:100B80005E030319C42DC52D732D02305E06031DAF
:100B9000CA2DCB2DFB2E572E5D08E83E860087011F
:100BA00001082000EA00EB016A082100E0072000AC
:100BB0006B082100E13D60080A3E2000EA00003099
:100BC0002100613D2000EB002100610820006B0640
:100BD000031DEE2D2100600820006A060319F12D87
:100BE000F22DF72D2100E11FF62DF72D012E8E316C
:100BF0007426843104302000EA006A082100DE00F7
:100C0000EF2E6D302000E6009030E70021006108F3
:100C10002000E900210060082000E800D1308F3179
:100C2000312784316630F1009030F20080310F209E
:100C300084314D30F1009030F20080310F2084314A
:100C4000D130F1000030F20080310F2084318E313C
:100C5000AB2684312000EA006A082100DF005F082B
:100C60008E3194268431323021005F06031D392EE7
:100C70003A2E442E6108DC006008DB0003302000BF
:100C8000EA006A082100DE0002305D020318492EE6
:100C90004A2E512E01302000EA006A082100DD07AB
:100CA000572E02302000EA006A082100DD003330B0
:100CB0005F06031D5C2E5D2EEF2E02305E060319CB
:100CC000622E632ECC2DEF2E5D08E83E8600870154
:100CD00001082000EA00EB016A082100E002200080
:100CE0006B082100E13B6008F63E2000EA00FF307F
:100CF0002100613D2000EB002100610820006B060F
:100D0000031D862E2100600820006A060319892E23
:100D10008A2E8F2E2100E11F8E2E8F2E992E8E313E
:100D20007426843104302000EA006A082100DE00C5
:100D3000FB2E6D302000E6009030E70021006108B6
:100D40002000E900210060082000E800D1308F3148
:100D5000312784316630F1009030F20080310F206D
:100D600084314D30F1009030F20080310F20843119
:100D7000D130F1000030F20080310F2084318E310B
:100D8000AB2684312000EA006A082100DF005F08FA
:100D90008E3194268431333021005F06031DD12E1D
:100DA000D22EDC2E6108DC006008DB00033020005E
:100DB000EA006A082100DE0002305D020318E12E1D
:100DC000E22EE92E01302000EA006A082100DD074A
:100DD000EF2E02302000EA006A082100DD003230E8
:100DE0005F06031DF42EF52EFB2E02305E0603195E
:100DF000FA2EFB2E642E03305E06031D002F012FFA
:100E0000052D632FFF30E007FF30E13D5D08E73E31
:100E1000860087015C082000EB00010821005B02CE
:100E20002000EA00031CEB032100610820006B0690
:100E3000031D1E2F2100600820006A060319212FC0
:100E4000222F272F2100E11F262F272F312F8E3110
:100E50007426843104302000EA006A082100DE0094
:100E6000D22F6D302000E6009030E70021006108AD
:100E70002000E900210060082000E800D1308F3117
:100E8000312784316630F1009030F20080310F203C
:100E900084314D30F1009030F20080310F208431E8
:100EA000D130F1000030F20080310F2084318E31DA
:100EB000AB2684312000EA006A082100DF005F08C9
:100EC0008E3194268431323021005F06031D692F54
:100ED0006A2FD22F03305E0603196F2F702F022F57
:100EE000D22F0130E0070030E13D5D08E73E86008B
:100EF000870101085B072000EA0021005C08031855
:100F00005C0A2000EB002100610820006B06031D35
:100F10008D2F2100600820006A060319902F912F61
:100F2000962F2100E11F952F962FA02F8E3174262A
:100F3000843104302000EA006A082100DE00052D1B
:100F40006D302000E6009030E700210061082000AD
:100F5000E900210060082000E800D1308F313127FE
:100F600084316630F1009030F20080310F208431FE
:100F70004D30F1009030F20080310F208431D130BB
:100F8000F1000030F20080310F2084318E31AB2629
:100F900084312000EA006A082100DF005F088E31FA
:100FA00094268431333021005F06031DD82FD92FBA
:100FB000E02F03305E060319DE2FDF2F712F052D82
:100FC000052D8031022821008E312E268731E80040
:100FD0008E312F268731E9008E3130268731EA00A5
:100FE0002000EC01ED01EE01EF01A03084000030A3
:100FF000850025308E315226873120008431C02C67
:101C5C0005340234013416302100970008002000AE
:101C6C00110E890C0139080071082100E30070087D
:101C7C00E200080071082100E7007008E600080087
:101C8C0071082100E5007008E400080058302100BC
:101C9C009900220096010800640080010131890B33
:101CAC00532E00348E31DB268E318E314C268E3104
:101CBC008E3131268E318F310F278E310800F00195
:101CCC002000111E6A2E6B2E722E23009E1E6F2E6C
:101CDC00702E722EF001F00A700808006630F100C8
:101CEC009030F20080310F208E310030F1009030B6
:101CFC00F20080310F208E31822E08002000911EC0
:101D0C00882E892E842E2100A40123009D1C8F2E49
:101D1C00902E922E1D121D1619080800F700313056
:101D2C007706031D9A2E9B2EAA2E6630F10090305A
:101D3C00F20080310F208E313830F1009030F200FB
:101D4C0080310F208E31A92E08005630F1009030D2
:101D5C00F20080310F208E318E3135268E31003AD3
:101D6C000319B92EBA2EB22E8E3184268E31F7007D
:101D7C007708F80078080800F4007408F20072087C
:101D8C00F300CC2E0130F2007208F40774088600C0
:101D9C0087010108031DD32ED42EC82E730874029C
:101DAC00F000F101F01BF103080022008C018D0101
:101DBC008E013F3021008C0070308D00FF308E0082
:101DCC00CF3023008E0010308D0017308C00240093
:101DDC008D018C012100951722009D0108007408CB
:101DEC00803AF50080307502031DFE2E013073021F
:101DFC000318012F022F0E2F7309F5007409F6003A
:101E0C00F50A0319F60A7508F3007608F4000E2F8C
:101E1C000800083023009F0090309D0024309E0065
:101E2C0019309B009C010030F0000030F1008E3125
:101E3C0040268F310030F0000030F1008E31462604
:101E4C008F310030F0000030F1008E313A268F31A6
:101E5C002100A40108002100C6006830FD007D08A7
:101E6C00C5004608FD007D08C700C901CA01CF01A5
:101E7C00D00120006708DF006608DE00C530FD00D9
:101E8C007D08E000C7308F317D278F312100490854
:101E9C004607FD007D0886008701810108002000AF
:101EAC00A300A101A2016D2F2008F900FA01790805
:101EBC00F0007A08F1007808FB007B08F2008F3103
:101ECC00AE278F3101302000A1070030A23D210840
:101EDC002307F9007908860087010108FA007A08BF
:101EEC00A0002008031D7B2F7C2F5A2F08002000F8
:101EFC00E3005F08E5005E08E4002100A001A101F9
:101F0C009B2F6430E1006108CE006008E20062089B
:101F1C00CF006308803197208F3120004E082100BC
:101F2C00A00720004F082100A13D20006408840078
:101F3C00650885001200031DA42FA52F872F2100F3
:101F4C0021082000DF00210020082000DE0008000E
:101F5C0072080319B22FB32FB82F7208031DB72FB5
:101F6C00B82FBD2F7008803104208F31FF2F7208DD
:101F7C00083E86008701160001040319C62FC72FDF
:101F8C00E52F7208083E86008701403FF300413F71
:101F9C00F4007208023E86008701403FF500413F85
:101FAC00F6007608803AF7007408803A7702031D31
:101FBC00E12F730875020318E42FE52FFF2F70082B
:101FCC00F3007208860087017208023E84008501C6
:101FDC0000080107F400740886008701730881006B
:101FEC007208023E860087010130810741310318D7
:101FFC00810A08004D344334553420346934733429
:10200C00203463346F346E3466347534733469340D
:10201C006E3467342E34203449346E347634613463
:10202C006C34693464342034673461346D34653411
:10203C00213400342E3420344C3465347434273439
:10204C00733420346734753465347334733420340A
:10205C0079346F34753472342034613467346534B8
:10206C000D3400345934613479342C3420344934EF
:10207C0027346D34203467346F346F346434203437
:10208C00723469346734683474343F3400344934FE
:10209C00203467347534653473347334203400342D
:1020AC000D3455347334653472343A34203400347E
:1020BC00573465346C3463346F346D3465340034A8
:1020CC000D344D34433455343A34203400342534F3
:0620DC0064340D340034F1
:020000040001F9
:08000000FF3FFF3FFF3FFF3F00
:04000E00E409FF3FC3
:00000001FF
