:08000000803102288731ED2F49
:10000A000800C03021009E009F019B019C01013025
:10001A009D0008002000B8002100DC1B15281628C6
:10002A001A28FD30DD05FF30DE055C08803AFD0048
:10003A0080307D02031D232801305B020318262825
:10004A0027282D2801302000B9000030BA003528B1
:10005A0021005C082000BA0021005B082000B900DA
:10006A0021005A082000BC00210059082000BB00CA
:10007A003008BD003108BE003208BF003308C00096
:10008A003408C1003508C2003608C3003708C40066
:10009A001F30C5000030C6002200BF01B528FF305E
:1000AA002000C507FF30C63D0A30A000A101A20109
:1000BA00A301A401A501A601A7013D08A8003E08C5
:1000CA00A9003F08AA004008AB004108AC0042085A
:1000DA00AD004308AE004408AF008D3127258031BA
:1000EA0020002008303EFD004508203E86000130F1
:1000FA0087007D088100FF30B907FF30BA3DFF3025
:10010A00BB07FF30BC3D0A30A000A101A201A30138
:10011A00A401A501A601A7013D08A8003E08A9005F
:10012A003F08AA004008AB004108AC004208AD00F5
:10013A004308AE004408AF008E310D2680312000FE
:10014A002008BD002108BE002208BF002308C00005
:10015A002408C1002508C2002608C3002708C400D5
:10016A002000450846040319BB28BC28E8283D0896
:10017A003E043F0440044104420443044404031D72
:10018A00C728C82854283A08803AFD0080307D02E2
:10019A00031DD128013039020318D428D528542840
:1001AA0020003C08803AFD0080307D02031DDF28D4
:1001BA0001303B02031CE228E328E8282100DD186D
:1001CA00E728E828542820004508203EFD007D083D
:1001DA00A4003C08A6003B08A50038088C31CE24B0
:1001EA00803120002508B1002408B0000800200052
:1001FA003D088039C2004208CA003D35C2004208A3
:10020A00CC00BC1F09290A290B294C144C080319D4
:10021A000F29102920294C0A031D142915291D29E3
:10022A000030BD000030BC000030BB000030BA0016
:10023A00BC17BD0128290030BD000030BC000030C9
:10024A00BB000030BA0041088039C2004208CB0026
:10025A004B084A0603193229332934294A174135EA
:10026A00C2004208CB00C01F3B293C293D294B1440
:10027A004B0803194129422952294B0A031D4629D1
:10028A0047294F290030C1000030C0000030BF00AC
:10029A000030BE00C017C1015A290030C100003029
:1002AA00C0000030BF000030BE004C084B020318EB
:1002BA005F296029A4294A1F632964296829803093
:1002CA00C2004208CA064C08C2004208CD004B08C8
:1002DA00C2004208CC004D08C2004208CB003A08CE
:1002EA00C2004208CD003E08C2004208BA004D08CA
:1002FA00C2004208BE003B08C2004208CD003F08C7
:10030A00C2004208BB004D08C2004208BF003C08B8
:10031A00C2004208CD004008C2004208BC004D0895
:10032A00C2004208C0003D08C2004208CD00410890
:10033A00C2004208BD004D08C2004208C100CD01FA
:10034A004B08C200C3014308C5004C084202C4005E
:10035A00031CC5034508803AC60080304602031DC7
:10036A00B8291A304402031CBB29BC29F4292000ED
:10037A003D083C043B043A04031DC429C629013044
:10038A00C7290030C2004208CD000030BD0000304D
:10039A00BC000030BB000030BA004B08C200420863
:1003AA00CC00FB294D1CDA29DB29E1294D3601381D
:1003BA00C2004208CD00E3290310CD0C3A1CE629FD
:1003CA00E729E829CD170130C200BD37BC0CBB0CA8
:1003DA00BA0CC20BEA290130C2004208CC0720003D
:1003EA004B084C02031CFA29FB29D7294A1BFE2970
:1003FA00FF29372A4C08031D032A042A0D2A003034
:10040A00BD000030BC000030BB000030BA00332B06
:10041A003E08BA073F08BB3D4008BC3D4108BD3D08
:10042A003D1C182A192AC32A4D1C1C2A1D2A232AB4
:10043A004D360138C2004208CD00252A0310CD0CE2
:10044A003A1C282A292A2A2ACD170130C200BD3788
:10045A00BC0CBB0CBA0CC20B2C2A0130C2004208DD
:10046A00CC07C32A3D08803AC2004108803A4202BA
:10047A00031D492A40083C02031D492A3F083B0242
:10048A00031D492A3E083A0203184C2A4D2A852A96
:10049A00FF30C200FF30C300FF30C400FF30C50088
:1004AA003A083E02C6003B083F3BC7003C08403BB7
:1004BA00C8003D08413BC9004608C2074708C33D7A
:1004CA004808C43D4908C53D4508BD004408BC006C
:1004DA004308BB004208BA008030C2004208CA067C
:1004EA00CD09CD0A4D08031D7B2A7C2A8D2A0130AD
:1004FA00BA070030BB3D0030BC3D0030BD3D8D2AFF
:10050A003E08BA023F08BB3B4008BC3B4108BD3B22
:10051A003D083C043B043A04031D942A952ABF2A49
:10052A004D08031D992A9A2ABF2A0030BD000030BF
:10053A00BC000030BB000030BA00332B0130BA35A2
:10054A00BB0DBC0DBD0D890BA42ACD1FAD2AAE2A49
:10055A00AF2A3A144D1CB22AB32AB62A0314CD0D77
:10056A00B82A0310CD0D4C080319BC2ABD2ABF2A8C
:10057A000130CC02BC1FC22AC32AA32ACB01CD1F39
:10058A00C72AC82AD62A4D087F390319CD2ACE2A66
:10059A00D12ACB01CB0AD62A3A1CD42AD52AD62A62
:1005AA00CE2A4B080319DA2ADB2A082B0130BA07AC
:1005BA000030BB3D0030BC3D0030BD3D3D1CE62A4D
:1005CA00E72A082B3A08C2003B08C3003C08C400CB
:1005DA003D08C5000130C600C537C40CC30CC20CA7
:1005EA00C60BF12A4508BD004408BC004308BB00FD
:1005FA004208BA004C0A0319032B042B082B0130BA
:10060A00C2004208CC074C0A03190C2B0D2B122BE3
:10061A004C08031D112B122B202B0030BD0000307B
:10062A00BC000030BB000030BA004C08031D1E2B72
:10063A001F2B202BCA014C1C232B242B262BBC1727
:10064A002A2B7F30C2004208BC054C36C200420841
:10065A00BD00CA1F312B322B332BBD1708002000D7
:10066A0023088039A8002808AD002335A8002808E7
:10067A00B300A21F412B422B432B33143308031917
:10068A00472B482B572B330A031D4C2B4D2B552B2D
:10069A000030A3000030A2000030A1000030A0000A
:1006AA00A2175F2B0030A3000030A2000030A10087
:1006BA000030A00027088039A8002808AD06273591
:1006CA00A8002808B200A61F6B2B6C2B6D2B3214C6
:1006DA0032080319712B722B812B320A031D762BD8
:1006EA00772B7F2B0030A7000030A6000030A50032
:1006FA000030A400A617892B0030A7000030A600FE
:10070A000030A5000030A400320803198D2B8E2B6F
:10071A00932B3308031D922B932B9C2B0030A300A1
:10072A000030A2000030A1000030A0008A2D20086D
:10073A00A8002808F00026088B312D238331710880
:10074A002000B9007008B8003808A800A901AA0159
:10075A00AB012B08B1002A08B0002908AF0028080D
:10076A00AE003908A800A901AA01AB012B08B700FD
:10077A002A08B6002908B5002808B4002108A800EC
:10078A002808F00025088B312D23833171082000B9
:10079A00B9007008B8003808A800A901AA01AB017D
:1007AA002808AE072908AF3D2A08B03D2B08B13DFD
:1007BA003908A800A901AA01AB012808B407290829
:1007CA00B53D2A08B63D2B08B73D2208A8002808DF
:1007DA00F00024088B312D23833171082000B900E1
:1007EA007008B8003808A800A901AA01AB012808B6
:1007FA00AE072908AF3D2A08B03D2B08B13D39089C
:10080A00A800A901AA01AB012808B4072908B53D27
:10081A002A08B63D2B08B73D0830AE35AF0DB00DEE
:10082A00B10D890B122C2108A8002808F000240811
:10083A008B312D23833171082000B9007008B8006C
:10084A003808AE073908AF3D0030B03DB13D200849
:10085A00A8002808F00025088B312D238331710860
:10086A002000B9007008B8003808AE073908AF3D53
:10087A000030B03DB13D0830AE35AF0DB00DB10D11
:10088A00890B412C2008A8002808F00024088B3185
:10089A002D23833171082000B9007008B800380888
:1008AA00AE073908AF3D0030B03DB13D2108A80080
:1008BA002808F00026088B312D2383317108200087
:1008CA00B9007008B8003808B4073908B53D0030D7
:1008DA00B63DB73D2208A8002808F00025088B314C
:1008EA002D23833171082000B9007008B800380838
:1008FA00B4073908B53D0030B63DB73D2208A80017
:10090A002808F00026088B312D2383317108200036
:10091A00B9007008B8003808A8003908A900AA0167
:10092A00AB010830A835A90DAA0DAB0D890B972C80
:10093A002808B4072908B53D2A08B63D2B08B73D53
:10094A002E08A8002F08A9003008AA003108AB0019
:10095A001830AB36AA0CA90CA80C890BAE2C2808A7
:10096A00B4072908B53D2A08B63D2B08B73D08301B
:10097A00AE35AF0DB00DB10D890BBD2C3308320762
:10098A00A800A901A90D2808823EB800FF30293D18
:10099A00B900E62C0130B435B50DB60DB70D890B8B
:1009AA00D02CB11FD92CDA2CDB2C34140130AE3503
:1009BA00AF0DB00DB10D890BDC2CFF30B807FF303D
:1009CA00B93DB61FE92CEA2CCF2CB201B11FEE2C8F
:1009DA00EF2C0B2DFF302E05A800FF302F05A900A4
:1009EA00FF303005AA007F303105AB002B082A04FE
:1009FA00290428040319022D032D062DB201B20A77
:100A0A000B2D341C092D0A2D0B2D032D3208031929
:100A1A000F2D102D382D0130B4070030B53D0030B0
:100A2A00B63D0030B73D371C1B2D1C2D382D340820
:100A3A00A8003508A9003608AA003708AB0001301B
:100A4A00AC00AB37AA0CA90CA80CAC0B262D2B08B2
:100A5A00B7002A08B6002908B5002808B4000130F2
:100A6A00B8070030B93D3908803AA800803028021A
:100A7A00031D412DFF303802031C442D452D4F2DF7
:100A8A007F302000B7008030B6000030B50000305B
:100A9A00B4007E2D20003908803AA8008030280250
:100AAA00031D592D0130380203185C2D5D2D682D68
:100ABA0000302000B7000030B6000030B50000302A
:100ACA00B400AD017E2D20003808A8002808B30024
:100ADA00FF30B405FF30B5057F30B6050030B705E5
:100AEA00331C782D792D7A2DB6173336A8002808AD
:100AFA00B7002D08A8002808B7043708A30036084D
:100B0A00A2003508A1003408A00008008A31552245
:100B1A0085318A31ED2285312100D401D101D10AF2
:100B2A000130D2000030D300C901CA01CD01CE0183
:100B3A000030F000F1008A31682285310F30FA0066
:100B4A009030FB00FC01FC0AFD018B31F423853156
:100B5A002D30FA009030FB00FC01FD01FD0A8B31BB
:100B6A00F42385313930FA009030FB000930210036
:100B7A00A0002008FC00FD01FD0A8B31F423853119
:100B8A0021005408031DCA2DCB2DE62D20008E1EF0
:100B9A00CF2DD02DE62D1E302100A0003730890B35
:100BAA00D42DA00BD42D21005408031DDD2DDE2DDC
:100BBA00E62D20008E1EE22DE32DE62D2100D40124
:100BCA00D40A21005403031DEB2DEC2D8F2FD101E4
:100BDA00D10A8A312C2285318A3133228531710832
:100BEA002100CC007008CB004B08F0004C08F10043
:100BFA00890D893B8909F200F30001308E31912673
:100C0A00853173082000A7007208A6007108A500A4
:100C1A007008A4003F30A3007A30A2000030A1007F
:100C2A000830A00083313423853120002308D10005
:100C3A002208D0002108CF002008CE008D31982547
:100C4A00853120004F082100D60020004E082100DF
:100C5A00D5005508F0005608F100890D893B89092D
:100C6A00F200F30001308E3191268531730820009D
:100C7A00A7007208A6007108A5007008A4003D30FC
:100C8A00A300CC30A200CC30A100CD30A00083312B
:100C9A003423853120002308C1002208C00021081E
:100CAA00BF002008BE003F30BD008030BC000030CD
:100CBA00BB000030BA008031FC20853120003D089D
:100CCA00D1003C08D0003B08CF003A08CE008D3155
:100CDA009825853120004F082100D00020004E08B9
:100CEA002100CF005608803AA00080302002031D60
:100CFA00802EC73055020318832E842E872E21009A
:100D0A00D501D601210056084E06031D8E2E550820
:100D1A004D060319912E922EDB2E5608CE00550849
:100D2A00CD0047302000DF009030E0002100560857
:100D3A002000E200210055082000E100A1308B319B
:100D4A005023853133302000DF009030E00021004D
:100D5A0050082000E20021004F082000E100B530D1
:100D6A008B3150238531A130FA000030FB00053069
:100D7A002100A0002008FC00FD01FD0A8B31F423AC
:100D8A008531B530FA000030FB000D302100A0009B
:100D9A002008FC00FD018B31F4238531210056081F
:100DAA00F1005508F0008A3168228531210052038A
:100DBA005304031DE12EE22EFE2E20000E1FE62E06
:100DCA00E72EFE2E1E302100A0003730890BEB2EB5
:100DDA00A00BEB2E210052035304031DF52EF62E11
:100DEA00FE2E20000E1FFA2EFB2EFE2E2100D2010F
:100DFA00D30121004A085306031D052F490852064C
:100E0A000319082F092F6A2F52035304031D0E2FAB
:100E1A000F2F3A2F0130C9000030CA002030FA00E3
:100E2A009030FB000C30A0002008FC00FD01FD0AF8
:100E3A008B31F42385314330FA009030FB000C30BB
:100E4A002100A0002008FC00FD01FD0A8B31F423DB
:100E5A00853121005608F1005508F0008A316822D0
:100E6A00853101308B310C2385312100520853041E
:100E7A00031D402F412F6A2FC901CA012030FA00F1
:100E8A009030FB000C30A0002008FC00FD01FD0A98
:100E9A008B31F42385313E30FA009030FB000C3060
:100EAA002100A0002008FC00FD01FD0A8B31F4237B
:100EBA00853102308B310C23853121005608F1002F
:100ECA005508F0008A3168228531210052085304FE
:100EDA00031D702F712F8F2F20000E1F752F762F55
:100EEA008F2F1E302100A0003730890B7A2FA00BDC
:100EFA007A2F210052085304031D842F852F8F2F28
:100F0A0020000E1F892F8A2F8F2F01302100D20037
:100F1A000030D30021005403031D942F952FAF2FC7
:100F2A0020008E1E992F9A2FAF2F1E302100A0006D
:100F3A003730890B9E2FA00B9E2F21005403031DCF
:100F4A00A72FA82FAF2F20008E1EAC2FAD2FAF2FAB
:100F5A002100D4012100540851060319B52FB62FD8
:100F6A00C52D5408031DBA2FBB2FC52DD101003042
:100F7A008B310C2385312100D4010130D20000309D
:100F8A00D300CD01CE010030FA009030FB00FC0105
:100F9A00FC0AFD018B31F42385311C30FA009030B4
:100FAA00FB00FC01FD01FD0A8B31F423853125305C
:100FBA00FA009030FB0009302100A0002008FC0054
:100FCA00FD01FD0A8B31F4238531C52D80310228BC
:100FDA00D7308400003085000A308A313F228731B9
:100FEA00203084000130850020308A313F22873149
:060FFA00200085318B2D63
:1014580021009D1408001630210097000800210083
:101468001C08F1001B08F000080058302100990002
:10147800220096010800640080010131890B402A8E
:101488000034C0302C009900E0309800C03097003C
:101498000800F93020009B009A01911004309C004C
:1014A80008008A317E228A318A3139228A318A318A
:1014B8002F228A318A3145228A318A314D228A3156
:1014C800803106208A3108007108F3007008F200A4
:1014D800F336F20CF336F20C72082C009800700800
:1014E8000339F2000530F235FF3E031D772A7235C5
:1014F8009700080022008C018D018E013B302100ED
:101508008C008D01E0308E000F3023008E003030CB
:101518008D0017308C0024008D018C012100951757
:1015280022009D010800F4007408F2007208F3001C
:10153800A12A0130F2007208F4077408860001300D
:1015480087000108031DA92AAA2A9D2A7308740284
:10155800F000F101F01BF1030800F500FA30003249
:10156800890BB32AF001F00A75088C3131248A31CD
:101578007508F3000330F335FF3E031DBF2A7335AA
:10158800F4007408F500F001F00A75088C31312474
:101598008A310800F500FA300032890BD02AF001B0
:1015A80075088C3131248A317508F3000330F3351E
:1015B800FF3E031DDB2A7335F4007408F500533031
:1015C800890BE42A0000F00175088C3131248A3136
:1015D800080022008E018D010530F600DE30890BEF
:1015E800F32AF60BF32A32308A31CE228A31283098
:1015F8008A31CE228A310C308A31CE228A310130AA
:101608008A31CE228A3106308A31CE228A310800C8
:10161800F4007403031D112B122B152B22008E15B9
:101628000E1202307406031D1A2B1B2B1E2B2200D0
:101638008E110E167408031D222B232B2C2B22002F
:101648008E110E120030F000F1008A3168228B31C1
:101658000800F800F401F5017008F200F3017208BF
:10166800F6007308F700781C3A2B3B2B3F2B7608C3
:10167800F4077708F53D0130F635F70D890B402B57
:101688000310F80C7808031D4A2B4B2B372B7508D1
:10169800F1007408F00008002000E5006130E30064
:1016A8006308E4006508E3006308E600E801E9016F
:1016B800EE01EF016008D8005F08D7006430E3004E
:1016C8006308D90066308B31C3238B31200068084A
:1016D8006507E30063088600870181010800F900B7
:1016E800023076020318792B7A2B992B1030790265
:1016F800031C7F2B802B812B992B76030319852BB9
:10170800862B8C2B80307904F7000030F800912B61
:10171800C0307904F7000030F80077088A31CE220B
:101728008B31FA300032890B962B08002000A30079
:10173800A101A201B22B2008F900FA017908F000F2
:101748007A08F1007808FB007B08F2008C317C24D1
:101758008B3101302000A1070030A23D210823076A
:10176800F90079088600013087000108FA007A0834
:10177800A0002008031DC12BC22B9F2B08002000AE
:10178800DC005808DE005708DD002100D701D80129
:10179800E12B5D30DA005A08C7005908DB005B0806
:1017A800C8005C088F313D278B3120004708210095
:1017B800D707200048082100D83D20005D08840094
:1017C8005E0885001200031DEA2BEB2BCD2B2100B0
:1017D80058082000D800210057082000D70008002A
:1017E80010307C020318F92BFA2B302C02307D02C2
:1017F8000318FF2B002C302C7D082000A0002008A7
:10180800F6007C088B3173238B312000A301202C38
:101818007B08A1007A08A00023082007840021087B
:101828000318210A850000088A31B1228B31013062
:101838002000A0002008A3077B08A1007A08A000C8
:1018480023082007840021080318210A85001200B4
:10185800031D2F2C302C0C2C0800F2007208F039D4
:10186800F1007108F20022000E080F398E000D12E7
:101878008D120D138D137208F1000730F136890BA4
:10188800422C711C482C492C4B2C8D174C2C8D1339
:101898007208F1000630F136890B4F2C711C552C5B
:1018A800562C582C0D17592C0D137208F1000530C1
:1018B800F136890B5C2C711C622C632C652C8D16FF
:1018C800662C8D127208F1000430F136890B692CF0
:1018D800711C6F2C702C722C0D16732C0D12700C41
:1018E800031C0E1003180E148E100E150E1108008E
:1018F80072080319802C812C862C7208031D852CF4
:10190800862C8B2C7008803105208C31CD2C7208E8
:10191800083E86008701160001040319942C952CB3
:10192800B32C7208083E86008701403FF300413F10
:10193800F4007208023E86008701403FF500413FEF
:10194800F6007608803AF7007408803A7702031D9B
:10195800AF2C730875020318B22CB32CCD2C700869
:10196800F3007208860087017208023E8400850130
:1019780000080107F40074088600870173088100D5
:101988007208023E86008701013081074131031841
:10199800810A08002000AB0021005D1CD42CD52C46
:1019A800DE2C20002B08FC007C08F80024088B3172
:1019B8009A238C312000A61BE22CE32CE82C260865
:1019C800AA002508A900EA2CA901AA01A701A801D3
:1019D800FE2C2030F0000030F10020002B08FC0025
:1019E8007C08F2008C317C248C3101302000A70760
:1019F8000030A83D2808803AFC002A08803A7C027A
:101A0800031D082D29082702031C0B2D0C2DED2C76
:101A180021005D18102D112D1A2D20002B08FC0017
:101A28007C08F80024088B319A238C312000240884
:101A38008A3197228C31200029087007A4002A08CF
:101A4800713DA50008002000200821042204230479
:101A580024042504260427040319332D342D872D47
:101A6800F101F10A432DA035A10DA20DA30DA40D7E
:101A7800A50DA60DA70D0130F0007008F107A71FEE
:101A8800462D472D372D27082F02031D652D2608C3
:101A98002E02031D652D25082D02031D652D240822
:101AA8002C02031D652D23082B02031D652D22081A
:101AB8002A02031D652D21082902031D652D200812
:101AC8002802031C682D692D792D2008A8022108F9
:101AD800A93B2208AA3B2308AB3B2408AC3B2508BA
:101AE800AD3B2608AE3B2708AF3BA736A60CA50C96
:101AF800A40CA30CA20CA10CA00C0130F102031D34
:101B0800862D872D472D2808A0002908A1002A081E
:101B1800A2002B08A3002C08A4002D08A5002E085D
:101B2800A6002F08A700080003102000500D510D33
:101B3800D2005208D8005808031DA32DA42DAD2D9E
:101B48000030D1000030D0000030CF000030CE008F
:101B58000C2E4E08D2004F08D3005008D40051086C
:101B6800D5001F30D536D40CD30CD20C890BB62D2A
:101B78005208D6005608D700D017FF30CE05FF30E0
:101B8800CF05FF30D0050030D1059630D802D81FD8
:101B9800CE2DCF2DE72D5808803A973E0318D52D26
:101BA800D62DD72DA42D0130D136D00CCF0CCE0C8C
:101BB800890BD82D0130D2005208D807031DE52D16
:101BC800E62DD72DFC2D20305802031CEC2DED2DD1
:101BD800F72DA42D0130CE35CF0DD00DD10D890BA9
:101BE800EF2D0130D8025808031DFB2DFC2DEE2DDA
:101BF80057080319002E012E0C2ECE09CF09D00943
:101C0800D109CE0A0319CF0A0319D00A0319D10A38
:101C1800080071308600003087000830F00000307E
:101C28001E00F00B142E2000200821042204230497
:101C380024042504260427040319232E242E802E89
:101C4800F901F90A332EA035A10DA20DA30DA40D9B
:101C5800A50DA60DA70D0130F0007008F907A71F04
:101C6800362E372E272EF135F20DF30DF40DF50D26
:101C7800F60DF70DF80D27082F02031D5D2E260817
:101C88002E02031D5D2E25082D02031D5D2E24083E
:101C98002C02031D5D2E23082B02031D5D2E220836
:101CA8002A02031D5D2E21082902031D5D2E20082E
:101CB8002802031C602E612E722E2008A80221081B
:101CC800A93B2208AA3B2308AB3B2408AC3B2508C8
:101CD800AD3B2608AE3B2708AF3B7114A736A60CD0
:101CE800A50CA40CA30CA20CA10CA00C0130F902A9
:101CF800031D7F2E802E372E7108A0007208A100C8
:101D08007308A2007408A3007508A4007608A5004B
:101D18007708A6007808A7000800F80078080319D3
:101D2800962E972EAB2EF31F9A2E9B2EAB2E700954
:101D3800FA007109FB007209FC007309FD00FA0A38
:101D48000319FB0A0319FC0A0319FD0AB32E7308C9
:101D5800FD007208FC007108FB007008FA007308A7
:101D6800720471047004031DBA2EBB2EC42E0030F9
:101D7800F3000030F2000030F1000030F0003C2F9A
:101D88009630F4007408F900D42E0130F400740879
:101D9800F9070130FD36FC0CFB0CFA0C890BCE2E32
:101DA800FE307D05031DD92EDA2EC92EEE2E013008
:101DB800F4007408F9070130FA070030FB3D0030E1
:101DC800FC3D0030FD3D0130FD36FC0CFB0CFA0CEF
:101DD800890BE82EFF307D05031DF32EF42EDB2E34
:101DE800FE2E0130F9020130FA35FB0DFC0DFD0D18
:101DF800890BF82EFC1B012F022F082F02307902C5
:101E08000318072F082FF52E79180B2F0C2F142FD6
:101E1800FF30FA05FF30FB057F30FC05FF30FD057C
:101E28000310F90C7908F400F501F601F7011830F0
:101E3800F435F50DF60DF70D890B1C2F7408FA040F
:101E48007508FB047608FC047708FD047808031974
:101E58002E2F2F2F342FF31F322F332F342FFD1710
:101E68007D08F3007C08F2007B08F1007A08F00096
:101E780008002000D600470886008701403FC900B7
:101E8800413FCA00490884004A0885001200253AE3
:101E9800031D4F2F502FDC2F470886008701013084
:101EA800810741310318810A2100D901DA01DD01D6
:101EB800DE01FF30DB00FF30DC0020004708860031
:101EC8008701403FC900413FCA00490884004A08C9
:101ED80085001200753A031D722F732FA72F47082C
:101EE800860087010130810741310318810A4808BB
:101EF8008600870101088400850102308107003FC0
:101F0800CE00013FCF00D001D101D201D301D401CD
:101F1800D5014E08B0004F08B1005008B200510872
:101F2800B3005208B4005308B5005408B600550869
:101F3800B700560880310F208F3120003108C800C3
:101F48003008C700FF2F470886008701403FC900B7
:101F5800413FCA00490884004A0885001200253A12
:101F6800031DB72FB82FD12F4708860087010130EE
:101F7800810741310318810A2530F0000030F10053
:101F88005608C9004908F2008C317C248F31013091
:101F98002000C7000030C800FF2F470886008701CF
:101FA8000130810741310318810AC701C801FF2F99
:101FB800470886008701403FC900413FCA004908D9
:101FC80084004A0885000008CB00CC014B08F000CB
:101FD8004C08F1005608CD004D08F2008C317C24E5
:101FE8008F31200047088600870101308107413181
:101FF8000318810ACB2F08004434753474347934BB
:1020080020344334793463346C3465343A342034BE
:102018002034203400344434753474347934203412
:102028004334793463346C3465343A3420340034BE
:10203800503457344D343A3420342034203420344A
:102048000034443452343A34203420342034203498
:102058000034503457344D343A3420340034253465
:1020680075342034253425340034443452343A3419
:10207800203400342034433443345734003420347B
:0C208800433457340034253475340034E0
:020000040001F9
:08000000FF3FFF3FFF3FFF3F00
:04000E00E409FF3DC5
:00000001FF
