:060000000A128A11EA2F2A
:10000E007E088A007F0882000A128A1107200A12CF
:10001E008A118000840A04087D0603190034FF0A41
:10002E000319FE0A0B2877088039F8007808831226
:10003E000313A4007708F8007807F9007908AB00DD
:10004E00F61F2A282B282C282B142B0803193028AE
:10005E00312841282B0A031D352836283E2800302A
:10006E00F7000030F6000030F5000030F400F6170F
:10007E00F70149280030F7000030F6000030F50097
:10008E000030F40073088039F8007808A40673086D
:10009E00F8007807F9007908AC00F21F57285828A5
:1000AE0059282C142C0803195D285E286E282C0A5A
:1000BE00031D622863286B280030F3000030F20025
:1000CE000030F1000030F000F217F3017628003016
:1000DE00F3000030F2000030F1000030F000730841
:1000EE00720471047004031D7D287E289728003049
:1000FE00F7000030F6000030F5000030F4008030DC
:10010E00F6047F30F7042408F8007808F70477081F
:10011E00F3007608F2007508F1007408F000FC296F
:10012E002B08031D9B289C28A5280030F3000030C7
:10013E00F2000030F1000030F000FC292B08F8002E
:10014E00F9017908FB002C087802FA00031CFB0366
:10015E007A087F3EA5007B080318013E003EA600EC
:10016E007708A3007608A2007508A1007408A00005
:10017E000030F7000030F6000030F5000030F400DB
:10018E000030AA000030A9000030A8000030A700FF
:10019E00AC0121292C080319D528D628F6280130C0
:1001AE00F8000310A00DA10DA20DA30DF80BD82879
:1001BE000130F8000310F40DF50DF60DF70DF80BE8
:1001CE00E128AA1FEB28EC28ED2874140130F80062
:1001DE000310A70DA80DA90DAA0DF80BEF28730893
:1001EE002302031D042972082202031D042971082B
:1001FE002102031D042970082002031C0729082967
:10020E001D292A177008A0027108031C710F1029EE
:10021E001129A1027208031C720F16291729A202B6
:10022E007308031C730F1C291D29A3020130F8004B
:10023E007808AC071A302C02031C26292729D1284E
:10024E00230822042104200403192E292F294E29C4
:10025E0027144E290130F8000310F40DF50DF60D9C
:10026E00F70DF80B3329AA1F3D293E293F29741497
:10027E000130F8000310A70DA80DA90DAA0DF80B5B
:10028E004129FF30A5070318A60AFF30A607F61F5F
:10029E00512952293129AC01AA1F562957297329F0
:1002AE00FF302705F800FF302805F900FF3029053B
:1002BE00FA007F302A05FB007B087A047904780463
:1002CE0003196A296B296E29AC01AC0A7329741CB7
:1002DE007129722973296B292C080319772978291A
:1002EE00A9290130F407003003180130F50700305A
:1002FE0003180130F607003003180130F707771C9A
:10030E0089298A29A9297408F8007508F900760840
:10031E00FA007708FB000130FC007B0DFB0CFA0C99
:10032E00F90CF80CFC0B94297B08F7007A08F60000
:10033E007908F5007808F4000130A5070318A60A1D
:10034E000030A6072608803AFF0080307F02031D8A
:10035E00B229FF302502031CB529B629C429FF3066
:10036E0083120313A5000030A6000030F700003002
:10037E00F6000030F5000030F40083120313260857
:10038E00803AFF0080307F02031DCF290130250205
:10039E000318D229D329E02983120313A501A6013C
:1003AE000030F7000030F6000030F5000030F400A9
:1003BE00A401831203132508F8007808AB002B1C48
:1003CE00E929EA29EC29F617F0297F30F800780898
:1003DE00F6052B08F8000310780CF9007908F700E1
:1003EE002408F8007808F7048E28080083160313F3
:1003FE00EC01E801E901EA01EB01E401E501E201AA
:10040E00E301DE01DF01E001E10108308800831223
:10041E00031388018316031305148130831203130B
:10042E009F008130831603139F001A308316031327
:10043E00DD00F730DC00DC0B222ADD0B222A272A16
:10044E0083120313081008160030F900FA000A167A
:10045E008A1117220A128A110A168A1103200A1209
:10046E008A110030F900FA000A168A1117220A12B0
:10047E008A110A128A1552200A128A118316031340
:10048E006C08031D4B2A4C2A562A83120313881D0F
:10049E00512A522A562A83160313EC01EC0A8316AC
:1004AE0003136C03031D5C2A5D2A692A831203134E
:1004BE008819622A632A692A023083160313DC0024
:1004CE005C08EC000230831603136C06031D702AC1
:1004DE00712A7D2A83120313881D762A772A7D2A94
:1004EE00033083160313DC005C08EC000330831624
:1004FE0003136C06031D842A852A912A8312031383
:10050E0088198A2A8B2A912A043083160313DC0059
:10051E005C08EC000430831603136C06031D982A46
:10052E00992AA52A83120313881D9E2A9F2AA52A7B
:10053E00053083160313DC005C08EC0005308316CF
:10054E0003136C06031DAC2AAD2AB92A83120313BA
:10055E008819B22AB32AB92A063083160313DC008F
:10056E005C08EC00831603136C08031DBF2AC02A17
:10057E00E42A8312031388130816831603136308E1
:10058E00FA006208F9000A168A1117220A128A1155
:10059E000A168A1103200A128A118316031365089C
:1005AE00FA006408F9000A168A1117220A128A1133
:1005BE000A128A1552200A128A1102308316031368
:1005CE006C06031DEB2AEC2A482B83120313081228
:1005DE0088160A168A1108240A128A118316031322
:1005EE004D08E7004C08E6003C2B6708DF00660864
:1005FE00DE006708F1006608F0003C30F2000030C3
:10060E00F3000A168A15DB270A128A117008831660
:10061E000313DC007108DD000A300310DD0CDC0C66
:10062E00FF3E031D142B5C08E8005D08E9006B0813
:10063E00FA006A08F9000A168A1117220A128A119C
:10064E000A168A1103200A128A11831603136908E7
:10065E00FA006808F9000A168A1117220A128A117E
:10066E000A128A1552200A128A118316031367087A
:10067E005F06031D442B66085E06031D472B482BA1
:10068E00FC2A04306C06031D4D2B4E2BAA2B831215
:10069E000313881208170A168A1108240A128A11DF
:1006AE00831603134D08E7004C08E6009E2B6708DF
:1006BE00E1006608E0006708F1006608F0003C30D3
:1006CE00F2000030F3000A168A15DB270A128A118F
:1006DE00700883160313DC007108DD000A30031066
:1006EE00DD0CDC0CFF3E031D762B5C08EA005D087A
:1006FE00EB006B08FA006A08F9000A168A11172235
:10070E000A128A110A168A1103200A128A118316F6
:10071E0003136908FA006808F9000A168A111722ED
:10072E000A128A110A128A1552200A128A11831687
:10073E00031367086106031DA62B66086006031DDA
:10074E00A92BAA2B5E2B06306C06031DAF2BB02BEC
:10075E00452A831203130813881783160313EC011B
:10076E006908E5006808E4006B08E3006A08E20027
:10077E00E801E901EA01EB010030F900FA000A167E
:10078E008A1117220A128A110A168A1103200A12D6
:10079E008A110030F900FA000A168A1117220A127D
:1007AE008A110A128A1552200A128A11712C6508B2
:1007BE006906031DE42B64086806031DE72BE82B6E
:1007CE002F2CEA01EB011C2C6B08FA006A08F900C9
:1007DE000A168A1117220A128A110A168A11032082
:1007EE000A128A11831603136908FA006808F900C1
:1007FE000A168A1117220A128A110A128A15522013
:10080E000A128A11113083160313DD003930DC0011
:10081E00DC0B0F2CDD0B0F2C142C01308316031365
:10082E00EA070318EB0A0030EB076B086302031D9F
:10083E00222C6A0862020318252C262CEB2B640846
:10084E00013EE80065080318013E003EE900712CE8
:10085E00EA01EB016B08FA006A08F9000A168A1120
:10086E0017220A128A110A168A1103200A128A11F5
:10087E00831603136908FA006808F9000A168A112C
:10088E0017220A128A110A128A1552200A128A1186
:10089E00113083160313DD003930DC00DC0B552CD0
:1008AE00DD0B552C5A2C013083160313EA0703185F
:1008BE00EB0A0030EB0700306B023C3003196A0282
:1008CE00031C6A2C6B2C312C0130E8070318E90A43
:1008DE000030E9078316031369086502031D792C9E
:1008EE006808640203187C2C7D2CDE2B6508E90059
:1008FE006408E8006308EB006208EA00452A0A1261
:10090E008A1100288312031336088039BB003B0876
:10091E00C0003608BB003B07BC003C08C600B51F34
:10092E00992C9A2C9B2C4614460803199F2CA02C0C
:10093E00AF2C460A031DA42CA52CAD2C0030B600FE
:10094E000030B5000030B4000030B300B517B72C3E
:10095E000030B6000030B5000030B4000030B300F7
:10096E003A088039BB003B08C0063A08BB003B077B
:10097E00BC003C08C100B91FC52CC62CC72C4114A5
:10098E0041080319CB2CCC2CDB2C410A031DD02C97
:10099E00D12CD92C0030BA000030B9000030B8008C
:1009AE000030B700B917E32C0030BA000030B900A0
:1009BE000030B8000030B70041080319E72CE82CCE
:1009CE00ED2C4608031DEC2CED2CF62C0030B60059
:1009DE000030B5000030B4000030B300E92F33080A
:1009EE00BB003B08F00039080A168A1108200A12CB
:1009FE008A11710883120313CC007008CB004B08C8
:100A0E00BB00BC01BD01BE013E08C5003D08C400CF
:100A1E003C08C3003B08C2004C08BB00BC01BD0132
:100A2E00BE013E08CA003D08C9003C08C8003B088C
:100A3E00C7003408BB003B08F00038080A168A11BC
:100A4E0008200A128A11710883120313CC00700851
:100A5E00CB004B08BB00BC01BD01BE013B08C20769
:100A6E003C0803110318013E03193E2DC3073D0830
:100A7E0003110318013E0319452DC4073E08031147
:100A8E000318013E03194C2DC5074C08BB00BC01D1
:100A9E00BD01BE013B08C7073C0803110318013E08
:100AAE0003195A2DC8073D0803110318013E0319F7
:100ABE00612DC9073E0803110318013E0319682D65
:100ACE00CA073508BB003B08F00037080A168A1122
:100ADE0008200A128A11710883120313CC007008C1
:100AEE00CB004B08BB00BC01BD01BE013B08C207D9
:100AFE003C0803110318013E0319862DC3073D0858
:100B0E0003110318013E03198D2DC4073E0803116E
:100B1E000318013E0319942DC5074C08BB00BC01F8
:100B2E00BD01BE013B08C7073C0803110318013E77
:100B3E000319A22DC8073D0803110318013E03191E
:100B4E00A92DC9073E0803110318013E0319B02D44
:100B5E00CA070830BB000310C20DC30DC40DC50D6E
:100B6E00BB0BB22D3408BB003B08F00037080A1649
:100B7E008A1108200A128A11710883120313CC00FD
:100B8E007008CB004B08BB004C08BC00BD01BE0179
:100B9E003B08C2073C0803110318013E0319D82D68
:100BAE00C3073D0803110318013E0319DF2DC407C7
:100BBE003E0803110318013E0319E62DC50733083D
:100BCE00BB003B08F00038080A168A1108200A12EA
:100BDE008A11710883120313CC007008CB004B08E6
:100BEE00BB004C08BC00BD01BE013B08C2073C085F
:100BFE0003110318013E0319052EC3073D08031107
:100C0E000318013E03190C2EC4073E0803110318E6
:100C1E00013E0319132EC5070830BB000310C20D89
:100C2E00C30DC40DC50DBB0B152E3308BB003B0801
:100C3E00F00037080A168A1108200A128A11710864
:100C4E0083120313CC007008CB004B08BB004C087A
:100C5E00BC00BD01BE013B08C2073C0803110318CE
:100C6E00013E03193B2EC3073D0803110318013E35
:100C7E000319422EC4073E0803110318013E03193F
:100C8E00492EC5073408BB003B08F00039080A1688
:100C9E008A1108200A128A11710883120313CC00DC
:100CAE007008CB004B08BB004C08BC00BD01BE0158
:100CBE003B08C7073C0803110318013E0319682EB1
:100CCE00C8073D0803110318013E03196F2EC9070B
:100CDE003E0803110318013E0319762ECA07350884
:100CEE00BB003B08F00038080A168A1108200A12C9
:100CFE008A11710883120313CC007008CB004B08C5
:100D0E00BB004C08BC00BD01BE013B08C7073C0838
:100D1E0003110318013E0319952EC8073D08031150
:100D2E000318013E03199C2EC9073E080311031830
:100D3E00013E0319A32ECA073508BB003B08F0007D
:100D4E0039080A168A1108200A128A1171088312AC
:100D5E000313CC007008CB004B08BB004C08BC0042
:100D6E00BD01BE0108300310BB0DBC0DBD0DBE0D87
:100D7E00FF3E031DBA2E3B08C7073C08031103189C
:100D8E00013E0319CB2EC8073D0803110318013E7F
:100D9E000319D22EC9073E0803110318013E031989
:100DAE00D92ECA074208BB004308BC004408BD0048
:100DBE004508BE0018300310BE0CBD0CBC0CBB0C9D
:100DCE00FF3E031DE22E3B08C7073C080311031824
:100DDE00013E0319F32EC8073D0803110318013E07
:100DEE000319FA2EC9073E0803110318013E031911
:100DFE00012FCA070830BB000310C20DC30DC40D6E
:100E0E00C50DBB0B032F46084107BB00BC01BC0D33
:100E1E003B08823ECB003C080318013EFF3ECC004F
:100E2E00352F0130BB000310C70DC80DC90DCA0DFB
:100E3E00BB0B1A2FC51F242F252F262F4714013029
:100E4E00BB000310C20DC30DC40DC50DBB0B282F67
:100E5E00FF30CB070318CC0AFF30CC07C91F382F41
:100E6E00392F182FC101C51F3D2F3E2F5A2FFF308E
:100E7E004205BB00FF304305BC00FF304405BD00FA
:100E8E007F304505BE003E083D043C043B0403197B
:100E9E00512F522F552FC101C10A5A2F471C582FBF
:100EAE00592F5A2F522F410803195E2F5F2F902F63
:100EBE000130C707003003180130C807003003188F
:100ECE000130C907003003180130CA074A1C702FC1
:100EDE00712F902F4708BB004808BC004908BD0081
:100EEE004A08BE000130BF003E0DBE0CBD0CBC0C4E
:100EFE00BB0CBF0B7B2F3E08CA003D08C9003C0847
:100F0E00C8003B08C7000130CB070318CC0A0030DD
:100F1E00CC074C08803AFF0080307F02031D992FCA
:100F2E00FF304B02031C9C2F9D2FA82F7F30831266
:100F3E000313CA008030C9000030C8000030C7005B
:100F4E00DD2F831203134C08803AFF0080307F029E
:100F5E00031DB32F01304B020318B62FB72FC32F2B
:100F6E00003083120313CA000030C9000030C800DD
:100F7E000030C700C001DD2F831203134B08BB00E6
:100F8E003B08C600FF30C705FF30C8057F30C905D6
:100F9E000030CA05461CD42FD52FD62FC9174608A8
:100FAE00BB0003103B0CBC003C08CA004008BB0051
:100FBE003B08CA044A08B6004908B5004808B40000
:100FCE004708B300080083179A30FD001F30FE005B
:100FDE00A230FF00903084000A128A110B200A12F0
:100FEE008A11831603179A019B0183010A128A1133
:100FFE00FD2908308A000408840A82070034003470
:10100E00003480343F341834723431343F34F03489
:10101E00FD3475343E344734583463343D345834DB
:10102E0095341D343C348234C434AE343A34A8344E
:10103E00783421343934EF34933480343734A03457
:10104E009234A7343534463456341534343400349F
:10105E00003400340034C434FF347F343F348034E1
:10106E00EF34FF34BE349034E134A9343E34EC34E2
:10107E0082347634BE348234AD342B343E340E3466
:10108E003C34C334BD348734D13413343D3441340D
:10109E007834D334BB3483120313081508110800B7
:1010AE00831203136F08AF006E08AE006D08AD001B
:1010BE006C08AC00A53083160313A0002008831221
:1010CE000313B0000A168A11D8200A128A15831645
:1010DE000313A61F73287428A528831203136F0801
:1010EE00F3006E08F2006D08F1006C08F00000309D
:1010FE00F7000030F6000030F5000030F4000A165C
:10110E008A11AC220A128A1503188E288F289A2863
:10111E00BF3083120313EF008030EE000030ED007D
:10112E000030EC003F29003083120313EF00003033
:10113E00EE000030ED000030EC003F2900302602BA
:10114E001D3003192502031CAD28AE28AF283F29F8
:10115E00831203136F08E4006E08E3006D08E200CB
:10116E006C08E1000A168A119B210A128A15831255
:10117E0003136408F3006308F2006208F1006108CB
:10118E00F00001300A168A114E230A128A157308CE
:10119E0083160313A4007208A3007108A20070083E
:1011AE00A100831203136F08F3006E08F2006D089E
:1011BE00F1006C08F000831603132408F7002308CF
:1011CE00F6002208F5002108F4000A168A11AC2256
:1011DE000A128A150318F428F5282729BF3083121E
:1011EE000313D0008030CF000030CE000030CD0091
:1011FE0083160313240883120313D40083160313D8
:10120E00230883120313D3008316031322088312B9
:10121E000313D20083160313210883120313D10084
:10122E000A128A1578250A128A158312031350089A
:10123E00EF004F08EE004E08ED004D08EC003F2980
:10124E0083160313240883120313EF00831603136C
:10125E00230883120313EE0083160313220883124E
:10126E000313ED0083160313210883120313EC00FE
:10127E00080083160313C701390883120313A30052
:10128E0083160313380883120313A2008316031365
:10129E00370883120313A100831603133608831233
:1012AE000313A0000030A7000030A6000030A500F8
:1012BE000030A4000A168A112F200A128A15031C68
:1012CE0069296A2996290030F3000030F2000030B7
:1012DE00F1000030F000831603133D08F7003C08C0
:1012EE00F6003B08F5003A08F4000A168A11AC2203
:1012FE000A128A15031C842985298B29213083160D
:10130E0003179A0000309B00003083160313B900B8
:10131E000030B8000030B7000030B6001A2B83162C
:10132E0003133D0883120313A300831603133C0813
:10133E0083120313A200831603133B0883120313B5
:10134E00A100831603133A0883120313A000003082
:10135E00A7000030A6000030A5000030A4000A1639
:10136E008A112F200A128A15031CBE29BF29CA29E9
:10137E003F3083160313B9008030B8000030B70039
:10138E000030B6001A2B831603133908F300380801
:10139E00F2003708F1003608F0000030F700003098
:1013AE00F6000030F5000030F4000A168A11AC2267
:1013BE000A128A150318E429E529822A83160313D3
:1013CE003D0883120313E400831603133C088312B3
:1013DE000313E300831603133B0883120313E20087
:1013EE00831603133A0883120313E1000A168A11B7
:1013FE009B210A128A1583120313640883160313A2
:10140E00CB0083120313630883160313CA008312DF
:10141E000313620883160313C900831203136108B2
:10142E0083160313C8004B08F3004A08F20049085C
:10143E00F1004808F00000300A168A114E230A12F5
:10144E008A15730883120313A3007208A200710891
:10145E00A1007008A000831603133D088312031326
:10146E00A700831603133C0883120313A6008316EA
:10147E0003133B0883120313A500831603133A08C4
:10148E0083120313A4000A168A112F200A128A153A
:10149E000318522A532A642A2130831603179A00FE
:1014AE0000309B00003083160313B9000030B800E3
:1014BE000030B7000030B6001A2B8316031348080D
:1014CE000139BE003E08C7003908F3003808F200A3
:1014DE003708F1003608F0000A168A15AC270A12F2
:1014EE008A15730883160313B9007208B8007108C1
:1014FE00B7007008B600831603133908A700380822
:10150E00A6003708A5003608A4000A168A118826F8
:10151E000A128A15831603132708C2002608C10073
:10152E002508C0002408BF003D0883120313B6002F
:10153E00831603133C0883120313B500831603139B
:10154E003B0883120313B400831603133A08831265
:10155E000313B30083160313420883120313BA0056
:10156E0083160313410883120313B9008316031362
:10157E00400883120313B800831603133F08831227
:10158E000313B7000A128A1189240A128A158312CC
:10159E000313360883160313C6008312031335088C
:1015AE0083160313C5008312031334088316031323
:1015BE00C40083120313330883160313C3004608B3
:1015CE00AD004508AC004408AB004308AA000A125F
:1015DE008A151B230A128A15831603132D08B900C8
:1015EE002C08B8002B08B7002A08B60047080319C4
:1015FE00012B022B1A2B3908F3003808F20037089A
:10160E00F1003608F0000A168A15AC270A128A1560
:10161E00730883160313B9007208B8007108B70077
:10162E007008B6001A2B0800831603132D088312B8
:10163E000313A300831603132C0883120313A200B3
:10164E00831603132B0883120313A10083160313AF
:10165E002A0883120313A0000030A7000030A60052
:10166E000030A5000030A4000A168A112F200A129D
:10167E008A15031C432B442B4F2B3F308316031329
:10168E00AD008030AC000030AB000030AA00772DEA
:10169E004430F3003130F2007230F1001830F000B7
:1016AE00831603132D08F7002C08F6002B08F500FF
:1016BE002A08F4000A168A11AC220A128A15031897
:1016CE00692B6A2B7B2B2230831603179A0000306E
:1016DE009B007F3083160313AD007F30AC00FF30CC
:1016EE00AB00FF30AA00772D831603132D08F300ED
:1016FE002C08F2002B08F1002A08F000C430F70085
:10170E003A30F6004830F5008730F4000A168A1198
:10171E00AC220A128A150318952B962BA72B223072
:10172E00831603179A0000309B00003083160313B4
:10173E00AD000030AC000030AB000030AA00772DB9
:10174E00831603132D08F3002C08F2002B08F1006A
:10175E002A08F0000030F7000030F6000030F500E7
:10176E000030F4000A168A11AC220A128A15031CE4
:10177E00C12BC32B0130C42B003083160313AE00D4
:10178E002E08B50035080319CD2BCE2BE52B2D08D1
:10179E00F3002C08F2002B08F1002A08F0000A16BC
:1017AE008A15AC270A128A15730883160313AD0027
:1017BE007208AC007108AB007008AA003F308312AB
:1017CE000313B600B830B500AA30B4003B30B300F6
:1017DE00831603132D0883120313BA008316031303
:1017EE002C0883120313B900831603132B088312DC
:1017FE000313B800831603132A0883120313B700CA
:10180E000A128A1189240A128A15831203133608C2
:10181E0083160313AD0083120313350883160313C7
:10182E00AC0083120313340883160313AB00831228
:10183E000313330883160313AA002D088312031310
:10184E00EF00831603132C0883120313EE00831686
:10185E0003132B0883120313ED00831603132A08B8
:10186E0083120313EC000A128A1557200A128A15E6
:10187E00831203136F0883160313B200831203132C
:10188E006E0883160313B100831203136D088316BB
:10189E000313B000831203136C0883160313AF00F7
:1018AE00320883120313E4008316031331088312E4
:1018BE000313E30083160313300883120313E200AD
:1018CE00831603132F0883120313E1000A168A11DD
:1018DE009B210A128A1583120313620883160313BF
:1018EE00B40083120313610883160313B300330885
:1018FE00F0003408F1000030F11BFF30F200F3006D
:10190E0001300A168A114E230A128A1573088312A1
:10191E000313E4007208E3007108E2007008E100AE
:10192E00831603132D0883120313E8008316031383
:10193E002C0883120313E700831603132B0883125C
:10194E000313E600831603132A0883120313E5001C
:10195E000A168A15B7270A128A158312031364080A
:10196E0083160313AD008312031363088316031348
:10197E00AC0083120313620883160313AB008312A9
:10198E000313610883160313AA002D088312031391
:10199E00E400831603132C0883120313E30083164B
:1019AE0003132B0883120313E200831603132A0872
:1019BE0083120313E100013083160313AE002E08C9
:1019CE0083120313E5000930E6000030E7000A1623
:1019DE008A11C8240A128A15831203136408831607
:1019EE000313A70083120313630883160313A600C1
:1019FE0083120313620883160313A50083120313C5
:101A0E00610883160313A4003408A9003308A80044
:101A1E000A168A11A4250A128A158316031327089B
:101A2E00AD002608AC002508AB002408AA00350836
:101A3E000319222D232D772D2D0883120313A300B6
:101A4E00831603132C0883120313A20083160313A9
:101A5E002B0883120313A100831603132A08831283
:101A6E000313A0007F30A7007F30A600FF30A50033
:101A7E00FF30A4000A168A112F200A128A15031CA1
:101A8E00492D4A2D552D003083160313AD0000301D
:101A9E00AC000030AB000030AA00772D8316031384
:101AAE002D08F3002C08F2002B08F1002A08F00094
:101ABE003F30F7008030F6000030F5000030F400C3
:101ACE000A128A111A200A128A1573088316031332
:101ADE00AD007208AC007108AB007008AA00772D3B
:101AEE0008008312031350088039D5005508DD0015
:101AFE005008D5005507D6005608DF00CF1F882D99
:101B0E00892D8A2D5F145F0803198E2D8F2D9F2D21
:101B1E005F0A031D932D942D9C2D0030D0000030B4
:101B2E00CF000030CE000030CD00CF17D001A72D52
:101B3E000030D0000030CF000030CE000030CD009D
:101B4E0054088039D5005508DE005E085D0603197D
:101B5E00B12DB22DB32D5D175408D5005507D60003
:101B6E005608DE00D31FBC2DBD2DBE2D5E145E08A3
:101B7E000319C22DC32DD32D5E0A031DC72DC82DEB
:101B8E00D02D0030D4000030D3000030D200003011
:101B9E00D100D317D401DB2D0030D4000030D30098
:101BAE000030D2000030D1005F085E020318E02D35
:101BBE00E12D252E5D1FE42DE52DE92D8030D5007C
:101BCE005508DD065F08D5005508E0005E08D50013
:101BDE005508DF006008D5005508DE004D08D50019
:101BEE005508E0005108D5005508CD006008D50015
:101BFE005508D1004E08D5005508E0005208D50012
:101C0E005508CE006008D5005508D2004F08D50003
:101C1E005508E0005308D5005508CF006008D500E0
:101C2E005508D3005008D5005508E0005408D500DB
:101C3E005508D0006008D5005508D400E0015E08B4
:101C4E00D500D6015608D8005F085502D700031CF0
:101C5E00D8035808803AFF0080307F02031D392ECA
:101C6E001A305702031C3C2E3D2E7A2E831203137C
:101C7E0050084F044E044D04031D462E482E0130CD
:101C8E00492E0030D5005508E0000030D00000305D
:101C9E00CF000030CE000030CD005E08D5005508D4
:101CAE00DF00822E601C5C2E5D2E662E6008D50035
:101CBE000310550C0138D6005608E000682E0310AC
:101CCE00E00C4D1C6B2E6C2E6D2EE0170130D500E6
:101CDE00500DD00CCF0CCE0CCD0CD50B6F2E013081
:101CEE00D5005508DF07831203135E085F02031C3D
:101CFE00812E822E592E5D1B852E862ED12E5F08AB
:101D0E00031D8A2E8B2E942E0030D0000030CF0073
:101D1E000030CE000030CD00FF2F5108CD07520805
:101D2E0003110318013E03199D2ECE07530803110C
:101D3E000318013E0319A42ECF07540803110318EC
:101D4E00013E0319AB2ED007501CAE2EAF2E852FA1
:101D5E00601CB22EB32EBC2E6008D5000310550C9D
:101D6E000138D6005608E000BE2E0310E00C4D1CC4
:101D7E00C12EC22EC32EE0170130D500500DD00C4F
:101D8E00CF0CCE0CCD0CD50BC52E0130D500550881
:101D9E00DF07852F5008803AFF005408803A7F02F3
:101DAE00031DE32E53084F02031DE32E52084E026D
:101DBE00031DE32E51084D020318E62EE72E3F2F8A
:101DCE00FF30D500FF30D600FF30D700FF30D800EF
:101DDE005108D9005208DA005308DB005408DC0021
:101DEE004D08D9024E08031C4E0FFE2EFF2EDA02AE
:101DFE004F08031C4F0F042F052FDB025008031C46
:101E0E00500F0A2F0B2FDC025908D5075A0803185A
:101E1E005A0F122F132FD6075B0803185B0F182FBC
:101E2E00192FD7075C0803185C0AD8075808D0008A
:101E3E005708CF005608CE005508CD008030D5008B
:101E4E005508DD06E009E00A6008031D2F2F302F2C
:101E5E004D2F0130CD07003003180130CE07003072
:101E6E0003180130CF07003003180130D0074D2F73
:101E7E005108CD025208031C520FCE025308031C08
:101E8E00530FCF025408031C540FD00250084F04B6
:101E9E004E044D04031D542F552F812F6008031D32
:101EAE00592F5A2F812F0030D0000030CF00003034
:101EBE00CE000030CD00FF2F0130D5000310CD0D28
:101ECE00CE0DCF0DD00DD50B652FE01F6F2F702FC0
:101EDE00712F4D14601C742F752F782F0314E00D85
:101EEE007A2F0310E00D5F0803197E2F7F2F812FAD
:101EFE000130DF02CF1F842F852F632FDE01E01FFD
:101F0E00892F8A2F982F60087F3903198F2F902FD2
:101F1E00932FDE01DE0A982F4D1C962F972F982FA8
:101F2E00902F5E0803199C2F9D2FD12F0130CD07C6
:101F3E00003003180130CE07003003180130CF07F0
:101F4E00003003180130D007501CAE2FAF2FD12F09
:101F5E004D08D5004E08D6004F08D7005008D800BF
:101F6E000130D900580DD80CD70CD60CD50CD90B86
:101F7E00B92F5808D0005708CF005608CE00550884
:101F8E00CD005F0A0319CC2FCD2FD12F0130D500F4
:101F9E005508DF075F0A0319D52FD62FDB2F5F08F1
:101FAE00031DDA2FDB2FE92F0030D0000030CF00D9
:101FBE000030CE000030CD005F08031DE72FE82F64
:101FCE00E92FDD015F1CEC2FED2FEF2FCF17F32F35
:101FDE007F30D5005508CF055F08D5000310550C8E
:101FEE00D6005608D000DD1FFD2FFE2FFF2FD01775
:021FFE000800D9
:1020060083120313081408100800F800F401F50100
:102016007008F200F3017208F6007308F700781CE6
:10202600152816281C287608F4070318F50A7708D9
:10203600F50701300310F60DF70DFF3E031D1D28B1
:102046000310F80C7808031D29282A281228750879
:10205600F1007408F0000800003083120313200515
:10206600A80000302105A90080302205AA007F3093
:102076002305AB002B082A0429042804031D442841
:1020860045284D280030A3000030A2000030A100F2
:102096000030A00000302405A80000302505A90066
:1020A60080302605AA007F302705AB002B082A04BE
:1020B60029042804031D6028612869280030A70028
:1020C6000030A6000030A5000030A4002708230633
:1020D600031D772826082206031D772825082106D2
:1020E600031D77282408200603197A287B287D28D3
:1020F60003107E2803140800F601F31F83288428A2
:102106008B28F209F309F20A0319F30AF601F60A13
:10211600F11F8E288F289428F009F109F00A031977
:10212600F10A70087104031999289A28C928F5013B
:10213600F50AA82801300310F00DF10DFF3E031D2E
:102146009E280130F4007408F507F11FAB28AC286F
:102156009D2871087302031DB22870087202031CC1
:10216600B528B628BC287008F2027108031CF303D0
:10217600F30201300310F10CF00CFF3E031DBD28E5
:102186000130F502031DC828C928AC2876080319B2
:10219600CD28CE28D328F209F309F20A0319F30A47
:1021A6007308F1007208F0000800831203132F0869
:1021B600A3002E08A2002D08A1002C08A0000030C4
:1021C600A7000030A6000030A5000030A4000A16C3
:1021D6008A112F200A168A11031CF228F3280429D3
:1021E600831203133008840083138001840A80015C
:1021F6000030AF000030AE000030AD000030AC0063
:102206003329831203132F087F39B100B20103105B
:10221600B10DB20D30088400310883138000840AA2
:10222600320880002E0D2E0D0139B100B2013008A2
:10223600840031088004840A32088004300884004F
:1022460082308007840F00080318000AFF00FF3061
:102256007F07800084032F0880393F38AF00AE1314
:102266000800F601F11F382939294029F009F1093A
:10227600F00A0319F10AF601F60AF31F4329442965
:102286004D29F209F309F20A0319F30A0130F400A1
:102296007408F606F701F801700871040319542949
:1022A60055298C29F501F50A632901300310F00D33
:1022B600F10DFF3E031D59290130F4007408F5079E
:1022C600F11F66296729582901300310F70DF80D0B
:1022D600FF3E031D682971087302031D74297008E7
:1022E6007202031C772978297F297008F202710887
:1022F600031CF303F302771401300310F10CF00C06
:10230600FF3E031D80290130F502031D8B298C2910
:10231600672976080319902991299629F709F8095A
:10232600F70A0319F80A7808F1007708F0000800A0
:10233600031083120313630D640DE5006508EB00BB
:102346006B08031DA729A829B1290030E400003035
:10235600E3000030E2000030E100162A6108E500E3
:102366006208E6006308E7006408E8001F3003100F
:10237600E80CE70CE60CE50CFF3E031DBA296508E0
:10238600E9006908EA00E317FF30E105FF30E205DE
:10239600FF30E3050030E4059630EB02EB1FD4294D
:1023A600D529EF296B08803A973E0318DB29DC29EB
:1023B600DD29A82901300310E40CE30CE20CE10C42
:1023C600FF3E031DDE290130E5006508EB07031D0E
:1023D600ED29EE29DD29062A20306B02031CF4299B
:1023E600F529012AA8290130E5000310E10DE20DC7
:1023F600E30DE40DE50BF8290130EB026B08031D34
:10240600052A062AF6296A0803190A2A0B2A162A11
:10241600E109E209E309E409E10A0319E20A0319F9
:10242600E30A0319E40A080083120313A201A301B5
:10243600A4010A30F0000030F1007A08F3007908B0
:10244600F2000A168A1134210A168A1171088312BB
:102456000313A1007008A0000A30F0000030F1005C
:102466007A08F3007908F2000A168A117F200A1604
:102476008A11710883120313A3007008A200A40135
:102486002208903E84000130FB00240A4C2A0310E7
:10249600FB0DFF3E031D4A2A7B0883170005FC003F
:1024A600240A572A0310FC0CFF3E031D552A7C0301
:1024B600031D5E2A5F2A612A8814622A88100A167A
:1024C6008A1103200A168A110130FB007B08831249
:1024D6000313A40707302402031C722A732A432A13
:1024E6000A168A1103200A168A1183120313A401FD
:1024F6002008903E84000130FB00240A842A031041
:10250600FB0DFF3E031D822A7B0883170005FC0096
:10251600240A8F2A0310FC0CFF3E031D8D2A7C0320
:10252600031D962A972A992A88149A2A88100A1629
:102536008A1103200A168A110130FB007B088312D8
:102546000313A40707302402031CAA2AAB2A7B2AFA
:10255600080000307005F80000307105F900803081
:102566007205FA007F307305FB007B087A04790454
:102576007804031DBF2AC02AC82A0030F3000030A1
:10258600F2000030F1000030F00000307405F80071
:1025960000307505F90080307605FA007F30770542
:1025A600FB007B087A0479047804031DDB2ADC2A05
:1025B600E42A0030F7000030F6000030F500003065
:1025C600F400F31FE72AE82A0C2B0030F80000304D
:1025D600F9000030FA008030FB007008F80271083C
:1025E600031C710FF72AF82AF9027208031C720FEE
:1025F600FD2AFE2AFA027308031C730F032B042B11
:10260600FB027B08F3007A08F2007908F1007808EB
:10261600F000F71F0F2B102B342B0030F800003082
:10262600F9000030FA008030FB007408F8027508E3
:10263600031C750F1F2B202BF9027608031C760F3F
:10264600252B262BFA027708031C770F2B2B2C2B16
:10265600FB027B08F7007A08F6007908F50078088F
:10266600F4008030F3068030F70677087302031D06
:10267600462B76087202031D462B75087102031D50
:10268600462B740870020318492B4A2B4C2B031057
:102696004D2B03140800F80078080319532B542B0C
:1026A600682BF31F572B582B682B7009FA007109FA
:1026B600FB007209FC007309FD00FA0A0319FB0A04
:1026C6000319FC0A0319FD0A702B7308FD00720832
:1026D600FC007108FB007008FA00730872047104AC
:1026E6007004031D772B782B812B0030F30000300C
:1026F600F2000030F1000030F000072C9630F400B4
:102706007408F900932B0130F4007408F9070130BE
:102716000310FD0CFC0CFB0CFA0CFF3E031D8B2B6F
:10272600FE307D05031D982B992B862BB52B01308A
:10273600F4007408F9070130FA0700300318013075
:10274600FB07003003180130FC0700300318013086
:10275600FD0701300310FD0CFC0CFB0CFA0CFF3ED0
:10276600031DAD2BFF307D05031DBA2BBB2B9A2B0A
:10277600C72B0130F9020130F4000310FA0DFB0DEE
:10278600FC0DFD0DF40BC02BFC1BCA2BCB2BD12B48
:10279600023079020318D02BD12BBC2B7918D42BFD
:1027A600D52BDD2BFF30FA05FF30FB057F30FC050E
:1027B600FF30FD050310F90C7908F400F501F60168
:1027C600F70118300310F40DF50DF60DF70DFF3E69
:1027D600031DE52B7408FA047508FB047608FC044F
:1027E6007708FD0478080319F92BFA2BFF2BF31F42
:1027F600FD2BFE2BFF2BFD177D08F3007C08F20056
:102806007B08F1007A08F000080083160313D00154
:10281600D101D601D701D801D901DA01DB01831232
:1028260003139F149F18182C192C152C1E08831699
:102836000313CE00CF014E08D8004F08D9001E085A
:10284600CE00CF014E08DA004F08DB004130BD0054
:102856000030BC000030BB000030BA004030B90088
:102866000030B8000030B7000030B6000A128A15F2
:1028760040210A168A11831603133908D500380831
:10288600D4003708D3003608D2005808F00059089B
:10289600F1000030F11BFF30F200F30001300A16A0
:1028A6008A114E230A168A11730883120313BA007B
:1028B6007208B9007108B8007008B70083160313D0
:1028C600550883120313B6008316031354088312A4
:1028D6000313B50083160313530883120313B400BE
:1028E60083160313520883120313B3000A128A11C4
:1028F60089240A168A11831203133608D400350870
:10290600D3003408D2003308D100831603135A08C3
:10291600F0005B08F1000030F11BFF30F200F3001D
:1029260001300A168A114E230A168A117308831279
:102936000313D0007208CF007108CE007008CD00D6
:102946000A128A1578250A168A118312031350086B
:10295600E4004F08E3004E08E2004D08E1000A16C5
:102966008A119B210A168A118312031362088316A1
:102976000313D70083120313610883160313D600CB
:102986005708CD005608CC000800831203136608CA
:10299600E80001300310E80DFF3E031DCD2C0310A7
:1029A600680D650784000A128A1500200A168A1126
:1029B600E9000A128A1500200A168A11EA000A128C
:1029C6008A1500200A168A11EB000A128A150020C1
:1029D6000A168A11EC006C0883160313A3008312EF
:1029E60003136B0883160313A200831203136A08EA
:1029F60083160313A10083120313690883160313B6
:102A0600A000832DFF30E6070318E70AFF30E7072B
:102A16006608E80001300310E80DFF3E031D0E2D89
:102A26000310680D650784000A128A1500200A162D
:102A36008A11E9000A128A1500200A168A11EA008C
:102A46000A128A1500200A168A11EB000A128A1544
:102A560000200A168A11EC006C08D0006B08CF0023
:102A66006A08CE006908CD00831603132308831273
:102A76000313B60083160313220883120313B5004B
:102A860083160313210883120313B400831603135A
:102A9600200883120313B3006408BA006308B90060
:102AA6006208B8006108B7000A128A1189240A165A
:102AB6008A11831203133608D4003508D30034086C
:102AC600D2003308D1000A128A1578250A168A110F
:102AD60083120313500883160313A30083120313F0
:102AE6004F0883160313A200831203134E0883169E
:102AF6000313A100831203134D0883160313A000CA
:102B06008312031366086704031D8A2D8B2D052D7A
:102B160083160313230883120313E4008316031397
:102B2600220883120313E30083160313210883127A
:102B36000313E20083160313200883120313E10034
:102B4600080083160313270883120313A3008316B2
:102B56000313260883120313A20083160313250802
:102B660083120313A100831603132408831203138D
:102B7600A0000030A7000030A6000030A5000030FD
:102B8600A4000A168A112F200A168A11031CCC2DBE
:102B9600CD2DD82D003083160313A7000030A600D4
:102BA6000030A5000030A400872E831603132708E3
:102BB6007F3983120313ED00EE010310ED0DEE0DC8
:102BC6006D0883160313A8070318A90A83120313B3
:102BD6006E0883160313A907260D260D01398312E5
:102BE6000313ED00EE016D0883160313A8070318FF
:102BF600A90A831203136E0883160313A907A91FD4
:102C0600052E062E172E2230831603179A00003043
:102C16009B00003083160313A7000030A600003087
:102C2600A5000030A400872E2908803AFF008130D5
:102C36007F02031D202E00302802031C232E242E83
:102C46005B2E2230831603179A0000309B008316F2
:102C560003132708F3002608F2002508F1002408CC
:102C6600F0000030F7000030F6000030F5000030CC
:102C7600F4000A168A11AC220A168A110318442E89
:102C8600452E502EFF3083160313A7007F30A60073
:102C9600FF30A500FF30A400872E7F308316031374
:102CA600A7007F30A600FF30A500FF30A400872EC6
:102CB60083160313290883120313EE0083160313E6
:102CC600280883120313ED006E0DEE0CED0C83162F
:102CD60003132708831203136D0680396D068316C6
:102CE6000313A7002808013983120313ED00ED0C26
:102CF600ED0C831603132608831203136D067F3922
:102D06006D0683160313A60008008316031327080F
:102D1600F3002608F2002508F1002408F000003030
:102D2600F7000030F6000030F5000030F4000A1617
:102D36008A11AC220A168A110318A22EA32EB42ECB
:102D46002130831603179A0000309B00003083164B
:102D56000313A7000030A6000030A5000030A40031
:102D6600FF2F83160313270883120313A30083166A
:102D76000313260883120313A200831603132508E0
:102D860083120313A100831603132408831203136B
:102D9600A0000030A7000030A6000030A5000030DB
:102DA600A4000A168A112F200A168A11031CDC2E8B
:102DB600DD2EEE2E2230831603179A0000309B007C
:102DC600003083160313A7000030A6000030A500CC
:102DD6000030A400FF2FBF3083120313D0008030D1
:102DE600CF000030CE000030CD004030B6000030BD
:102DF600B5000030B4000030B3006E30ED006D0851
:102E0600B00083160313270883120313AF0083163B
:102E16000313260883120313AE0083160313250833
:102E260083120313AD0083160313240883120313BE
:102E3600AC000A168A11D8200A168A1183120313C7
:102E46002F08BA002E08B9002D08B8002C08B700C4
:102E56000A128A1189240A168A1183120313360864
:102E6600D4003508D3003408D2003308D1000A1242
:102E76008A1578250A168A118312031350088316B9
:102E86000313A700831203134F0883160313A60028
:102E9600831203134E0883160313A500831203132C
:102EA6004D0883160313A400FF3083120313EE07A5
:102EB6000318EF0AFF30EF07831603132708831260
:102EC6000313E40083160313260883120313E30097
:102ED60083160313250883120313E20083160313D4
:102EE600240883120313E1002930ED006D08E50084
:102EF6000830E6000030E7000A168A11C8240A16D0
:102F06008A1183120313640883160313A70083121E
:102F16000313630883160313A600831203136208C0
:102F260083160313A5008312031361088316031384
:102F3600A400270883120313D00083160313260860
:102F460083120313CF00831603132508831203137A
:102F5600CE0083160313240883120313CD003F30DB
:102F6600B6003130B5007230B4001830B3006E08C8
:102F7600F0006F08F1000030F11BFF30F200F300A3
:102F860001300A168A114E230A168A117308831213
:102F96000313BA007208B9007108B8007008B700C8
:102FA6000A128A1189240A168A1183120313360813
:102FB600D4003508D3003408D2003308D1000A12F1
:102FC6008A1578250A168A11831203135008831668
:102FD6000313A700831203134F0883160313A600D7
:102FE600831203134E0883160313A50083120313DB
:0A2FF6004D0883160313A400080021
:103F44007E3430346D34793433345B345F347034DC
:103F54007F347B3473087204710470040319B32F23
:103F6400B42FB62F8030F306080080308312031379
:103F7400E4066808D0006708CF006608CE0065082C
:103F8400CD006408D4006308D3006208D20061083D
:103F9400D1000A128A1578250A168A15831203138A
:103FA4005008E4004F08E3004E08E2004D08E10029
:103FB4000800F401F501701CE02FE12FE72F7208CF
:103FC400F4070318F50A7308F50701300310F20D1E
:103FD400F30DFF3E031DE82F01300310F10CF00C2C
:103FE400FF3E031DEF2F70087104031DFA2FFB2FF2
:103FF400DD2F7508F1007408F0000800FF3FFF3F53
:04400400FF3FFF3F3C
:04400E00D420FF3F7C
:00000001FF
