:060000000A128A11F82F1C
:10000C0083160317B401B501A401A50183120313D0
:10001C0087018316031387010A168A11D9200A1245
:10002C008A11831603138801831203138801831624
:10003C00031386018312031386018316031305141D
:10004C008130831203139F009030831603139F009B
:10005C001A3083160313E600F730E500E50B34285D
:10006C00E60B34283928F60100300A168A11AD2027
:10007C000A128A115730F6008030F7000A168A11DE
:10008C0082200A128A11831203139F149F184F287F
:10009C0050284C280A168A1117240A128A11831622
:1000AC000313550883160317B6008316031356085B
:1000BC0083160317B700B801B9013908FC003808DA
:1000CC00FB003708FA003608F90000300A168A11CE
:1000DC007E250A128A117C0883120313D8007B0830
:1000EC00D7007A08D6007908D5003E30D4001630F7
:1000FC00D3000430D2001930D1000A128A1197248F
:10010C000A128A11831203135408EE005308ED00EF
:10011C005208EC005108EB000A168A11D7220A1279
:10012C008A11831203136C0883160317B30083120E
:10013C0003136B0883160317B2000A168A111724CF
:10014C000A128A1183160313550883160317B60077
:10015C0083160313560883160317B700B801B901A9
:10016C000A168A1117240A128A11831603135508CA
:10017C0083160317A600831603135608831603175A
:10018C00A700A801A9012908FC002808FB002708E2
:10019C00FA002608F90000300A168A117E250A1288
:1001AC008A117C0883120313D8007B08D7007A08C5
:1001BC00D6007908D5003E30D4001630D300043078
:1001CC00D2001930D1000A128A1197240A128A110E
:1001DC00831203135408EE005308ED005208EC0090
:1001EC005108EB000A168A11D7220A128A118312BF
:1001FC0003136B0883160317AA00831203136C08EE
:10020C0083160317AB000030AB1BFF30AC00AD0006
:10021C003908FC003808FB003708FA003608F900EA
:10022C0000300A168A117E250A128A117C08831264
:10023C000313D8007B08D7007A08D6007908D500BC
:10024C003E30D4001630D3000430D2001930D10027
:10025C000A128A1197240A128A1183120313540862
:10026C0083160313AE008312031353088316031370
:10027C00AD0083120313520883160313AC008312D0
:10028C000313510883160313AB00831603172D08B1
:10029C00FC002C08FB002B08FA002A08F90001309E
:1002AC000A168A117E250A128A117C0883160313FA
:1002BC00AA007B08A9007A08A8007908A7000A16EA
:1002CC008A1187210A128A11831603132A088316AE
:1002DC000317B10083160313290883160317B00004
:1002EC0083160313280883160317AF008316031312
:1002FC00270883160317AE00310883120313D800A6
:10030C0083160317300883120313D70083160317C1
:10031C002F0883120313D600831603172E0883129B
:10032C000313D5004130D4002030D3000030D2006C
:10033C000030D1000A128A1197240A128A118312F2
:10034C0003135408EE005308ED005208EC0051085A
:10035C00EB000A168A11D7220A128A118312031390
:10036C006C0883160317B500831203136B088316EE
:10037C000317B400831203131E088600831603139D
:10038C001E08831203138800653083160313E500DF
:10039C00650883120313A000831603173308831216
:1003AC000313A20083160317320883120313A10050
:1003BC0083160317350883120313A400831603173F
:1003CC00340883120313A30090300A168A113A26BC
:1003DC000A128A11F601F60A00300A168A11AD20AB
:1003EC000A128A119030F6000130F7000A168A11B1
:1003FC0082200A128A11623083160313E6006530DC
:10040C00E500E50B072AE60B072A49280A128A1190
:10041C0000288312031340088039C5004508CD001D
:10042C004008C5004507C6004608CF00BF1F1F2A5D
:10043C00202A212A4F144F080319252A262A362A46
:10044C004F0A031D2A2A2B2A332A0030C000003001
:10045C00BF000030BE000030BD00BF17C0013E2AF7
:10046C000030C0000030BF000030BE000030BD00C6
:10047C0044088039C5004508CE004E084D060319C6
:10048C00482A492A4A2A4D174408C5004507C60080
:10049C004608CE00C31F532A542A552A4E144E0820
:1004AC000319592A5A2A6A2A4E0A031D5E2A5F2A00
:1004BC00672A0030C4000030C3000030C200003096
:1004CC00C100C317C401722A0030C4000030C3003D
:1004DC000030C2000030C1004F084E020318772ACA
:1004EC00782ABC2A4D1F7B2A7C2A802A8030C500A2
:1004FC004508CD064F08C5004508D0004E08C5007C
:10050C004508CF005008C5004508CE003D08C50081
:10051C004508D0004108C5004508BD005008C5007D
:10052C004508C1003E08C5004508D0004208C5007A
:10053C004508BE005008C5004508C2003F08C5006C
:10054C004508D0004308C5004508BF005008C50049
:10055C004508C3004008C5004508D0004408C50044
:10056C004508C0005008C5004508C400D0014E081D
:10057C00C500C6014608C8004F084502C700031C49
:10058C00C8034808803AFF0080307F02031DD02A40
:10059C001A304702031CD32AD42A112B83120313BB
:1005AC0040083F043E043D04031DDD2ADF2A0130D0
:1005BC00E02A0030C5004508D0000030C0000030F3
:1005CC00BF000030BE000030BD004E08C50045081D
:1005DC00CF00192B501CF32AF42AFD2A5008C50011
:1005EC000310450C0138C6004608D000FF2A031042
:1005FC00D00C3D1C022B032B042BD0170130C50053
:10060C00400DC00CBF0CBE0CBD0CC50B062B013035
:10061C00C5004508CF07831203134E084F02031C75
:10062C00182B192BF02A4D1B1C2B1D2B682B4F083C
:10063C00031D212B222B2B2B0030C0000030BF00C0
:10064C000030BE000030BD00962C4108BD074208AA
:10065C0003110318013E0319342BBE074308031181
:10066C000318013E03193B2BBF0744080311031861
:10067C00013E0319422BC007401C452B462B1C2C5A
:10068C00501C492B4A2B532B5008C5000310450C0A
:10069C000138C6004608D000552B0310D00C3D1C69
:1006AC00582B592B5A2BD0170130C500400DC00CBC
:1006BC00BF0CBE0CBD0CC50B5C2B0130C500450836
:1006CC00CF071C2C4008803AFF004408803A7F0278
:1006DC00031D7A2B43083F02031D7A2B42083E026E
:1006EC00031D7A2B41083D0203187D2B7E2BD62B44
:1006FC00FF30C500FF30C600FF30C700FF30C80018
:10070C004108C9004208CA004308CB004408CC0089
:10071C003D08C9023E08031C3E0F952B962BCA02BE
:10072C003F08031C3F0F9B2B9C2BCB024008031C48
:10073C00400FA12BA22BCC024908C5074A0803186D
:10074C004A0FA92BAA2BC6074B0803184B0FAF2B2C
:10075C00B02BC7074C0803184C0AC8074808C00040
:10076C004708BF004608BE004508BD008030C500E4
:10077C004508CD06D009D00A5008031DC62BC72B3F
:10078C00E42B0130BD07003003180130BE070030E8
:10079C0003180130BF07003003180130C007E42BE9
:1007AC004108BD024208031C420FBE024308031C51
:1007BC00430FBF024408031C440FC00240083F040F
:1007CC003E043D04031DEB2BEC2B182C5008031D91
:1007DC00F02BF12B182C0030C0000030BF00003083
:1007EC00BE000030BD00962C0130C5000310BD0DBD
:1007FC00BE0DBF0DC00DC50BFC2BD01F062C072C3E
:10080C00082C3D14501C0B2C0C2C0F2C0314D00D4D
:10081C00112C0310D00D4F080319152C162C182C65
:10082C000130CF02BF1F1B2C1C2CFA2BCE01D01F6A
:10083C00202C212C2F2C50087F390319262C272CE7
:10084C002A2CCE01CE0A2F2C3D1C2D2C2E2C2F2CDD
:10085C00272C4E080319332C342C682C0130BD077F
:10086C00003003180130BE07003003180130BF07F9
:10087C00003003180130C007401C452C462C682C56
:10088C003D08C5003E08C6003F08C7004008C80028
:10089C000130C900480DC80CC70CC60CC50CC90BDF
:1008AC00502C4808C0004708BF004608BE00450849
:1008BC00BD004F0A0319632C642C682C0130C50051
:1008CC004508CF074F0A03196C2C6D2C722C4F085E
:1008DC00031D712C722C802C0030C0000030BF0026
:1008EC000030BE000030BD004F08031D7E2C7F2C55
:1008FC00802CCD014F1C832C842C862CBF178A2C6A
:10090C007F30C5004508BF054F08C5000310450CD6
:10091C00C6004608C000CD1F942C952C962CC017F1
:10092C0008008312031354088039D9005908DE00DB
:10093C005408D9005907DA005A08E400D31FA72C31
:10094C00A82CA92C641464080319AD2CAE2CBD2C56
:10095C00640A031DB22CB32CBB2C0030D400003025
:10096C00D3000030D2000030D100D317C52C00309A
:10097C00D4000030D3000030D2000030D100580831
:10098C008039D9005908DE065808D9005907DA0011
:10099C005A08E300D71FD32CD42CD52C631463082E
:1009AC000319D92CDA2CE92C630A031DDE2CDF2C5D
:1009BC00E72C0030D8000030D7000030D6000030D3
:1009CC00D500D717F12C0030D8000030D7000030FC
:1009DC00D6000030D50063080319F52CF62CFB2C3F
:1009EC006408031DFA2CFB2C042D0030D4000030BD
:1009FC00D3000030D2000030D100F72F5108D900BD
:100A0C005908F00057080A168A15B1270A128A11DC
:100A1C00710883120313EA007008E9006908D90011
:100A2C00DA01DB01DC015C08E2005B08E1005A083A
:100A3C00E0005908DF006A08D900DA01DB01DC01AB
:100A4C005C08E8005B08E7005A08E6005908E50076
:100A5C005208D9005908F00056080A168A15B12711
:100A6C000A128A11710883120313EA007008E90054
:100A7C006908D900DA01DB01DC015908DF075A08E3
:100A8C0003110318013E03194C2DE0075B080311F9
:100A9C000318013E0319532DE1075C0803110318D9
:100AAC00013E03195A2DE2076A08D900DA01DB016D
:100ABC00DC015908E5075A0803110318013E031914
:100ACC00682DE6075B0803110318013E03196F2D0F
:100ADC00E7075C0803110318013E0319762DE8079C
:100AEC005308D9005908F00055080A168A15B12781
:100AFC000A128A11710883120313EA007008E900C4
:100B0C006908D900DA01DB01DC015908DF075A0852
:100B1C0003110318013E0319942DE0075B08031120
:100B2C000318013E03199B2DE1075C080311031800
:100B3C00013E0319A22DE2076A08D900DA01DB0194
:100B4C00DC015908E5075A0803110318013E031983
:100B5C00B02DE6075B0803110318013E0319B72DEE
:100B6C00E7075C0803110318013E0319BE2DE807C3
:100B7C000830D9000310DF0DE00DE10DE20DD90BAB
:100B8C00C02D5208D9005908F00055080A168A15CC
:100B9C00B1270A128A11710883120313EA00700834
:100BAC00E9006908D9006A08DA00DB01DC015908A0
:100BBC00DF075A0803110318013E0319E62DE0075D
:100BCC005B0803110318013E0319ED2DE1075C08C6
:100BDC0003110318013E0319F42DE2075108D90043
:100BEC005908F00056080A168A15B1270A128A11FC
:100BFC00710883120313EA007008E9006908D90030
:100C0C006A08DA00DB01DC015908DF075A08031116
:100C1C000318013E0319132EE0075B080311031898
:100C2C00013E03191A2EE1075C0803110318013E5B
:100C3C000319212EE2070830D9000310DF0DE00D57
:100C4C00E10DE20DD90B232E5108D9005908F00003
:100C5C0055080A168A15B1270A128A1171088312CF
:100C6C000313EA007008E9006908D9006A08DA0081
:100C7C00DB01DC015908DF075A0803110318013E98
:100C8C000319492EE0075B0803110318013E0319F1
:100C9C00502EE1075C0803110318013E0319572E6F
:100CAC00E2075208D9005908F00057080A168A15AD
:100CBC00B1270A128A11710883120313EA00700813
:100CCC00E9006908D9006A08DA00DB01DC0159087F
:100CDC00E5075A0803110318013E0319762EE6079F
:100CEC005B0803110318013E03197D2EE7075C080E
:100CFC0003110318013E0319842EE8075308D90089
:100D0C005908F00056080A168A15B1270A128A11DA
:100D1C00710883120313EA007008E9006908D9000E
:100D2C006A08DA00DB01DC015908E5075A080311EF
:100D3C000318013E0319A32EE6075B0803110318E1
:100D4C00013E0319AA2EE7075C0803110318013EA4
:100D5C000319B12EE8075308D9005908F0005708B9
:100D6C000A168A15B1270A128A1171088312031305
:100D7C00EA007008E9006908D9006A08DA00DB01AA
:100D8C00DC0108300310D90DDA0DDB0DDC0DFF3E54
:100D9C00031DC82E5908E5075A0803110318013E14
:100DAC000319D92EE6075B0803110318013E03193A
:100DBC00E02EE7075C0803110318013E0319E72E28
:100DCC00E8075F08D9006008DA006108DB006208F8
:100DDC00DC0018300310DC0CDB0CDA0CD90CFF3EF9
:100DEC00031DF02E5908E5075A0803110318013E9C
:100DFC000319012FE6075B0803110318013E0319C1
:100E0C00082FE7075C0803110318013E03190F2F85
:100E1C00E8070830D9000310DF0DE00DE10DE20DFD
:100E2C00D90B112F64086307D900DA01DA0D5908C0
:100E3C00823EE9005A080318013EFF3EEA00432FA8
:100E4C000130D9000310E50DE60DE70DE80DD90BC7
:100E5C00282FE21F322F332F342F65140130D90085
:100E6C000310DF0DE00DE10DE20DD90B362FFF3035
:100E7C00E9070318EA0AFF30EA07E71F462F472F56
:100E8C00262FE301E21F4B2F4C2F682FFF305F05FD
:100E9C00D900FF306005DA00FF306105DB007F30E0
:100EAC006205DC005C085B045A04590403195F2FCB
:100EBC00602F632FE301E30A682F651C662F672FF1
:100ECC00682F602F630803196C2F6D2F9E2F013034
:100EDC00E507003003180130E60700300318013035
:100EEC00E707003003180130E807681C7E2F7F2FBE
:100EFC009E2F6508D9006608DA006708DB006808D1
:100F0C00DC000130DD005C0DDC0CDB0CDA0CD90CE8
:100F1C00DD0B892F5C08E8005B08E7005A08E60047
:100F2C005908E5000130E9070318EA0A0030EA071E
:100F3C006A08803AFF0080307F02031DA72FFF3024
:100F4C006902031CAA2FAB2FB62F7F308312031319
:100F5C00E8008030E7000030E6000030E500EB2FC1
:100F6C00831203136A08803AFF0080307F02031D4E
:100F7C00C12F013069020318C42FC52FD12F0030A7
:100F8C0083120313E8000030E7000030E600003065
:100F9C00E500DE01EB2F831203136908D900590811
:100FAC00E400FF30E505FF30E6057F30E705003053
:100FBC00E805641CE22FE32FE42FE7176408D9003F
:100FCC000310590CDA005A08E8005E08D9005908D9
:100FDC00E8046808D4006708D3006608D2006508E6
:100FEC00D100080083160313E701E80183010A12FC
:040FFC008A11062828
:1010120083160313250883120313EB000130031018
:10102200EB0DFF3E031D102803106B0D83160313F7
:10103200240784000A168A110A200A128A158312CA
:101042000313EC000A168A110A200A128A15ED000F
:101052000A168A110A200A128A15EE000A168A1145
:101062000A200A128A15EF006F0883160313AA00DA
:10107200831203136E0883160313A900831203134A
:101082006D0883160313A800831203136C088316DA
:101092000313A700E028FF30A5070318A60AFF30B4
:1010A200A607250883120313EB0001300310EB0D92
:1010B200FF3E031D572803106B0D831603132407ED
:1010C20084000A168A110A200A128A15831203134F
:1010D200EC000A168A110A200A128A15ED000A1675
:1010E2008A110A200A128A15EE000A168A110A20AB
:1010F2000A128A15EF006F08C0006E08BF006D0863
:10110200BE006C08BD00831603132A088312031362
:10111200D40083160313290883120313D300831602
:101122000313280883120313D2008316031327081C
:1011320083120313D10083160313230883120313AC
:10114200D80083160313220883120313D7008316D1
:101152000313210883120313D600831603132008F6
:1011620083120313D5000A128A1197240A128A15D0
:10117200831203135408C4005308C3005208C20068
:101182005108C1000A128A110F220A128A1583120B
:101192000313400883160313AA00831203133F08A4
:1011A20083160313A900831203133E088316031345
:1011B200A800831203133D0883160313A700250812
:1011C2002604031DE528E6284C282A08A30029083E
:1011D200A2002808A1002708A00008008316031314
:1011E2002E08F3002D08F2002C08F1002B08F00065
:1011F2000030F7000030F6000030F5000030F40057
:101202000A168A1175230A128A15031809290A294E
:101212001929213083160313E7000030E80000305B
:10122200AE000030AD000030AC000030AB00442A0C
:10123200831603132E0883120313AD0083160313C0
:101242002D0883120313AC00831603132C08831298
:101252000313AB00831603132B0883120313AA0094
:101262000030B1000030B0000030AF000030AE00FE
:101272000A168A11D7210A128A15031C412942290A
:101282005129223083160313E7000030E8000030B2
:10129200AE000030AD000030AC000030AB00442A9C
:1012A200BF3083120313C0008030BF000030BE0085
:1012B2000030BD004030D4000030D3000030D200F6
:1012C2000030D100AF30FD007D08BA008316031351
:1012D2002E0883120313B900831603132D088312F9
:1012E2000313B800831603132C0883120313B700E9
:1012F200831603132B0883120313B6000A168A11EE
:101302007B220A128A15831203133908D80038087F
:10131200D7003708D6003608D5000A128A1197245A
:101322000A128A15831203135408C4005308C30017
:101332005208C2005108C1000A128A110F220A1271
:101342008A1583120313400883160313AE00831217
:1013520003133F0883160313AD00831203133E08E1
:1013620083160313AC00831203133D088316031381
:10137200AB00FF30AF070318B00AFF30B0072E08EA
:10138200A3002D08A2002C08A1002B08A0003330D6
:10139200FD007D08A4000830A5000030A6000A1256
:1013A2008A1509200A128A15831603132308AE0030
:1013B2002208AD002108AC002008AB002E088312E1
:1013C2000313C000831603132D0883120313BF00F7
:1013D200831603132C0883120313BE008316031310
:1013E2002B0883120313BD003F30D4003130D300E9
:1013F2007230D2001830D100831603132F08F9007F
:101402003008FA000030FA1BFF30FB00FC0001300C
:101412000A168A117E250A128A157C088312031382
:10142200D8007B08D7007A08D6007908D5000A12BE
:101432008A1197240A128A15831203135408C400CE
:101442005308C3005208C2005108C1000A128A118F
:101452000F220A128A1583120313400883160313FC
:10146200AE00831203133F0883160313AD008312E9
:1014720003133E0883160313AC00831203133D08C3
:1014820083160313AB00080083160313D00142082E
:1014920083120313AD00831603134108831203134F
:1014A200AC0083160313400883120313AB008316A8
:1014B20003133F0883120313AA000030B100003067
:1014C200B0000030AF000030AE000A168A11D721FA
:1014D2000A128A15031C6E2A6F2A9B2A0030F30017
:1014E2000030F2000030F1000030F00083160313E8
:1014F2004608F7004508F6004408F5004308F400E2
:101502000A168A1175230A128A15031C892A8A2A45
:10151200902A213083160313E7000030E8000030E0
:1015220083160313C2000030C1000030C000003037
:10153200BF001D2C83160313460883120313AD004C
:1015420083160313450883120313AC008316031397
:10155200440883120313AB00831603134308831258
:101562000313AA000030B1000030B0000030AF0019
:101572000030AE000A168A11D7210A128A15031CFE
:10158200C32AC42ACF2A3F3083160313C2008030F5
:10159200C1000030C0000030BF001D2C83160313B1
:1015A2004208F3004108F2004008F1003F08F00051
:1015B2000030F7000030F6000030F5000030F40093
:1015C2000A168A1175230A128A150318E92AEA2AC9
:1015D200852B83160313460883120313EE0083162A
:1015E2000313450883120313ED0083160313440803
:1015F20083120313EC0083160313430883120313AD
:10160200EB000A168A11D7220A128A1583120313D3
:101612006E0883160313D400831203136D08831616
:101622000313D300831203136C0883160313D2002F
:10163200831203136B0883160313D1005408FC00B2
:101642005308FB005208FA005108F90000300A164C
:101652008A117E250A128A157C0883120313AD00B3
:101662007B08AC007A08AB007908AA008316031342
:10167200460883120313B10083160313450883122D
:101682000313B00083160313440883120313AF003D
:1016920083160313430883120313AE000A168A113A
:1016A200D7210A128A150318572B582B672B213082
:1016B20083160313E7000030E8000030C200003058
:1016C200C1000030C0000030BF001D2C8316031380
:1016D20051080139C7004708D0004208F300410809
:1016E200F2004008F1003F08F0000A168A15802730
:1016F2000A128A15730883160313C2007208C10006
:101702007108C0007008BF00831603134208AE00C0
:101712004108AD004008AC003F08AB000A128A1530
:10172200EF200A128A15831603132E08CB002D0808
:10173200CA002C08C9002B08C800460883120313EC
:10174200D40083160313450883120313D3008316B0
:101752000313440883120313D200831603134308AE
:1017620083120313D100831603134B08831203134E
:10177200D800831603134A0883120313D700831673
:101782000313490883120313D60083160313480870
:1017920083120313D5000A128A1197240A128A159A
:1017A20083120313540883160313CF008312031307
:1017B200530883160313CE008312031352088316B1
:1017C2000313CD0083120313510883160313CC00B5
:1017D2004F08B6004E08B5004D08B4004C08B300DF
:1017E2000A128A1501260A128A158316031336086D
:1017F200C2003508C1003408C0003308BF005008D9
:101802000319042C052C1D2C4208F3004108F20098
:101812004008F1003F08F0000A168A1580270A12D4
:101822008A15730883160313C2007208C100710877
:10183200C0007008BF001D2C080077088039F8002E
:10184200780883120313A4007708F8007807F900D8
:101852007908AB00F61F2E2C2F2C302C2B142B08C2
:101862000319342C352C452C2B0A031D392C3A2C08
:10187200422C0030F7000030F6000030F500003056
:10188200F400F617F7014D2C0030F7000030F60097
:101892000030F5000030F40073088039F800780851
:1018A200A4067308F8007807F9007908AC00F21F63
:1018B2005B2C5C2C5D2C2C142C080319612C622CE3
:1018C200722C2C0A031D662C672C6F2C0030F3003F
:1018D2000030F2000030F1000030F000F217F301A6
:1018E2007A2C0030F3000030F2000030F1000030BA
:1018F200F0007308720471047004031D812C822CA1
:101902009B2C0030F7000030F6000030F50000306C
:10191200F4008030F6047F30F7042408F8007808D9
:10192200F7047708F3007608F2007508F1007408EE
:10193200F000002E2B08031D9F2CA02CA92C003098
:10194200F3000030F2000030F1000030F000002E11
:101952002B08F800F9017908FB002C087802FA003C
:10196200031CFB037A087F3EA5007B080318013E97
:10197200003EA6007708A3007608A2007508A10021
:101982007408A0000030F7000030F6000030F500C7
:101992000030F4000030AA000030A9000030A80096
:1019A2000030A700AC01252D2C080319D92CDA2C04
:1019B200FA2C0130F8000310A00DA10DA20DA30D09
:1019C200F80BDC2C0130F8000310F40DF50DF60DC8
:1019D200F70DF80BE52CAA1FEF2CF02CF12C741448
:1019E2000130F8000310A70DA80DA90DAA0DF80BE0
:1019F200F32C73082302031D082D72082202031D13
:101A0200082D71082102031D082D70082002031CF5
:101A12000B2D0C2D212D2A177008A0027108031C12
:101A2200710F142D152DA1027208031C720F1A2DAD
:101A32001B2DA2027308031C730F202D212DA3025C
:101A42000130F8007808AC071A302C02031C2A2D4A
:101A52002B2DD52C23082204210420040319322D16
:101A6200332D522D2714522D0130F8000310F40D9E
:101A7200F50DF60DF70DF80B372DAA1F412D422D4E
:101A8200432D74140130F8000310A70DA80DA90D01
:101A9200AA0DF80B452DFF30A5070318A60AFF3043
:101AA200A607F61F552D562D352DAC01AA1F5A2D0E
:101AB2005B2D772DFF302705F800FF302805F90050
:101AC200FF302905FA007F302A05FB007B087A04E3
:101AD2007904780403196E2D6F2D722DAC01AC0AB6
:101AE200772D741C752D762D772D6F2D2C080319EB
:101AF2007B2D7C2DAD2D0130F40700300318013011
:101B0200F507003003180130F607003003180130E2
:101B1200F707771C8D2D8E2DAD2D7408F8007508F2
:101B2200F9007608FA007708FB000130FC007B0D13
:101B3200FB0CFA0CF90CF80CFC0B982D7B08F70047
:101B42007A08F6007908F5007808F4000130A50754
:101B52000318A60A0030A6072608803AFF00803044
:101B62007F02031DB62DFF302502031CB92DBA2DAD
:101B7200C82DFF3083120313A5000030A6000030E9
:101B8200F7000030F6000030F5000030F400831258
:101B920003132608803AFF0080307F02031DD32DF5
:101BA200013025020318D62DD72DE42D83120313FD
:101BB200A501A6010030F7000030F6000030F50064
:101BC2000030F400A401831203132508F8007808FA
:101BD200AB002B1CED2DEE2DF02DF617F42D7F30E2
:101BE200F8007808F6052B08F8000310780CF900C5
:101BF2007908F7002408F8007808F704922C080006
:101C020083160313360883120313AD0083160313DE
:101C1200350883120313AC008316031334088312AE
:101C22000313AB0083160313330883120313AA00B2
:101C32000030B1000030B0000030AF000030AE0024
:101C42000A168A11D7210A128A15031C292E2A2E56
:101C5200352E3F3083160313B6008030B5000030B6
:101C6200B4000030B300FF2F4430F3003130F200F3
:101C72007230F1001830F000831603133608F700B3
:101C82003508F6003408F5003308F4000A168A1104
:101C920075230A128A1503184F2E502E5F2E2230FA
:101CA20083160313E7000030E8007F30B6007F3070
:101CB200B500FF30B400FF30B300FF2F83160313CB
:101CC2003608F3003508F2003408F1003308F0005A
:101CD200C430F7003A30F6004830F5008730F4009F
:101CE2000A168A1175230A128A150318792E7A2E7A
:101CF200892E223083160313E7000030E8000030FB
:101D0200B6000030B5000030B4000030B300FF2F41
:101D1200831603133608F3003508F2003408F10085
:101D22003308F0000030F7000030F6000030F50014
:101D32000030F4000A168A1175230A128A15031C50
:101D4200A32EA52E0130A62E003083160313B70052
:101D52003708BE003E080319AF2EB02EC72E360834
:101D6200F3003508F2003408F1003308F0000A16D7
:101D72008A1580270A128A15730883160313B60080
:101D82007208B5007108B4007008B3003F308312C6
:101D92000313D400B830D300AA30D2003B30D100B4
:101DA20083160313360883120313D8008316031312
:101DB200350883120313D7008316031334088312E2
:101DC2000313D60083160313330883120313D500BB
:101DD2000A128A1197240A128A15831203135408CD
:101DE20083160313B60083120313530883160313D7
:101DF200B50083120313520883160313B40083122F
:101E02000313510883160313B3003608AA003508DA
:101E1200A9003408A8003308A7000A168A11072768
:101E22000A128A15831603132A08BB002908BA006E
:101E32002808B9002708B8003B0883120313EE00F4
:101E4200831603133A0883120313ED008316031358
:101E5200390883120313EC00831603133808831224
:101E62000313EB000A168A11D7220A128A1583126B
:101E720003136C0883160313BD00831203136B084C
:101E820083160313BC003C08F9003D08FA00003039
:101E9200FA1BFF30FB00FC0001300A168A117E2576
:101EA2000A128A157C0883160313AA007B08A9006C
:101EB2007A08A8007908A7003608AE003508AD00F8
:101EC2003408AC003308AB000A168A1187210A12C3
:101ED2008A15831603132A08B6002908B5002808B4
:101EE200B4002708B3003608A3003508A20034085E
:101EF200A1003308A0000B30B7003708A400093056
:101F0200A5000030A6000A128A1509200A128A15B5
:101F1200831603132308AE002208AD002108AC008B
:101F22002008AB003D08B0003C08AF000A168A1139
:101F3200C4240A128A15831603132E08B6002D082C
:101F4200B5002C08B4002B08B3003E080319AA2FD1
:101F5200AB2FFF2F360883120313AD008316031332
:101F6200350883120313AC0083160313340883125B
:101F72000313AB0083160313330883120313AA005F
:101F82007F30B1007F30B000FF30AF00FF30AE00D5
:101F92000A168A11D7210A128A15031CD12FD22FB1
:101FA200DD2F003083160313B6000030B500003079
:101FB200B4000030B300FF2F831603133608F3007A
:101FC2003508F2003408F1003308F0003F30F70022
:101FD2008030F6000030F5000030F4000A128A1555
:101FE2001E240A128A15730883160313B600720898
:101FF200B5007108B4007008B300FF2F0800FF1B82
:102002000A2883137F1883170008840A0319FF0A1A
:10201200080010308A000408840A82070034013460
:1020220000340A34003464340034E83403341034A5
:1020320027340034003480343F341834723431345D
:102042003F34F034FD3475343E344734583463340D
:102052003D34583495341D343C348234C434AE3467
:102062003A34A834783421343934EF349334803418
:102072003734A0349234A7343534463456341534C8
:1020820034340034003400340034C434FF347F3438
:102092003F348034EF34FF34BE349034E134A93419
:1020A2003E34EC3482347634BE348234AD342B3454
:1020B2003E340E343C34C334BD348734D13413340B
:1020C2003D3441347834D334BB34443441344E3417
:1020D20047342034323430343134343436343134C9
:1020E200313430340034543465346D3470343D341A
:1020F2002034253475342E34253475342034433459
:102102000034F901992879087607840077080318C2
:10211200770AFF000A168A1100200A168A110A1687
:102122008A158B270A168A110130F8007808F907F8
:1021320079087607840077080318770A8312031355
:10214200FF000A168A1100200A168A11003A031D9E
:10215200AB28AC2884280800FA0002307602031863
:10216200B328B428D82810307A02031CB928BA2818
:10217200BB28D82876030319BF28C028C628803078
:102182007A04F8000030F900CB28C0307A04F80055
:102192000030F90078080A168A15D8270A168A111B
:1021A200F930F700D428F70BD328D728D82808000D
:1021B20083120313870186018316031386018701A5
:1021C2000530F700DD30F600F60BE528F70BE528C1
:1021D200EA2832300A168A15D8270A168A112830B8
:1021E2000A168A15D8270A168A110C300A168A1579
:1021F200D8270A168A1101300A168A15D8270A1614
:102202008A1106300A168A15D8270A168A1108007A
:102212007808790403190E290F293E29FD01FD0AC8
:102222001D2901300310F80DF90DFF3E031D13297E
:102232000130FC007C08FD07F91F20292129122901
:1022420079087B02031D272978087A02031C2A29B0
:102252002B2931297808FA027908031CFB03FB02B7
:1022620001300310F90CF80CFF3E031D3229013036
:10227200FD02031D3D293E2921297B08F9007A0828
:10228200F8000800F501F6017008710403194A29E3
:102292004B298229F701F70A592901300310F00D61
:1022A200F10DFF3E031D4F290130F4007408F707BA
:1022B200F11F5C295D294E2901300310F50DF60D41
:1022C200FF3E031D5E2971087302031D6A2970080F
:1022D2007202031C6D296E2975297008F2027108B9
:1022E200031CF303F302751401300310F10CF00C1C
:1022F200FF3E031D76290130F702031D8129822941
:102302005D297608F1007508F00008008030831618
:102312000313AA062E0883120313C00083160313A5
:102322002D0883120313BF00831603132C08831294
:102332000313BE00831603132B0883120313BD007D
:10234200831603132A0883120313C400831603138C
:10235200290883120313C300831603132808831268
:102362000313C20083160313270883120313C10049
:102372000A128A110F220A168A11831203134008C5
:1023820083160313AA00831203133F088316031351
:10239200A900831203133E0883160313A8008312B5
:1023A20003133D0883160313A700080000308312AD
:1023B20003132A05B20000302B05B30080302C0530
:1023C200B4007F302D05B5003508340433043204DF
:1023D200031DEC29ED29F5290030AD000030AC00D9
:1023E2000030AB000030AA0000302E05B2000030F1
:1023F2002F05B30080303005B4007F303105B500C1
:102402003508340433043204031D082A092A112A28
:102412000030B1000030B0000030AF000030AE003C
:1024220031082D06031D1F2A30082C06031D1F2A02
:102432002F082B06031D1F2A2E082A060319222AFB
:10244200232A252A0310262A03140800F200720800
:10245200F039F1007108F2008312031307080F39F3
:10246200870087110712871207137208F1000730DD
:102472000310F10CFF3E031D392A711C412A422A26
:10248200442A0717452A07137208F1000630031081
:10249200F10CFF3E031D482A711C502A512A532A6F
:1024A2008716542A87127208F10005300310F10CC6
:1024B200FF3E031D572A711C5F2A602A622A0716F3
:1024C200632A07127208F10004300310F10CFF3E78
:1024D200031D662A711C6E2A6F2A712A8715722AB9
:1024E2008711700C031C07100318071487100715B7
:1024F20007110800831203133908AD003808AC0035
:102502003708AB003608AA000030B1000030B00036
:102512000030AF000030AE000A168A11D7210A1629
:102522008A11031C952A962AA72A831203133A08B2
:10253200840083138001840A80010030B9000030D6
:10254200B8000030B7000030B600D62A8312031359
:1025520039087F39BB00BC010310BB0DBC0D3A0822
:1025620084003B0883138000840A3C088000380DF5
:10257200380D0139BB00BC013A0884003B088004D5
:10258200840A3C0880043A08840082308007840F61
:1025920000080318000AFF00FF307F078000840351
:1025A200390880393F38B900B81308000310831284
:1025B20003136D0D6E0D83160313A0002008A600F1
:1025C2002608031DE52AE62AF12A003083120313A6
:1025D200EE000030ED000030EC000030EB00742B18
:1025E200831203136B0883160313A00083120313D1
:1025F2006C0883160313A100831203136D0883165C
:102602000313A200831203136E0883160313A3009D
:102612001F300310A30CA20CA10CA00CFF3E031D43
:102622000A2B2008A4002408A50083120313ED1727
:10263200FF30EB05FF30EC05FF30ED050030EE0515
:10264200963083160313A602A61F282B292B472B8D
:102652002608803A973E03182F2B302B312BE62A7F
:102662000130031083120313EE0CED0CEC0CEB0C97
:10267200FF3E031D322B013083160313A0002008F6
:10268200A607031D452B462B312B622B2030260239
:10269200031C4C2B4D2B5D2BE62A0130A0000310AE
:1026A20083120313EB0DEC0DED0DEE0D83160313E8
:1026B200A00B502B0130A6022608031D612B622BB2
:1026C2004E2B25080319662B672B742B83120313D9
:1026D200EB09EC09ED09EE09EB0A0319EC0A0319FF
:1026E200ED0A0319EE0A080000307005F800003008
:1026F2007105F90080307205FA007F307305FB0026
:102702007B087A0479047804031D882B892B912B8A
:102712000030F3000030F2000030F1000030F00031
:1027220000307405F80000307505F9008030760538
:10273200FA007F307705FB007B087A04790478047D
:10274200031DA42BA52BAD2B0030F7000030F600A3
:102752000030F5000030F400F31FB02BB12BD52B65
:102762000030F8000030F9000030FA008030FB0041
:102772007008F8027108031C710FC02BC12BF902FB
:102782007208031C720FC62BC72BFA027308031CB4
:10279200730FCC2BCD2BFB027B08F3007A08F200DF
:1027A2007908F1007808F000F71FD82BD92BFD2B00
:1027B2000030F8000030F9000030FA008030FB00F1
:1027C2007408F8027508031C750FE82BE92BF9024F
:1027D2007608031C760FEE2BEF2BFA027708031C08
:1027E200770FF42BF52BFB027B08F7007A08F60033
:1027F2007908F5007808F4008030F3068030F70697
:1028020077087302031D0F2C76087202031D0F2C2A
:1028120075087102031D0F2C740870020318122C24
:10282200132C152C0310162C0314080041308316A8
:102832000313C6000030C5000030C4000030C300DE
:102842004030C2000030C1000030C0000030BF0084
:102852000A128A1545220A168A11831603134208A0
:10286200E2004108E1004008E0003F08DF00831277
:1028720003131E0883160313D700D801D901DA0106
:102882005A08FC005908FB005808FA005708F900DA
:1028920001300A168A117E250A168A117C088312D3
:1028A2000313D8007B08D7007A08D6007908D50030
:1028B20083160313620883120313D40083160313CF
:1028C200610883120313D300831603136008831273
:1028D2000313D200831603135F0883120313D1007C
:1028E2000A128A1197240A168A11831203135408B2
:1028F200C4005308C3005208C2005108C100831625
:1029020003131E08DB00DC01DD01DE015E08FC00B2
:102912005D08FB005C08FA005B08F90001300A164A
:102922008A117E250A168A117C0883120313C000BD
:102932007B08BF007A08BE007908BD000A128A111E
:102942000F220A168A11831203134008EE003F0871
:10295200ED003E08EC003D08EB000A168A11D72272
:102962000A168A11831203136C0883160313E400F8
:10297200831203136B0883160313E3006408D60063
:102982006308D5000800831603132E08831203136D
:10299200AD00831603132D0883120313AC008316B4
:1029A20003132C0883120313AB00831603132B08A3
:1029B20083120313AA000030B1000030B0000030CF
:1029C200AF000030AE000A168A11D7210A168A110A
:1029D200031CEC2CED2CF82C003083160313AE00F4
:1029E2000030AD000030AC000030AB007D2D83160E
:1029F20003132E087F39B100B2010310B10DB20DDD
:102A02003108AF070318B00A3208B0072D0D2D0D9B
:102A12000139B100B2013108AF070318B00A320818
:102A2200B007B01F152D162D232D2230E7000030E0
:102A3200E8000030AE000030AD000030AC000030E5
:102A4200AB007D2D3008803AFF0081307F02031DEC
:102A52002C2D00302F02031C2F2D302D652D2230FE
:102A620083160313E7000030E8002E08F3002D0858
:102A7200F2002C08F1002B08F0000030F7000030C3
:102A8200F6000030F5000030F4000A168A117523B2
:102A92000A168A1103184E2D4F2D5A2DFF30831618
:102AA2000313AE007F30AD00FF30AC00FF30AB004F
:102AB2007D2D7F3083160313AE007F30AD00FF30D3
:102AC200AC00FF30AB007D2D831603133008B2003B
:102AD2002F08B100320DB20CB10C2E08310680392C
:102AE2003106AE002F080139B100B10CB10C2D082E
:102AF20031067F393106AD00080083120313A400AA
:102B020024080319852D862D9A2DFC1F892D8A2DC7
:102B12009A2D7909A6007A09A7007B09A8007C09E9
:102B2200A900A60A0319A70A0319A80A0319A90AE0
:102B3200A22D7C08A9007B08A8007A08A7007908C2
:102B4200A6007C087B047A047904031DA92DAA2D12
:102B5200B32D0030FC000030FB000030FA000030E2
:102B6200F900392E9630A0002008A500C52D0130AD
:102B7200A0002008A50701300310A90CA80CA70C7F
:102B8200A60CFF3E031DBD2DFE302905031DCA2DD7
:102B9200CB2DB82DE72D0130A0002008A50701306C
:102BA200A607003003180130A707003003180130D0
:102BB200A807003003180130A90701300310A90C3F
:102BC200A80CA70CA60CFF3E031DDF2DFF30290524
:102BD200031DEC2DED2DCC2DF92D0130A502013078
:102BE200A0000310A60DA70DA80DA90DA00BF22D94
:102BF200A81BFC2DFD2D032E023025020318022EE8
:102C0200032EEE2D2518062E072E0F2EFF30A605B9
:102C1200FF30A7057F30A805FF30A9050310A50CDA
:102C22002508A000A101A201A30118300310A00DE4
:102C3200A10DA20DA30DFF3E031D172E2008A60411
:102C42002108A7042208A8042308A90424080319B8
:102C52002B2E2C2E312EFC1F2F2E302E312EA9176B
:102C62002908FC002808FB002708FA002608F900BA
:102C7200080083120313AD002130A5002508A90026
:102C8200F02E25302E060319472E482E542E2E08DC
:102C9200A5002D0884002508831780000130A500B7
:102CA2002508AD07F02EA8015B2EC030A50025082F
:102CB200A804752E0130A007FF30200784000A16F1
:102CC2008A110A200A168A11AE00A500A60126085A
:102CD200003A03196D2EF02E2508003A0319022F2F
:102CE200753A0319562EF02E290884008313000822
:102CF200AA00840A0008AB000230A5002508A90733
:102D0200AE01AE0A2E08A5002507013E84000A1670
:102D12008A110A200A168A11A6000A168A110A20A6
:102D22000A168A11A70027082B02031D9A2E2608CD
:102D32002A0203189D2E9E2E9F2EA92E0130A50039
:102D42002508AE0705302E06031DA82EA92E832EB8
:102D52002E08A5002508AC00E72E0A30F800003046
:102D6200F9002C08A5002507013E84000A168A11E5
:102D72000A200A168A11F0000A168A110A200A1677
:102D82008A11F1002B08F3002A08F2000A168A11B0
:102D920043210A168A117108FB007008FA000A160C
:102DA2008A1109210A168A117808303E8312031308
:102DB200A6002608AE002E08A5002D0884002508CE
:102DC200831780000130A5002508AD07FF30A5005C
:102DD2002508AC072C0A031DEF2EF02EAE2E013073
:102DE200A007FF30200784000A168A110A200A165B
:102DF2008A11A5002508AE002E08031D012F022FFF
:102E0200422E2D08840083178001080083160313C5
:102E12002A0883120313B9008316031329088312A5
:102E22000313B80083160313280883120313B70091
:102E320083160313270883120313B600AF30FD0075
:102E42007D08BA000A168A117B220A168A11831695
:102E52000313B01F2D2F2E2F5D2F2A08F3002908F0
:102E6200F2002808F1002708F0000030F7000030D7
:102E7200F6000030F5000030F4000A168A117523BE
:102E82000A168A110318462F472F522FBF30831676
:102E92000313AA008030A9000030A8000030A70068
:102EA200FF2F003083160313AA000030A900003060
:102EB200A8000030A700FF2F003030021D30031998
:102EC2002F02031C652F662F672FFF2F2A088312FC
:102ED2000313EE0083160313290883120313ED0074
:102EE20083160313280883120313EC0083160313BB
:102EF200270883120313EB000A168A11D7220A1637
:102F02008A11831203136E08FC006D08FB006C0823
:102F1200FA006B08F90001300A168A117E250A169A
:102F22008A117C0883160313AE007B08AD007A0871
:102F3200AC007908AB002A08F3002908F20028083F
:102F4200F1002708F0002E08F7002D08F6002C08E3
:102F5200F5002B08F4000A168A1175230A168A1145
:102F62000318B42FB52FF52FBF3083120313C000FF
:102F72008030BF000030BE000030BD008316031356
:102F82002E0883120313C400831603132D08831221
:102F92000313C300831603132C0883120313C20006
:102FA200831603132B0883120313C1000A128A111A
:102FB2000F220A168A118312031340088316031381
:102FC200AA00831203133F0883160313A900831276
:102FD20003133E0883160313A800831203133D084C
:102FE20083160313A700FF2F831603132E08AA00CC
:0E2FF2002D08A9002C08A8002B08A700080035
:103F000073087204710470040319872F882F8A2F95
:103F10008030F3060800F500F930F3008F2FF30B23
:103F20008E2F922F932FF001F00A75080A168A112E
:103F300027220A168A157508F30003300310F30DC3
:103F4000FF3E031D9E2F0310730DF4007408F5004F
:103F5000F001F00A75080A168A1127220A168A1536
:103F60000800F800F401F5017008F200F30172088E
:103F7000F6007308F700781CBE2FBF2FC52F7608F8
:103F8000F4070318F50A7708F50701300310F60D5A
:103F9000F70DFF3E031DC62F0310F80C7808031D14
:103FA000D22FD32FBB2F7508F1007408F000080042
:103FB000F500F930F300DC2FF30BDB2FDF2FE02FC0
:103FC000F00175080A168A1127220A168A15750843
:103FD000F30003300310F30DFF3E031DEA2F03101F
:103FE000730DF4007408F5005330F300F30BF62F53
:103FF000F00175080A168A1127220A168A15080088
:08400000FF3FFF3FFF3FFF3FC0
:04400E00D420FF3F7C
:00000001FF
