:08000000803102288731FD2F39
:1009760021008E120E138E130E148E140E152300E4
:100986008E0122008E120E138E13F301F401F5016F
:10099600F601F101F20175087604031DD32CD42C5F
:1009A600D92C20000E18D82CD92CE52C0930750628
:1009B6007604031DDF2CE02CF62C20000E1CE42C04
:1009C600E52CF62C1E30F0003730890BE82CF00BA6
:1009D600E82C000020000E1CF12CF22CF62C013025
:1009E600F5000030F60075037604031DFB2CFC2C85
:1009F600052D20000E18002D012D052D0230F500C5
:100A06000030F600023075067604031D0B2D0C2D02
:100A1600112D20000E18102D112D1D2D0B307506D1
:100A26007604031D172D182D2E2D20000E1C1C2DAF
:100A36001D2D2E2D1E30F0003730890B202DF00B8A
:100A4600202D000020000E1C292D2A2D2E2D0330CE
:100A5600F5000030F600033075067604031D342DCC
:100A6600352D3E2D20000E18392D3A2D3E2D043001
:100A7600F5000030F600043075067604031D442D9B
:100A8600452D4A2D20000E18492D4A2D562D0D3084
:100A960075067604031D502D512D672D20000E1C62
:100AA600552D562D672D1E30F0003730890B592DE8
:100AB600F00B592D000020000E1C622D632D672DB2
:100AC6000530F5000030F600053075067604031D86
:100AD6006D2D6E2D772D20000E18722D732D772D0E
:100AE6000630F5000030F600063075067604031D64
:100AF6007D2D7E2D942D20000E1C822D832D942D70
:100B06001E30F0003730890B862DF00B862D000045
:100B160020000E1C8F2D902D942D0730F5000030EF
:100B2600F600073075067604031D9A2D9B2DA22D1F
:100B360020000E189F2DA02DA22DF501F601750897
:100B46007604031DA72DA82DAD2D20008E18AC2DE3
:100B5600AD2DB92D023075067604031DB32DB42DC7
:100B6600CA2D20008E1CB82DB92DCA2D1E30F000BE
:100B76003730890BBC2DF00BBC2D000020008E1CDD
:100B8600C52DC62DCA2D0830F5000030F6000830F8
:100B960075067604031DD02DD12DDA2D20008E1872
:100BA600D52DD62DDA2D0930F5000030F6000930A6
:100BB60075067604031DE02DE12DF72D20008E1C11
:100BC600E52DE62DF72D1E30F0003730890BE92D87
:100BD600F00BE92D000020008E1CF22DF32DF72DD1
:100BE6000A30F5000030F600043075067604031D61
:100BF600FD2DFE2D142E20008E1C022E032E142EEB
:100C06001E30F0003730890B062EF00B062E000042
:100C160020008E1C0F2E102E142E0F30F5000030E3
:100C2600F6000A3075067604031D1A2E1B2E242E96
:100C360020008E181F2E202E242E0B30F50000309B
:100C4600F6000B3075067604031D2A2E2B2E412E38
:100C560020008E1C2F2E302E412E1E30F0003730F5
:100C6600890B332EF00B332E000020008E1C3C2EF9
:100C76003D2E412E0C30F5000030F600063075068C
:100C86007604031D472E482E5E2E20008E1C4C2E09
:100C96004D2E5E2E1E30F0003730890B502EF00B95
:100CA600502E000020008E1C592E5A2E5E2E10301B
:100CB600F5000030F6000C3075067604031D642E30
:100CC600652E6E2E20008E18692E6A2E6E2E0D3021
:100CD600F5000030F6000D3075067604031D742EFF
:100CE600752E8B2E20008E1C792E7A2E8B2E1E3082
:100CF600F0003730890B7D2EF00B7D2E0000200092
:100D06008E1C862E872E8B2E0E30F5000030F600B8
:100D16000F3075067604031D912E922E9B2E200011
:100D26008E18962E972E9B2E0B30F5000030F6006F
:100D3600103075067604031DA12EA22EAB2E2000C0
:100D46008E18A62EA72EAB2E0D30F5000030F6001D
:100D56000E3075067604031DB12EB22EB92E200074
:100D66008E18B62EB72EB92EF501F60120000E1DEF
:100D7600BD2EBE2EE62E7608803AF0008030700238
:100D8600031DC72E073075020318CA2ECB2EE62E7A
:100D96007208803AF00084307002031DD42EB03001
:100DA60071020318D72ED82EDD2E0130F107003040
:100DB600F23DED2EF101F201F501F60122008E124F
:100DC6000E138E13ED2E20000E19EA2EEB2EED2EAD
:100DD600F101F20120000E1DF12EF22E1A2F7608D7
:100DE600803AF00080307002031DFB2E0830750239
:100DF600031CFE2EFF2E1A2F7208803AF000823056
:100E06007002031D082F8A30710203180B2F0C2F56
:100E1600112F0130F1070030F23D212FF101F201CF
:100E2600F501F60122008E120E138E13212F2000DB
:100E36000E191E2F1F2F212FF101F20175087604BE
:100E4600031D262F272F2B2F22008E120E138E13F3
:100E5600023075067604031D312F322F362F2200FD
:100E66008E160E138E13043075067604031D3C2F62
:100E76003D2F412F22008E120E178E130630750657
:100E86007604031D472F482F4C2F22008E120E1377
:100E96008E170930750676040319522F532F5A2FD1
:100EA6000A3075067604031D592F5A2F862F7408AB
:100EB600803AF00080307002031D632FFA3073020F
:100EC6000318662F672F742F22008E160E138E13AB
:100ED6005330890B6C2F00000130F3070030F43DCE
:100EE600862F7408803AF00081307002031D7D2F32
:100EF600F43073020318802F812F842F22008E1264
:100F06006B2FF301F4010B307506760403198C2F51
:100F16008D2F942F0C3075067604031D932F942F76
:100F2600C02F7408803AF00080307002031D9D2F98
:100F3600FA3073020318A02FA12FAE2F22008E12B3
:100F46000E178E135330890BA62F00000130F307BE
:100F56000030F43DC02F7408803AF00081307002F2
:100F6600031DB72FF43073020318BA2FBB2FBE2F01
:100F760022000E13A52FF301F4010D307506760439
:100F86000319C62FC72FCE2F0E3075067604031D04
:100F9600CD2FCE2FCE2C7408803AF0008030700210
:100FA600031DD72FFA3073020318DA2FDB2FE82F31
:100FB60022008E120E138E175330890BE02F00007D
:100FC6000130F3070030F43DCE2C7408803AF0006F
:100FD60081307002031DF12FF43073020318F42FD1
:100FE600F52FF82F22008E13DF2FF301F401CE2CFC
:0A0FF6008031022820008431BB2C5A
:020000040001F9
:08000000FF3FFF3FFF3FFF3F00
:04000E00A409FF1D25
:00000001FF
