:08000000803102288731F12F45
:10000C007708F1007608F00008007708F50076080C
:10001C00F40008007708F3007608F2000800583066
:10002C002100990022009601080080313720803190
:10003C008031152080318F317D27803180314E20E9
:10004C00803108002000911E2C282D282828FC0126
:10005C0023009D1C3228332835281D121D16190823
:10006C00080022008C018D018E013F3021008C0094
:10007C0070308D008E0123008E018D0117308C00A5
:10008C0024008D018C012100951722009D01080090
:10009C00083023009F0090309D0024309E001930C2
:1000AC009B009C010030F6000030F70080310B20E3
:1000BC0080310030F6000030F700803110208031A4
:1000CC000030F6000030F700803106208031FC0152
:1000DC0008004F3020002006031D75287628902834
:1000EC004E302106031D7B287C28902830302206B8
:1000FC00031D81288228902831302306031D872870
:10010C008828902823302406031D8D288E289028BB
:10011C0022000E144F3020002006031D962897282D
:10012C00B1284E302106031D9C289D28B128303063
:10013C002206031DA228A328B12832302306031D52
:10014C00A828A928B12823302406031DAE28AF28DF
:10015C00B12822008E144F3020002006031DB72832
:10016C00B828D2284E302106031DBD28BE28D2281F
:10017C0030302206031DC328C428D228333023066E
:10018C00031DC928CA28D22823302406031DCF28D2
:10019C00D028D22822000E154F3020002006031D37
:1001AC00D828D928F3284E302106031DDE28DF2855
:1001BC00F32830302206031DE428E528F3283430D8
:1001CC002306031DEA28EB28F32823302406031DFD
:1001DC00F028F128F32822008E154F30200020063D
:1001EC00031DF928FA2814294E302106031DFF2877
:1001FC000029142930302206031D0529062914294B
:10020C0035302306031D0B290C2914292330240611
:10021C00031D11291229142922000E164F3020001B
:10022C002006031D1A291B2935294E302106031DD2
:10023C0020292129352930302206031D262927297A
:10024C00352936302306031D2C292D293529233039
:10025C002406031D32293329352922008E164F30EE
:10026C0020002006031D3B293C2956294E3021062F
:10027C00031D41294229562930302206031D4729E6
:10028C004829562937302306031D4D294E29562956
:10029C0023302406031D53295429562922000E17F6
:1002AC004F3020002006031D5C295D2977294E3034
:1002BC002106031D62296329772930302206031D8C
:1002CC0068296929772938302306031D6E296F297F
:1002DC00772923302406031D7429752977292200D8
:1002EC008E174F3020002006031D7D297E2993296F
:1002FC004E302106031D8329842993292A30220696
:10030C00031D89298A29932923302306031D8F294C
:10031C0090299329FF3022008E0008004F302000D6
:10032C002006031D9A299B29BB2946302106031D53
:10033C00A029A129BB2946302206031DA629A729DD
:10034C00BB2930302306031DAC29AD29BB29313024
:10035C002406031DB229B329BB2923302506031D0E
:10036C00B829B929BB2922000E104F3020002006D5
:10037C00031DC129C229E22946302106031DC729C4
:10038C00C829E22946302206031DCD29CE29E229AF
:10039C0030302306031DD329D429E2293230240618
:1003AC00031DD929DA29E22923302506031DDF296B
:1003BC00E029E22922008E104F3020002006031D78
:1003CC00E829E929092A46302106031DEE29EF29DF
:1003DC00092A46302206031DF429F529092A303052
:1003EC002306031DFA29FB29092A33302406031D91
:1003FC00002A012A092A23302506031D062A072A6A
:10040C00092A22000E114F3020002006031D0F2A4E
:10041C00102A302A46302106031D152A162A302AA6
:10042C0046302206031D1B2A1C2A302A3030230694
:10043C00031D212A222A302A34302406031D272AA0
:10044C00282A302A23302506031D2D2A2E2A302A4D
:10045C0022008E114F3020002006031D362A372A29
:10046C00572A46302106031D3C2A3D2A572A46307E
:10047C002206031D422A432A572A30302306031D25
:10048C00482A492A572A35302406031D4E2A4F2A5A
:10049C00572A23302506031D542A552A572A220091
:1004AC000E124F3020002006031D5D2A5E2A7E2A84
:1004BC0046302106031D632A642A7E2A4630220612
:1004CC00031D692A6A2A7E2A30302306031D6F2AEF
:1004DC00702A7E2A36302406031D752A762A7E2A37
:1004EC0023302506031D7B2A7C2A7E2A22008E12AD
:1004FC004F3020002006031D842A852AA52A463069
:10050C002106031D8A2A8B2AA52A46302206031DA2
:10051C00902A912AA52A30302306031D962A972A61
:10052C00A52A37302406031D9C2A9D2AA52A233090
:10053C002506031DA22AA32AA52A22000E134F303A
:10054C0020002006031DAB2AAC2ACC2A46302106FB
:10055C00031DB12AB22ACC2A46302206031DB72A23
:10056C00B82ACC2A30302306031DBD2ABE2ACC2A39
:10057C0038302406031DC32AC42ACC2A233025066E
:10058C00031DC92ACA2ACC2A22008E134F30200000
:10059C002006031DD22AD32AED2A46302106031D3C
:1005AC00D82AD92AED2A46302206031DDE2ADF2A54
:1005BC00ED2A2A302306031DE42AE52AED2A2330EE
:1005CC002406031DEA2AEB2AED2A22008E010800DC
:1005DC0080311B20823122008E018F3181278231A4
:1005EC00003A0319FA2AFB2AFE2A8F318627823118
:1005FC0080316F2082318131942182314230200050
:10060C002006031D0A2B0B2B902B4C302106031DAF
:10061C00102B112B902B49302206031D162B172B58
:10062C00902B4E302306031D1C2B1D2B902B4B3077
:10063C002406031D222B232B902B30302506031D63
:10064C00282B292B902B31302606031D2E2B2F2BDC
:10065C00902B23302706031D342B352B902BFA01BE
:10066C00FB01FA01FB01FB1B3C2B3D2B512B7B08A7
:10067C00803AF90081307902031D462BF4307A025E
:10068C000318492B4A2B512B22000E145330890B83
:10069C004D2B00006E2B7B08803AF90081307902DB
:1006AC00031D5A2BF4307A02031C5D2B5E2B6E2B30
:1006BC007B08803AF90083307902031D672BE83000
:1006CC007A0203186A2B6B2B6E2B22000E104C2B0C
:1006DC008F3181278231003A0319752B762B7F2BB2
:1006EC008F318627823180316F2082318131942184
:1006FC0082310130FA070030FB3D7B08803AF9006B
:10070C0083307902031D8C2BE8307A02031C8F2B6B
:10071C00902B392B423020002006031D962B972B53
:10072C001C2C4C302106031D9C2B9D2B1C2C493062
:10073C002206031DA22BA32B1C2C4E302306031DBB
:10074C00A82BA92B1C2C4B302406031DAE2BAF2B36
:10075C001C2C30302506031DB42BB52B1C2C323031
:10076C002606031DBA2BBB2B1C2C23302706031D7E
:10077C00C02BC12B1C2CFA01FB01FA01FB01FB1B4A
:10078C00C82BC92BDD2B7B08803AF900813079020C
:10079C00031DD22BF4307A020318D52BD62BDD2B6C
:1007AC0022008E145330890BD92B0000FA2B7B08B6
:1007BC00803AF90081307902031DE62BF4307A027D
:1007CC00031CE92BEA2BFA2B7B08803AF9008330C7
:1007DC007902031DF32BE8307A020318F62BF72B62
:1007EC00FA2B22008E10D82B8F3181278231003AC0
:1007FC000319012C022C0B2C8F318627823180316E
:10080C006F2082318131942182310130FA0700301E
:10081C00FB3D7B08803AF90083307902031D182CCC
:10082C00E8307A02031C1B2C1C2CC52B42302000F8
:10083C002006031D222C232CA82C4C302106031D32
:10084C00282C292CA82C49302206031D2E2C2F2CA9
:10085C00A82C4E302306031D342C352CA82C4B30E1
:10086C002406031D3A2C3B2CA82C30302506031DE6
:10087C00402C412CA82C33302606031D462C472C2B
:10088C00A82C23302706031D4C2C4D2CA82CFA0128
:10089C00FB01FA01FB01FB1B542C552C692C7B082A
:1008AC00803AF90081307902031D5E2CF4307A0213
:1008BC000318612C622C692C22000E155330890B05
:1008CC00652C0000862C7B08803AF9008130790277
:1008DC00031D722CF4307A02031C752C762C862C9A
:1008EC007B08803AF90083307902031D7F2CE830B5
:1008FC007A020318822C832C862C22000E11642C75
:10090C008F3181278231003A03198D2C8E2C972C34
:10091C008F318627823180316F2082318131942151
:10092C0082310130FA070030FB3D7B08803AF90038
:10093C0083307902031DA42CE8307A02031CA72C07
:10094C00A82C512C423020002006031DAE2CAF2CBD
:10095C00342D4C302106031DB42CB52C342D4930CC
:10096C002206031DBA2CBB2C342D4E302306031D3E
:10097C00C02CC12C342D4B302406031DC62CC72C87
:10098C00342D30302506031DCC2CCD2C342D343099
:10099C002606031DD22CD32C342D23302706031D01
:1009AC00D82CD92C342DFA01FB01FA01FB01FB1BCD
:1009BC00E02CE12CF52C7B08803AF900813079028F
:1009CC00031DEA2CF4307A020318ED2CEE2CF52CD6
:1009DC0022008E155330890BF12C0000122D7B0850
:1009EC00803AF90081307902031DFE2CF4307A0232
:1009FC00031C012D022D122D7B08803AF900833047
:100A0C007902031D0B2DE8307A0203180E2D0F2DE1
:100A1C00122D22008E11F02C8F3181278231003A59
:100A2C000319192D1A2D232D8F31862782318031F0
:100A3C006F2082318131942182310130FA070030EC
:100A4C00FB3D7B08803AF90083307902031D302D81
:100A5C00E8307A02031C332D342DDD2C423020007B
:100A6C002006031D3A2D3B2DC02D4C302106031DB5
:100A7C00402D412DC02D49302206031D462D472DFA
:100A8C00C02D4E302306031D4C2D4D2DC02D4B304B
:100A9C002406031D522D532DC02D30302506031D69
:100AAC00582D592DC02D35302606031D5E2D5F2D7A
:100ABC00C02D23302706031D642D652DC02DFA0192
:100ACC00FB01FA01FB01FB1B6C2D6D2D812D7B08AD
:100ADC00803AF90081307902031D762DF4307A02C8
:100AEC000318792D7A2D812D22000E165330890B87
:100AFC007D2D00009E2D7B08803AF9008130790213
:100B0C00031D8A2DF4307A02031C8D2D8E2D9E2D03
:100B1C007B08803AF90083307902031D972DE83069
:100B2C007A0203189A2D9B2D9E2D22000E127C2DDD
:100B3C008F3181278231003A0319A52DA62DAF2DB7
:100B4C008F318627823180316F208231813194211F
:100B5C0082310130FA070030FB3D7B08803AF90006
:100B6C0083307902031DBC2DE8307A02031CBF2DA3
:100B7C00C02D692D423020002006031DC62DC72D27
:100B8C004C2E4C302106031DCC2DCD2D4C2E493036
:100B9C002206031DD22DD32D4C2E4E302306031DC1
:100BAC00D82DD92D4C2E4B302406031DDE2DDF2DD8
:100BBC004C2E30302506031DE42DE52D4C2E363001
:100BCC002606031DEA2DEB2D4C2E23302706031D84
:100BDC00F02DF12D4C2EFA01FB01FA01FB01FB1B50
:100BEC00F82DF92D0D2E7B08803AF9008130790211
:100BFC00031D022EF4307A020318052E062E0D2E3C
:100C0C0022008E165330890B092E00002A2E7B08E9
:100C1C00803AF90081307902031D162EF4307A02E5
:100C2C00031C192E1A2E2A2E7B08803AF9008330C9
:100C3C007902031D232EE8307A020318262E272E64
:100C4C002A2E22008E12082E8F3181278231003AF3
:100C5C000319312E322E3B2E8F3186278231803173
:100C6C006F2082318131942182310130FA070030BA
:100C7C00FB3D7B08803AF90083307902031D482E36
:100C8C00E8307A02031C4B2E4C2EF52D42302000FE
:100C9C002006031D522E532ED82E4C302106031D38
:100CAC00582E592ED82E49302206031D5E2E5F2E4B
:100CBC00D82E4E302306031D642E652ED82E4B30B5
:100CCC002406031D6A2E6B2ED82E30302506031DEC
:100CDC00702E712ED82E37302606031D762E772EC9
:100CEC00D82E23302706031D7C2E7D2ED82EFA01FC
:100CFC00FB01FA01FB01FB1B842E852E992E7B0830
:100D0C00803AF90081307902031D8E2EF4307A027C
:100D1C000318912E922E992E22000E175330890B08
:100D2C00952E0000B62E7B08803AF90081307902AE
:100D3C00031DA22EF4307A02031CA52EA62EB62E6D
:100D4C007B08803AF90083307902031DAF2EE8301E
:100D5C007A020318B22EB32EB62E22000E13942E46
:100D6C008F3181278231003A0319BD2EBE2EC72E3A
:100D7C008F318627823180316F20823181319421ED
:100D8C0082310130FA070030FB3D7B08803AF900D4
:100D9C0083307902031DD42EE8307A02031CD72E3F
:100DAC00D82E812E423020002006031DDE2EDF2E91
:100DBC00642F4C302106031DE42EE52E642F4930A0
:100DCC002206031DEA2EEB2E642F4E302306031D44
:100DDC00F02EF12E642F4B302406031DF62EF72E29
:100DEC00642F30302506031DFC2EFD2E642F383069
:100DFC002606031D022F032F642F23302706031D05
:100E0C00082F092F642FFA01FB01FA01FB01FB1BD0
:100E1C00102F112F252F7B08803AF9008130790291
:100E2C00031D1A2FF4307A0203181D2F1E2F252FA5
:100E3C0022008E175330890B212F0000422F7B0884
:100E4C00803AF90081307902031D2E2FF4307A029A
:100E5C00031C312F322F422F7B08803AF90083304C
:100E6C007902031D3B2FE8307A0203183E2F3F2FE7
:100E7C00422F22008E13202F8F3181278231003A8E
:100E8C000319492F4A2F532F8F31862782318031F6
:100E9C006F2082318131942182310130FA07003088
:100EAC00FB3D7B08803AF90083307902031D602FEB
:100EBC00E8307A02031C632F642F0D2F4230200080
:100ECC002006031D6A2F6B2FF32A4C302106031DBD
:100EDC00702F712FF32A49302206031D762F772F9E
:100EEC00F32A4E302306031D7C2F7D2FF32A4B3023
:100EFC002406031D822F832FF32A2A302506031D77
:100F0C00882F892FF32A23302606031D8E2F8F2F2F
:100F1C00F32AFA01FB01FA01FB01FB1B962F972F19
:100F2C00AC2F7B08803AF90081307902031DA02F89
:100F3C00F4307A020318A32FA42FAC2FFF30220019
:100F4C008E005330890BA82F0000CC2F7B08803AE1
:100F5C00F90081307902031DB52FF4307A02031C9D
:100F6C00B82FB92FCC2F7B08803AF9008330790247
:100F7C00031DC22FE8307A020318C52FC62FCC2FC1
:100F8C0022008E015330890BC92F00008F3181272D
:100F9C008231003A0319D32FD42FDD2F8F318627BE
:100FAC00823180316F208231813194218231013044
:100FBC00FA070030FB3D7B08803AF9008330790258
:100FCC00031DEA2FE8307A02031CED2FEE2F932F2E
:100FDC00F32A80310228FC012000A001A101A2010A
:100FEC00A301A401A501A601A701A801A901200044
:040FFC008231EE2A26
:101EFA0016302100970008002000110E890C0139C4
:101F0A000800F701F801F701F8017708203E86007A
:101F1A00870181010130F7070030F83D7808803ADF
:101F2A00F60080307602031D9C2F09307702031CCD
:101F3A009F2FA02F8A2FF701F801F701F8018031AE
:101F4A0028208F31F6007708203E86008701760820
:101F5A008100233020002406031DB42FB52FB92F8A
:101F6A00A501A601A701FF2F2A302206031DBE2FB5
:101F7A00BF2FCA2F23302306031DC42FC52FCA2FF4
:101F8A00A401A501A601A701FF2F23302506031DE1
:101F9A00CF2FD02FD32FA601A701FF2F2A30230638
:101FAA00031DD82FD92FE02F23302406031DDE2F3F
:101FBA00DF2FE02FB52F2A302506031DE52FE62F48
:101FCA00EE2F23302606031DEB2FEC2FEE2FA70151
:101FDA00FF2F0130F7070030F83D7808803AF60005
:101FEA0080307602031DFB2F08307702031CFE2F78
:061FFA00FF2FA42F0800D8
:020000040001F9
:08000000FF3FFF3FFF3FFF3F00
:04000E00E43FFF3F8D
:00000001FF
