:060000000A128A11FC2F18
:100CDC00831603138601870188018312031386018F
:100CEC0087018801AE01AD01AF010730AB000030C8
:100CFC00AC000830A4000030A5000430A000003087
:100D0C00A100A6010130A2000030A3000130A9000F
:100D1C000030AA00C52F2B0A031D982E2C0A031D88
:100D2C00982E992EAE2E2508803AFF0080307F0237
:100D3C00031DA22E01302402031CA52EA62EAE2EBE
:100D4C00FF3083120313A4070318A50AFF30A5076D
:100D5C0083120313240A031DB72E250A031DB72E75
:100D6C00B82EBE2EFF30A0070318A10AFF30A10732
:100D7C000F302D060319C32EC42EE32EA60101300D
:100D8C00A2000030A300E32E831203132D082204CB
:100D9C0087002130F1007630F000F00BD32EF10BF0
:100DAC00D32E0000031083120313220DA200230D77
:100DBC00A3000130F0007008A6072108803A803C9F
:100DCC00031DEA2E20082602031CED2EEE2ECA2E41
:100DDC00831203132D082204F0007008AD002D08B7
:100DEC0087002E0A0319FB2EFC2E022FA6010130C0
:100DFC00A7000030A8001E2FA701A8011E2F8312E8
:100E0C0003132E08270486002130F1007630F00001
:100E1C00F00B0E2FF10B0E2F000003108312031397
:100E2C00270DA700280DA8000130F0007008A607B8
:100E3C002508803A803C031D252F24082602031C1C
:100E4C00282F292F052F8312031324082504031D93
:100E5C00302F312F452F2E08270486002130F1002A
:100E6C007630F000F00B382FF10B382F0000FF30EC
:100E7C0083120313A4070318A50AFF30A5072E0835
:100E8C002704F0007008AE002E0886002F0A031904
:100E9C00502F512F572FA6010130A9000030AA0066
:100EAC00732FA901AA01732F831203132F0829048E
:100EBC0088002130F1007630F000F00B632FF10B3D
:100ECC00632F0000031083120313290DA9002A0DB0
:100EDC00AA000130F0007008A6072C08803A803C6C
:100EEC00031D7A2F2B08260203187D2F7E2F8D2FA2
:100EFC00831203132C08803AFF0080307F02031DFD
:100F0C00892F01302B0203188C2F8D2F5A2F83120F
:100F1C0003132B082C04031D942F952FA92F2F0896
:100F2C00290488002130F1007630F000F00B9C2F62
:100F3C00F10B9C2F0000FF3083120313AB07031837
:100F4C00AC0AFF30AC072F082904F0007008AF0082
:100F5C002F0888002C08803AFF0080307F02031D88
:100F6C00B92F01302B02031CBC2FBD2FC52FFF3016
:100F7C0083120313AB070318AC0AFF30AC078312C0
:100F8C0003132F0A031DCB2FCC2F912E2E0A031DDA
:100F9C00D02FD12F912E1F302D06031DD62FD72FDA
:100FAC00912E4130F100EE30F000F00BDB2FF10B05
:100FBC00DB2F0000831203138601870188010130A7
:100FCC00A2000030A3000730AB000030AC000830AA
:100FDC00A4000030A5000430A0000030A100AD0139
:100FEC00AE01AF01C52F0A128A11002883010A1223
:040FFC008A116E2EBA
:08400000FF3FFF3FFF3FFF3FC0
:02400E00393F38
:00000001FF
