:08000000803102288731ED2F49
:100C8600163021009700080022000D150D110800EE
:100C960022000D160D1208007E3430346D3479347E
:100CA60033345B345A3021009900980122009601B2
:100CB6000800F93020009B009A01911004309C0036
:100CC60008001C30260093003E3091009201CF3080
:100CD60025009E05080086317E26863186315526FA
:100CE60086318631432686318631642686318631C1
:100CF6005C268631080022008C018D01F43021002B
:100D06008C00C3308D00FC3023008D001F308C001A
:100D160024008D018C012100951722009D019E0162
:100D260008007108F3007008F200F336F20CF3368F
:100D3600F20C72082600910070080339F2000430A4
:100D4600F235890BA32E1308CF39720493000800DD
:100D5600F4007403031DB02EB12EB52E22000C1420
:100D66008C10C42E7408031DB92EBA2EC42E220070
:100D76000C108C100030F000F1008631942686317C
:100D8600C42E0800F300F501F5017308203E860025
:100D960087010130F000750AD12EF035890BD02E6F
:100DA60070080105F100750AD92EF136890BD82E87
:100DB6007108F2007208F4007403031DE32EE42E9A
:100DC600E72E22008D15EE2E7408031DEB2EEC2E59
:100DD600EE2E22008D118631472686310130F00035
:100DE6007008F50707307502031CFA2EFB2EC82E75
:100DF60086314B268631080086316E2686312200E2
:100E06000D118D110D12F901F801F7010030F000F6
:100E1600F10086319426863100308631C52686312A
:100E260024000D108D1020000D1C1A2F1B2F342F9F
:100E36007808031D1F2F202F342F2130F60076301F
:100E4600890B232FF60B232F003220000D1C2C2F8D
:100E56002D2F342F7808031D312F322F342FF80110
:100E6600F80A7803031D382F392FD92F22008D1643
:100E760020008D1C3F2F402F512F1E30F60037309B
:100E8600890B432FF60B432F000020008D1C4C2F9F
:100E96004D2F512F0130F6007608F90706307902FA
:100EA600031C562F572F592FF901F90A770879068F
:100EB60003195E2F5F2F672F7908F6007608F70073
:100EC60079088631C526863120000D1C6B2F6C2FC4
:100ED600842F7803031D702F712F842F2130F60085
:100EE6007630890B742FF60B742F003220000D1C00
:100EF6007D2F7E2F842F7803031D822F832F842F2F
:100F0600F8017903031D882F892F942FC730F0002D
:100F16000030F10086319426863101308631AB26C9
:100F2600863102307906031D992F9A2FA52F8F300F
:100F3600F0000130F1008631942686310130863189
:100F4600AB26863103307906031DAA2FAB2FB62FA9
:100F56005730F0000230F100863194268631013098
:100F66008631AB26863104307906031DBB2FBC2F94
:100F7600C72F1F30F0000330F100863194268631EA
:100F860001308631AB26863105307906031DCC2F1C
:100F9600CD2F162FE730F0000330F100863194266E
:100FA600863101308631AB268631162F7808031D2F
:100FB600DD2FDE2F162F00308631AB26863122003C
:100FC6008D1200308631C5268631F801F901162FBB
:100FD600803102284F308400863085001200A00040
:100FE6001200A1001200A2001200A3001200A40029
:0A0FF6001200A50020008631FF2E36
:020000040001F9
:08000000FF3FFF3FFF3FFF3F00
:04000E00E409FF3EC4
:00000001FF
