:060000000A128A11FC2F18
:100ACE003F308312031386000A128A1160260A121F
:100ADE008A1106308312031386000A128A116026C9
:100AEE000A128A115B308312031386000A128A11CE
:100AFE0060260A128A114F308312031386000A12DF
:100B0E008A1160260A128A11663083120313860038
:100B1E000A128A1160260A128A116D30831203138B
:100B2E0086000A128A1160260A128A110800F6013E
:100B3E00F31FA22DA32DAA2DF209F309F20A031910
:100B4E00F30AF601F60AF11FAD2DAE2DB32DF00905
:100B5E00F109F00A0319F10A700871040319B82D8E
:100B6E00B92DE82DF501F50AC72D01300310F00D52
:100B7E00F10DFF3E031DBD2D0130F4007408F50785
:100B8E00F11FCA2DCB2DBC2D71087302031DD12D63
:100B9E0070087202031CD42DD52DDB2D7008F202C5
:100BAE007108031CF303F30201300310F10CF00C77
:100BBE00FF3E031DDC2D0130F502031DE72DE82D50
:100BCE00CB2D76080319EC2DED2DF22DF209F3093C
:100BDE00F20A0319F30A7308F1007208F000080014
:100BEE0083120313A101F81FFD2DFE2D052EF7090B
:100BFE00F809F70A0319F80AA101A10AFA1F082E2B
:100C0E00092E122EF909FA09F90A0319FA0A013006
:100C1E00FB007B08A106A201A30177087804031943
:100C2E00192E1A2E512EA001A00A282E01300310C3
:100C3E00F70DF80DFF3E031D1E2E0130FB007B0845
:100C4E00A007F81F2B2E2C2E1D2E01300310A20DE7
:100C5E00A30DFF3E031D2D2E78087A02031D392E9B
:100C6E0077087902031C3C2E3D2E442E7708F9029C
:100C7E007808031CFA03FA02221401300310F80C50
:100C8E00F70CFF3E031D452E0130A002031D502E12
:100C9E00512E2C2E21080319552E562E5B2EA209ED
:100CAE00A309A20A0319A30A2308F8002208F700D1
:100CBE0008003F308312031387001E30F1003730D7
:100CCE00F000F00B682EF10B682E06308312031322
:100CDE0087001E30F1003730F000F00B742EF10B50
:100CEE00742E5B308312031387001E30F1003730F1
:100CFE00F000F00B802EF10B802E4F308312031379
:100D0E0087001E30F1003730F000F00B8C2EF10B07
:100D1E008C2E66308312031387001E30F10037309D
:100D2E00F000F00B982EF10B982E6D3083120313FA
:100D3E0087001E30F1003730F000F00BA42EF10BBF
:100D4E00A42E7D308312031387001E30F10037303E
:100D5E00F000F00BB02EF10BB02E07308312031300
:100D6E0087001E30F1003730F000F00BBC2EF10B77
:100D7E00BC2E7F308312031387001E30F1003730F4
:100D8E00F000F00BC82EF10BC82E6F308312031338
:100D9E0087001E30F1003730F000F00BD42EF10B2F
:100DAE00D42E080083120313A801A901A601A701DE
:100DBE0083160313850186018701831603178801A5
:100DCE008312031385013F3086003F308700E62FE4
:100DDE000A128A1167250A128A110130831203132F
:100DEE00A8070318A90A0030A9073C3028062904D1
:100DFE00031D022F032F042FF32F0A30F7000030AC
:100E0E00F8000A30F0000030F1002908F30028083D
:100E1E00F2000A128A119E250A128A117008831294
:100E2E0003132802F9007108031C710A2902FA0043
:100E3E000A128A11F7250A128A11780883120313EF
:100E4E00A5007708A4000A30F0000030F100290850
:100E5E00F3002808F2000A128A119E250A128A113E
:100E6E00710883120313A7007008A600702F0510D7
:100E7E00851005118511C42F0510851005118515D6
:100E8E00C42F0510851005158511C42F051085106A
:100E9E0005158515C42F0510851405118511C42F50
:100EAE000510851405118515C42F0510851405151B
:100EBE008511C42F0510851405158515C42F05142D
:100ECE00851005118511C42F051485100511851582
:100EDE00C42F2508003A0319752F6B2F2408003AEA
:100EEE0003193E2F013A0319432F033A0319482FD2
:100EFE00013A03194D2F073A0319522F013A0319DC
:100F0E00572F033A03195C2F013A0319612F0F3A39
:100F1E000319662F6B2F0512851205138513E62F05
:100F2E000512851205138517E62F05128512051772
:100F3E008513E62F0512851205178517E62F051264
:100F4E00851605138513E62F0512851605138517CD
:100F5E00E62F0512851605178513E62F0512851641
:100F6E0005178517E62F0516851205138513E62F2F
:100F7E000516851205138517E62F2708003A031963
:100F8E00C92FBF2F2608003A0319922F013A0319D1
:100F9E00972F033A03199C2F013A0319A12F073AF1
:100FAE000319A62F013A0319AB2F033A0319B02FD9
:100FBE00013A0319B52F0F3A0319BA2FBF2F29087B
:100FCE00803AFF0080307F02031DEF2F3C30280255
:100FDE00031CF22FF32FEF2E83120313A801A90186
:100FEE008501EA2E0A128A11002883010A128A113B
:020FFE00D92EEA
:08400000FF3FFF3FFF3FFF3FC0
:04400E00D420FF3F7C
:00000001FF
