:08000000803102288731F12F45
:100A580022000E100E14080022008E128E160800B6
:100A680022000E150E11080022008E178E130800A2
:100A7800FE0012001E00FE0B3D2D00344034793478
:100A880024343034193412340234783400341034B5
:100A9800F501F601F501F60170082D3E8600870183
:100AA800750AF2004030F3000030F4005E2D740D3A
:100AB800F40CF30CF20B5B2D73080105031D652D77
:100AC800662D692D22008E106B2D22008E14853123
:100AD8002C2585310130F5070030F63D7608803A3F
:100AE800F20080307202031D7B2D07307502031C53
:100AF8007E2D7F2D502D0800F501F601F501F60138
:100B080070082D3E86008701750AF2004030F30018
:100B18000030F400922D740DF40CF30CF20B8F2DB1
:100B280073080105031D992D9A2D9D2D22000E1382
:100B38009F2D22000E178531302585310130F507AC
:100B48000030F63D7608803AF20080307202031DCC
:100B5800AF2D07307502031CB22DB32D842D08006C
:100B68000A30F0000030F1007A08F3007908F2004A
:100B78008631432685317008FB007B082000A000E1
:100B88000A30F0000030F1007A08F3007908F2002A
:100B98008531F02585317008FB007B082000A10015
:100BA8002108FB00FC017B08F0007C08F10085317E
:100BB8004C25853185312C25853120002008FB0006
:100BC800FC017B08F0007C08F10085314C2585315B
:100BD8008531342585310800F601F31FF42DF52DF4
:100BE800FC2DF209F309F20A0319F30AF601F60AD1
:100BF800F11FFF2D002E052EF009F109F00A031947
:100C0800F10A7008710403190A2E0B2E342EF5010F
:100C1800F50A172E0130F035F10D890B0F2E013032
:100C2800F4007408F507F11F1A2E1B2E0E2E7108FA
:100C38007302031D212E70087202031C242E252E18
:100C4800292E7008F2027108F33B0130F136F00CDE
:100C5800890B2A2E0130F502031D332E342E1B2E4C
:100C680076080319382E392E3E2EF209F309F20AB6
:100C78000319F30A7308F1007208F0000800F6017E
:100C8800F11F472E482E4F2EF009F109F00A0319DB
:100C9800F10AF601F60AF31F522E532E5C2EF209C2
:100CA800F309F20A0319F30A0130F4007408F6068E
:100CB800F701F801700871040319632E642E932E4E
:100CC800F501F50A702E0130F035F10D890B682E0B
:100CD8000130F4007408F507F11F732E742E672E87
:100CE8000130F735F80D890B752E71087302031D55
:100CF8007F2E70087202031C822E832E882E7008A5
:100D0800F2027108F33B77140130F136F00C890BCD
:100D1800892E0130F502031D922E932E742E76082B
:100D28000319972E982E9D2EF709F809F70A03192B
:100D3800F80A7808F1007708F00008003B30200036
:100D4800A8000030A9002D2F0A30F0000030F10073
:100D58007A08F3007908F200863143268631710853
:100D68002000A1007008A0000A30F0000030F10057
:100D78007A08F3007908F2008531F0258631710888
:100D88002000A3007008A2002308F1002208F00048
:100D980085314C25863185312C2586312000210866
:100DA800F1002008F00085314C2586318531342545
:100DB8008631202F0A30F0000030F1002908F300B6
:100DC8002808F20086314326863171082000A500E4
:100DD8007008A4000A30F0000030F1002908F30080
:100DE8002808F2008531F025863171082000A70017
:100DF8007008A6002708F1002608F0008531802534
:100E0800863185313025863120002508F1002408F7
:100E1800F00085318025863185313825863131309D
:100E2800FB00B230890B162FFB0B162F0032FF3058
:100E38002000A807FF30A93D2000A91F242F252F37
:100E4800DE2EFF30F907FF30FA3D3B30A8000030B6
:100E5800A900FA1F302F312FA82E080021000E10EC
:100E68008E100E118E120E138E130D168D160D1771
:100E780022008E0123008E018D012000AB01AC0100
:100E8800AA010030F900FA008531B4258731003015
:100E9800F000F10085318025873185313025873193
:100EA8000030F000F1008531802587318531382503
:100EB800873120008D1E612F622F8B2F2130FD007E
:100EC8007630890B652FFD0B652F003220008D1EB3
:100ED8006E2F6F2F8B2F0130AB070030AC3D2C08E5
:100EE800803AFD0080307D02031D7C2F64302B0288
:100EF800031C7F2F802F832F2000AB01AC01200023
:100F08002C08FA002B08F9008531B4258731200018
:100F18000D1F8F2F902FAE2F2130FD007630890BBB
:100F2800932FFD0B932F003220000D1F9C2F9D2F18
:100F3800AE2FFF30AB07FF30AC3DAC1FA42FA52F61
:100F4800A72FAB01AC012C08FA002B08F90085315A
:100F5800B425873120000D1EB22FB32FCC2F2A08BD
:100F6800031DB72FB82FCC2F1130FD003A30890B55
:100F7800BB2FFD0BBB2F003220000D1EC42FC52F29
:100F8800CC2F2A08031DC92FCA2FCC2FAA01AA0AC1
:100F98002A03031DD02FD12FD92F0D1AD42FD52FC7
:100FA800D92F0230FD007D08AA0002302A06031D51
:100FB800DE2FDF2F5D2FFF30AB07FF30AC3D2C0855
:100FC800FA002B08F9008631A22687312000AB01F0
:100FD800AC01AA015D2F803102284230840085309F
:100FE80085002D308600003087000A3085313C2589
:080FF800873120008731322F00
:020000040001F9
:08000000FF3FFF3FFF3FFF3F00
:04000E00A409FF1D25
:00000001FF
